{
  "contractName": "APRWithPoolOracle",
  "abi": [
    {
      "inputs": [],
      "payable": false,
      "stateMutability": "nonpayable",
      "type": "constructor"
    },
    {
      "anonymous": false,
      "inputs": [
        {
          "indexed": true,
          "internalType": "address",
          "name": "previousOwner",
          "type": "address"
        },
        {
          "indexed": true,
          "internalType": "address",
          "name": "newOwner",
          "type": "address"
        }
      ],
      "name": "OwnershipTransferred",
      "type": "event"
    },
    {
      "constant": true,
      "inputs": [],
      "name": "AAVE",
      "outputs": [
        {
          "internalType": "address",
          "name": "",
          "type": "address"
        }
      ],
      "payable": false,
      "stateMutability": "view",
      "type": "function"
    },
    {
      "constant": true,
      "inputs": [],
      "name": "DDEX",
      "outputs": [
        {
          "internalType": "address",
          "name": "",
          "type": "address"
        }
      ],
      "payable": false,
      "stateMutability": "view",
      "type": "function"
    },
    {
      "constant": true,
      "inputs": [],
      "name": "DYDX",
      "outputs": [
        {
          "internalType": "address",
          "name": "",
          "type": "address"
        }
      ],
      "payable": false,
      "stateMutability": "view",
      "type": "function"
    },
    {
      "constant": true,
      "inputs": [],
      "name": "LENDF",
      "outputs": [
        {
          "internalType": "address",
          "name": "",
          "type": "address"
        }
      ],
      "payable": false,
      "stateMutability": "view",
      "type": "function"
    },
    {
      "constant": true,
      "inputs": [],
      "name": "isOwner",
      "outputs": [
        {
          "internalType": "bool",
          "name": "",
          "type": "bool"
        }
      ],
      "payable": false,
      "stateMutability": "view",
      "type": "function"
    },
    {
      "constant": true,
      "inputs": [],
      "name": "owner",
      "outputs": [
        {
          "internalType": "address",
          "name": "",
          "type": "address"
        }
      ],
      "payable": false,
      "stateMutability": "view",
      "type": "function"
    },
    {
      "constant": false,
      "inputs": [],
      "name": "renounceOwnership",
      "outputs": [],
      "payable": false,
      "stateMutability": "nonpayable",
      "type": "function"
    },
    {
      "constant": false,
      "inputs": [
        {
          "internalType": "address",
          "name": "newOwner",
          "type": "address"
        }
      ],
      "name": "transferOwnership",
      "outputs": [],
      "payable": false,
      "stateMutability": "nonpayable",
      "type": "function"
    },
    {
      "constant": false,
      "inputs": [
        {
          "internalType": "address",
          "name": "_new_AAVE",
          "type": "address"
        }
      ],
      "name": "set_new_AAVE",
      "outputs": [],
      "payable": false,
      "stateMutability": "nonpayable",
      "type": "function"
    },
    {
      "constant": false,
      "inputs": [
        {
          "internalType": "address",
          "name": "_new_DDEX",
          "type": "address"
        }
      ],
      "name": "set_new_DDEX",
      "outputs": [],
      "payable": false,
      "stateMutability": "nonpayable",
      "type": "function"
    },
    {
      "constant": false,
      "inputs": [
        {
          "internalType": "address",
          "name": "_new_DYDX",
          "type": "address"
        }
      ],
      "name": "set_new_DYDX",
      "outputs": [],
      "payable": false,
      "stateMutability": "nonpayable",
      "type": "function"
    },
    {
      "constant": false,
      "inputs": [
        {
          "internalType": "address",
          "name": "_new_LENDF",
          "type": "address"
        }
      ],
      "name": "set_new_LENDF",
      "outputs": [],
      "payable": false,
      "stateMutability": "nonpayable",
      "type": "function"
    },
    {
      "constant": true,
      "inputs": [
        {
          "internalType": "address",
          "name": "token",
          "type": "address"
        }
      ],
      "name": "getLENDFAPR",
      "outputs": [
        {
          "internalType": "uint256",
          "name": "",
          "type": "uint256"
        }
      ],
      "payable": false,
      "stateMutability": "view",
      "type": "function"
    },
    {
      "constant": true,
      "inputs": [
        {
          "internalType": "address",
          "name": "token",
          "type": "address"
        },
        {
          "internalType": "uint256",
          "name": "supply",
          "type": "uint256"
        }
      ],
      "name": "getLENDFAPRAdjusted",
      "outputs": [
        {
          "internalType": "uint256",
          "name": "",
          "type": "uint256"
        }
      ],
      "payable": false,
      "stateMutability": "view",
      "type": "function"
    },
    {
      "constant": true,
      "inputs": [
        {
          "internalType": "address",
          "name": "token",
          "type": "address"
        }
      ],
      "name": "getDDEXAPR",
      "outputs": [
        {
          "internalType": "uint256",
          "name": "",
          "type": "uint256"
        }
      ],
      "payable": false,
      "stateMutability": "view",
      "type": "function"
    },
    {
      "constant": true,
      "inputs": [
        {
          "internalType": "address",
          "name": "token",
          "type": "address"
        },
        {
          "internalType": "uint256",
          "name": "_supply",
          "type": "uint256"
        }
      ],
      "name": "getDDEXAPRAdjusted",
      "outputs": [
        {
          "internalType": "uint256",
          "name": "",
          "type": "uint256"
        }
      ],
      "payable": false,
      "stateMutability": "view",
      "type": "function"
    },
    {
      "constant": true,
      "inputs": [
        {
          "internalType": "address",
          "name": "token",
          "type": "address"
        }
      ],
      "name": "getCompoundAPR",
      "outputs": [
        {
          "internalType": "uint256",
          "name": "",
          "type": "uint256"
        }
      ],
      "payable": false,
      "stateMutability": "view",
      "type": "function"
    },
    {
      "constant": true,
      "inputs": [
        {
          "internalType": "address",
          "name": "token",
          "type": "address"
        },
        {
          "internalType": "uint256",
          "name": "_supply",
          "type": "uint256"
        }
      ],
      "name": "getCompoundAPRAdjusted",
      "outputs": [
        {
          "internalType": "uint256",
          "name": "",
          "type": "uint256"
        }
      ],
      "payable": false,
      "stateMutability": "view",
      "type": "function"
    },
    {
      "constant": true,
      "inputs": [
        {
          "internalType": "address",
          "name": "token",
          "type": "address"
        }
      ],
      "name": "getFulcrumAPR",
      "outputs": [
        {
          "internalType": "uint256",
          "name": "",
          "type": "uint256"
        }
      ],
      "payable": false,
      "stateMutability": "view",
      "type": "function"
    },
    {
      "constant": true,
      "inputs": [
        {
          "internalType": "address",
          "name": "token",
          "type": "address"
        },
        {
          "internalType": "uint256",
          "name": "_supply",
          "type": "uint256"
        }
      ],
      "name": "getFulcrumAPRAdjusted",
      "outputs": [
        {
          "internalType": "uint256",
          "name": "",
          "type": "uint256"
        }
      ],
      "payable": false,
      "stateMutability": "view",
      "type": "function"
    },
    {
      "constant": true,
      "inputs": [
        {
          "internalType": "uint256",
          "name": "marketId",
          "type": "uint256"
        }
      ],
      "name": "getDyDxAPR",
      "outputs": [
        {
          "internalType": "uint256",
          "name": "",
          "type": "uint256"
        }
      ],
      "payable": false,
      "stateMutability": "view",
      "type": "function"
    },
    {
      "constant": true,
      "inputs": [
        {
          "internalType": "uint256",
          "name": "marketId",
          "type": "uint256"
        },
        {
          "internalType": "uint256",
          "name": "_supply",
          "type": "uint256"
        }
      ],
      "name": "getDyDxAPRAdjusted",
      "outputs": [
        {
          "internalType": "uint256",
          "name": "",
          "type": "uint256"
        }
      ],
      "payable": false,
      "stateMutability": "view",
      "type": "function"
    },
    {
      "constant": true,
      "inputs": [],
      "name": "getAaveCore",
      "outputs": [
        {
          "internalType": "address",
          "name": "",
          "type": "address"
        }
      ],
      "payable": false,
      "stateMutability": "view",
      "type": "function"
    },
    {
      "constant": true,
      "inputs": [
        {
          "internalType": "address",
          "name": "token",
          "type": "address"
        }
      ],
      "name": "getAaveAPR",
      "outputs": [
        {
          "internalType": "uint256",
          "name": "",
          "type": "uint256"
        }
      ],
      "payable": false,
      "stateMutability": "view",
      "type": "function"
    },
    {
      "constant": true,
      "inputs": [
        {
          "internalType": "address",
          "name": "token",
          "type": "address"
        },
        {
          "internalType": "uint256",
          "name": "_supply",
          "type": "uint256"
        }
      ],
      "name": "getAaveAPRAdjusted",
      "outputs": [
        {
          "internalType": "uint256",
          "name": "",
          "type": "uint256"
        }
      ],
      "payable": false,
      "stateMutability": "view",
      "type": "function"
    },
    {
      "constant": false,
      "inputs": [
        {
          "internalType": "contract IERC20",
          "name": "_TokenAddress",
          "type": "address"
        }
      ],
      "name": "inCaseTokenGetsStuck",
      "outputs": [],
      "payable": false,
      "stateMutability": "nonpayable",
      "type": "function"
    },
    {
      "constant": false,
      "inputs": [],
      "name": "inCaseETHGetsStuck",
      "outputs": [],
      "payable": false,
      "stateMutability": "nonpayable",
      "type": "function"
    }
  ],
  "bytecode": "0x6080604052670de0b6b3a76400006001553480156200001d57600080fd5b506200002e6200024360201b60201c565b6000806101000a81548173ffffffffffffffffffffffffffffffffffffffff021916908373ffffffffffffffffffffffffffffffffffffffff1602179055506000809054906101000a900473ffffffffffffffffffffffffffffffffffffffff1673ffffffffffffffffffffffffffffffffffffffff16600073ffffffffffffffffffffffffffffffffffffffff167f8be0079c531659141344cd1fd0a4f28419497f9722a3daafe3b4186f6b6457e060405160405180910390a3731e0447b19bb6ecfdae1e4ae1694b0c3659614e4e600260006101000a81548173ffffffffffffffffffffffffffffffffffffffff021916908373ffffffffffffffffffffffffffffffffffffffff1602179055507324a42fd28c976a61df5d00d0599c34c4f90748c8600360006101000a81548173ffffffffffffffffffffffffffffffffffffffff021916908373ffffffffffffffffffffffffffffffffffffffff16021790555073241e82c79452f51fbfc89fac6d912e021db1a3b7600460006101000a81548173ffffffffffffffffffffffffffffffffffffffff021916908373ffffffffffffffffffffffffffffffffffffffff160217905550730eee3e3828a45f7601d5f54bf49bb01d1a9df5ea600560006101000a81548173ffffffffffffffffffffffffffffffffffffffff021916908373ffffffffffffffffffffffffffffffffffffffff1602179055506200024b565b600033905090565b6133e7806200025b6000396000f3fe608060405234801561001057600080fd5b50600436106101a95760003560e01c806381d24d8d116100f9578063c043fca211610097578063f60a15ed11610071578063f60a15ed146104f4578063f82ce27d146104fe578063fb73c8321461051c578063fcc01c7b1461054c576101a9565b8063c043fca21461048a578063ddf10842146104a8578063f2fde38b146104d8576101a9565b80638f32d59b116100d35780638f32d59b1461040257806390ece0de14610420578063989eaa9c1461043e578063ae600c451461046e576101a9565b806381d24d8d1461038457806383deca3d146103b45780638da5cb5b146103e4576101a9565b80634eff75d811610166578063715018a611610140578063715018a61461031257806373824dae1461031c578063768528931461034c578063812adb0614610368576101a9565b80634eff75d8146102945780634f5dd969146102c45780636d5ccd18146102f4576101a9565b80630e775fd5146101ae578063192a9861146101de5780632c7a5ae41461020e5780632e8d6e181461022a57806344e258b41461024657806348ccda3c14610276575b600080fd5b6101c860048036036101c39190810190612a80565b61057c565b6040516101d5919061317b565b60405180910390f35b6101f860048036036101f39190810190612a2e565b6106ff565b604051610205919061317b565b60405180910390f35b61022860048036036102239190810190612a2e565b61084b565b005b610244600480360361023f9190810190612bab565b6108d6565b005b610260600480360361025b9190810190612a2e565b610a3c565b60405161026d919061317b565b60405180910390f35b61027e610ad8565b60405161028b9190612fa7565b60405180910390f35b6102ae60048036036102a99190810190612a80565b610afe565b6040516102bb919061317b565b60405180910390f35b6102de60048036036102d99190810190612a2e565b610ba4565b6040516102eb919061317b565b60405180910390f35b6102fc610c7b565b6040516103099190612fa7565b60405180910390f35b61031a610ca1565b005b61033660048036036103319190810190612a80565b610da7565b604051610343919061317b565b60405180910390f35b61036660048036036103619190810190612a2e565b6110dc565b005b610382600480360361037d9190810190612a2e565b611167565b005b61039e60048036036103999190810190612c4f565b6111f2565b6040516103ab919061317b565b60405180910390f35b6103ce60048036036103c99190810190612a2e565b61151b565b6040516103db919061317b565b60405180910390f35b6103ec6115b5565b6040516103f99190612fa7565b60405180910390f35b61040a6115de565b604051610417919061309e565b60405180910390f35b61042861163c565b6040516104359190612fa7565b60405180910390f35b61045860048036036104539190810190612a80565b611662565b604051610465919061317b565b60405180910390f35b61048860048036036104839190810190612a2e565b611a7f565b005b610492611b0a565b60405161049f9190612fa7565b60405180910390f35b6104c260048036036104bd9190810190612a2e565b611b30565b6040516104cf919061317b565b60405180910390f35b6104f260048036036104ed9190810190612a2e565b611bec565b005b6104fc611c3f565b005b610506611d4c565b6040516105139190612fa7565b60405180910390f35b61053660048036036105319190810190612a80565b611df3565b604051610543919061317b565b60405180910390f35b61056660048036036105619190810190612ca1565b612147565b604051610573919061317b565b60405180910390f35b600080600080600560009054906101000a900473ffffffffffffffffffffffffffffffffffffffff1673ffffffffffffffffffffffffffffffffffffffff16638e8f294b876040518263ffffffff1660e01b81526004016105dd9190612fa7565b6101206040518083038186803b1580156105f657600080fd5b505afa15801561060a573d6000803e3d6000fd5b505050506040513d601f19601f8201168201806040525061062e9190810190612ae5565b50509650505094509450505060008373ffffffffffffffffffffffffffffffffffffffff1663517cf73e8861066c898761248690919063ffffffff16565b856040518463ffffffff1660e01b815260040161068b93929190613014565b604080518083038186803b1580156106a257600080fd5b505afa1580156106b6573d6000803e3d6000fd5b505050506040513d601f19601f820116820180604052506106da9190810190612cdd565b9150506106f362201480826124db90919063ffffffff16565b94505050505092915050565b600080600360009054906101000a900473ffffffffffffffffffffffffffffffffffffffff1673ffffffffffffffffffffffffffffffffffffffff1663ed6ff7606040518163ffffffff1660e01b815260040160206040518083038186803b15801561076a57600080fd5b505afa15801561077e573d6000803e3d6000fd5b505050506040513d601f19601f820116820180604052506107a29190810190612a57565b9050610843633b9aca008273ffffffffffffffffffffffffffffffffffffffff1663c540148e866040518263ffffffff1660e01b81526004016107e59190612fa7565b60206040518083038186803b1580156107fd57600080fd5b505afa158015610811573d6000803e3d6000fd5b505050506040513d601f19601f820116820180604052506108359190810190612c78565b61254b90919063ffffffff16565b915050919050565b6108536115de565b610892576040517f08c379a00000000000000000000000000000000000000000000000000000000081526004016108899061315b565b60405180910390fd5b80600260006101000a81548173ffffffffffffffffffffffffffffffffffffffff021916908373ffffffffffffffffffffffffffffffffffffffff16021790555050565b6108de6115de565b61091d576040517f08c379a00000000000000000000000000000000000000000000000000000000081526004016109149061315b565b60405180910390fd5b60008173ffffffffffffffffffffffffffffffffffffffff166370a08231306040518263ffffffff1660e01b81526004016109589190612fa7565b60206040518083038186803b15801561097057600080fd5b505afa158015610984573d6000803e3d6000fd5b505050506040513d601f19601f820116820180604052506109a89190810190612c78565b90508173ffffffffffffffffffffffffffffffffffffffff1663a9059cbb33836040518363ffffffff1660e01b81526004016109e5929190612fc2565b602060405180830381600087803b1580156109ff57600080fd5b505af1158015610a13573d6000803e3d6000fd5b505050506040513d601f19601f82011682018060405250610a379190810190612abc565b505050565b6000610ad1622014808373ffffffffffffffffffffffffffffffffffffffff1663ae9d70b06040518163ffffffff1660e01b815260040160206040518083038186803b158015610a8b57600080fd5b505afa158015610a9f573d6000803e3d6000fd5b505050506040513d601f19601f82011682018060405250610ac39190810190612c78565b6124db90919063ffffffff16565b9050919050565b600360009054906101000a900473ffffffffffffffffffffffffffffffffffffffff1681565b6000610b9c60648473ffffffffffffffffffffffffffffffffffffffff1663d65a5021856040518263ffffffff1660e01b8152600401610b3e919061317b565b60206040518083038186803b158015610b5657600080fd5b505afa158015610b6a573d6000803e3d6000fd5b505050506040513d601f19601f82011682018060405250610b8e9190810190612c78565b61254b90919063ffffffff16565b905092915050565b600080600560009054906101000a900473ffffffffffffffffffffffffffffffffffffffff1673ffffffffffffffffffffffffffffffffffffffff16638e8f294b846040518263ffffffff1660e01b8152600401610c029190612fa7565b6101206040518083038186803b158015610c1b57600080fd5b505afa158015610c2f573d6000803e3d6000fd5b505050506040513d601f19601f82011682018060405250610c539190810190612ae5565b50505050945050505050610c7362201480826124db90919063ffffffff16565b915050919050565b600560009054906101000a900473ffffffffffffffffffffffffffffffffffffffff1681565b610ca96115de565b610ce8576040517f08c379a0000000000000000000000000000000000000000000000000000000008152600401610cdf9061315b565b60405180910390fd5b600073ffffffffffffffffffffffffffffffffffffffff166000809054906101000a900473ffffffffffffffffffffffffffffffffffffffff1673ffffffffffffffffffffffffffffffffffffffff167f8be0079c531659141344cd1fd0a4f28419497f9722a3daafe3b4186f6b6457e060405160405180910390a360008060006101000a81548173ffffffffffffffffffffffffffffffffffffffff021916908373ffffffffffffffffffffffffffffffffffffffff160217905550565b600080610e6783600460009054906101000a900473ffffffffffffffffffffffffffffffffffffffff1673ffffffffffffffffffffffffffffffffffffffff166368da10ae876040518263ffffffff1660e01b8152600401610e099190612fa7565b60206040518083038186803b158015610e2157600080fd5b505afa158015610e35573d6000803e3d6000fd5b505050506040513d601f19601f82011682018060405250610e599190810190612c78565b61248690919063ffffffff16565b90506000600460009054906101000a900473ffffffffffffffffffffffffffffffffffffffff1673ffffffffffffffffffffffffffffffffffffffff16638538d14e866040518263ffffffff1660e01b8152600401610ec69190612fa7565b60206040518083038186803b158015610ede57600080fd5b505afa158015610ef2573d6000803e3d6000fd5b505050506040513d601f19601f82011682018060405250610f169190810190612c78565b90506000610f4683610f38610f29612595565b856124db90919063ffffffff16565b61254b90919063ffffffff16565b90506000600460009054906101000a900473ffffffffffffffffffffffffffffffffffffffff1673ffffffffffffffffffffffffffffffffffffffff166330b8b2c6886040518263ffffffff1660e01b8152600401610fa59190612fa7565b60606040518083038186803b158015610fbd57600080fd5b505afa158015610fd1573d6000803e3d6000fd5b505050506040513d601f19601f82011682018060405250610ff59190810190612bd4565b60400151905060008173ffffffffffffffffffffffffffffffffffffffff166369e8a15f846040518263ffffffff1660e01b8152600401611036919061317b565b60206040518083038186803b15801561104e57600080fd5b505afa158015611062573d6000803e3d6000fd5b505050506040513d601f19601f820116820180604052506110869190810190612c78565b9050600061109485836125a5565b905060006110c1826110bc650b153996e0456110ae612595565b6125dc90919063ffffffff16565b612626565b90506110cd8188612654565b97505050505050505092915050565b6110e46115de565b611123576040517f08c379a000000000000000000000000000000000000000000000000000000000815260040161111a9061315b565b60405180910390fd5b80600460006101000a81548173ffffffffffffffffffffffffffffffffffffffff021916908373ffffffffffffffffffffffffffffffffffffffff16021790555050565b61116f6115de565b6111ae576040517f08c379a00000000000000000000000000000000000000000000000000000000081526004016111a59061315b565b60405180910390fd5b80600360006101000a81548173ffffffffffffffffffffffffffffffffffffffff021916908373ffffffffffffffffffffffffffffffffffffffff16021790555050565b600080600260009054906101000a900473ffffffffffffffffffffffffffffffffffffffff1673ffffffffffffffffffffffffffffffffffffffff1663fd47eda6846040518263ffffffff1660e01b8152600401611250919061317b565b60206040518083038186803b15801561126857600080fd5b505afa15801561127c573d6000803e3d6000fd5b505050506040513d601f19601f820116820180604052506112a09190810190612c26565b60000151905060006301e28500820290506000600260009054906101000a900473ffffffffffffffffffffffffffffffffffffffff1673ffffffffffffffffffffffffffffffffffffffff1663cb04a34c866040518263ffffffff1660e01b815260040161130e919061317b565b604080518083038186803b15801561132557600080fd5b505afa158015611339573d6000803e3d6000fd5b505050506040513d601f19601f8201168201806040525061135d9190810190612bfd565b600001516fffffffffffffffffffffffffffffffff1690506000600260009054906101000a900473ffffffffffffffffffffffffffffffffffffffff1673ffffffffffffffffffffffffffffffffffffffff1663cb04a34c876040518263ffffffff1660e01b81526004016113d2919061317b565b604080518083038186803b1580156113e957600080fd5b505afa1580156113fd573d6000803e3d6000fd5b505050506040513d601f19601f820116820180604052506114219190810190612bfd565b602001516fffffffffffffffffffffffffffffffff16905060008160015484028161144857fe5b0490506000600154600260009054906101000a900473ffffffffffffffffffffffffffffffffffffffff1673ffffffffffffffffffffffffffffffffffffffff1663e55202286040518163ffffffff1660e01b815260040160206040518083038186803b1580156114b857600080fd5b505afa1580156114cc573d6000803e3d6000fd5b505050506040513d601f19601f820116820180604052506114f09190810190612c26565b600001516001548488028161150157fe5b04028161150a57fe5b049050809650505050505050919050565b60006115ae60648373ffffffffffffffffffffffffffffffffffffffff166309ec6b6b6040518163ffffffff1660e01b815260040160206040518083038186803b15801561156857600080fd5b505afa15801561157c573d6000803e3d6000fd5b505050506040513d601f19601f820116820180604052506115a09190810190612c78565b61254b90919063ffffffff16565b9050919050565b60008060009054906101000a900473ffffffffffffffffffffffffffffffffffffffff16905090565b60008060009054906101000a900473ffffffffffffffffffffffffffffffffffffffff1673ffffffffffffffffffffffffffffffffffffffff1661162061268b565b73ffffffffffffffffffffffffffffffffffffffff1614905090565b600460009054906101000a900473ffffffffffffffffffffffffffffffffffffffff1681565b600080600360009054906101000a900473ffffffffffffffffffffffffffffffffffffffff1673ffffffffffffffffffffffffffffffffffffffff1663ed6ff7606040518163ffffffff1660e01b815260040160206040518083038186803b1580156116cd57600080fd5b505afa1580156116e1573d6000803e3d6000fd5b505050506040513d601f19601f820116820180604052506117059190810190612a57565b905060008173ffffffffffffffffffffffffffffffffffffffff16636ae14416866040518263ffffffff1660e01b81526004016117429190612fa7565b60206040518083038186803b15801561175a57600080fd5b505afa15801561176e573d6000803e3d6000fd5b505050506040513d601f19601f820116820180604052506117929190810190612a57565b905060008173ffffffffffffffffffffffffffffffffffffffff166357e37af08761184e888773ffffffffffffffffffffffffffffffffffffffff1663e24030198c6040518263ffffffff1660e01b81526004016117f09190612fa7565b60206040518083038186803b15801561180857600080fd5b505afa15801561181c573d6000803e3d6000fd5b505050506040513d601f19601f820116820180604052506118409190810190612c78565b61248690919063ffffffff16565b8673ffffffffffffffffffffffffffffffffffffffff16637f90fec58b6040518263ffffffff1660e01b81526004016118879190612fa7565b60206040518083038186803b15801561189f57600080fd5b505afa1580156118b3573d6000803e3d6000fd5b505050506040513d601f19601f820116820180604052506118d79190810190612c78565b8773ffffffffffffffffffffffffffffffffffffffff166398bd47378c6040518263ffffffff1660e01b81526004016119109190612fa7565b60206040518083038186803b15801561192857600080fd5b505afa15801561193c573d6000803e3d6000fd5b505050506040513d601f19601f820116820180604052506119609190810190612c78565b8873ffffffffffffffffffffffffffffffffffffffff166346bc0f288d6040518263ffffffff1660e01b81526004016119999190612fa7565b60206040518083038186803b1580156119b157600080fd5b505afa1580156119c5573d6000803e3d6000fd5b505050506040513d601f19601f820116820180604052506119e99190810190612c78565b6040518663ffffffff1660e01b8152600401611a0995949392919061304b565b60606040518083038186803b158015611a2157600080fd5b505afa158015611a35573d6000803e3d6000fd5b505050506040513d601f19601f82011682018060405250611a599190810190612d19565b50509050611a74633b9aca008261254b90919063ffffffff16565b935050505092915050565b611a876115de565b611ac6576040517f08c379a0000000000000000000000000000000000000000000000000000000008152600401611abd9061315b565b60405180910390fd5b80600560006101000a81548173ffffffffffffffffffffffffffffffffffffffff021916908373ffffffffffffffffffffffffffffffffffffffff16021790555050565b600260009054906101000a900473ffffffffffffffffffffffffffffffffffffffff1681565b600080600460009054906101000a900473ffffffffffffffffffffffffffffffffffffffff1673ffffffffffffffffffffffffffffffffffffffff166343239e9b8460006040518363ffffffff1660e01b8152600401611b91929190612feb565b604080518083038186803b158015611ba857600080fd5b505afa158015611bbc573d6000803e3d6000fd5b505050506040513d601f19601f82011682018060405250611be09190810190612cdd565b91505080915050919050565b611bf46115de565b611c33576040517f08c379a0000000000000000000000000000000000000000000000000000000008152600401611c2a9061315b565b60405180910390fd5b611c3c81612693565b50565b611c476115de565b611c86576040517f08c379a0000000000000000000000000000000000000000000000000000000008152600401611c7d9061315b565b60405180910390fd5b60003373ffffffffffffffffffffffffffffffffffffffff163073ffffffffffffffffffffffffffffffffffffffff1631604051611cc390612f92565b60006040518083038185875af1925050503d8060008114611d00576040519150601f19603f3d011682016040523d82523d6000602084013e611d05565b606091505b5050905080611d49576040517f08c379a0000000000000000000000000000000000000000000000000000000008152600401611d409061311b565b60405180910390fd5b50565b6000600360009054906101000a900473ffffffffffffffffffffffffffffffffffffffff1673ffffffffffffffffffffffffffffffffffffffff1663ed6ff7606040518163ffffffff1660e01b815260040160206040518083038186803b158015611db657600080fd5b505afa158015611dca573d6000803e3d6000fd5b505050506040513d601f19601f82011682018060405250611dee9190810190612a57565b905090565b60008083905060008473ffffffffffffffffffffffffffffffffffffffff1663f3fdb15a6040518163ffffffff1660e01b815260040160206040518083038186803b158015611e4157600080fd5b505afa158015611e55573d6000803e3d6000fd5b505050506040513d601f19601f82011682018060405250611e799190810190612a57565b90506000611f0d858473ffffffffffffffffffffffffffffffffffffffff16633b1d21a26040518163ffffffff1660e01b815260040160206040518083038186803b158015611ec757600080fd5b505afa158015611edb573d6000803e3d6000fd5b505050506040513d601f19601f82011682018060405250611eff9190810190612c78565b61248690919063ffffffff16565b905061213c622014808373ffffffffffffffffffffffffffffffffffffffff1663b8168816848773ffffffffffffffffffffffffffffffffffffffff166347bd37186040518163ffffffff1660e01b815260040160206040518083038186803b158015611f7957600080fd5b505afa158015611f8d573d6000803e3d6000fd5b505050506040513d601f19601f82011682018060405250611fb19190810190612c78565b6120418b8a73ffffffffffffffffffffffffffffffffffffffff16638f840ddd6040518163ffffffff1660e01b815260040160206040518083038186803b158015611ffb57600080fd5b505afa15801561200f573d6000803e3d6000fd5b505050506040513d601f19601f820116820180604052506120339190810190612c78565b61248690919063ffffffff16565b8973ffffffffffffffffffffffffffffffffffffffff1663173b99046040518163ffffffff1660e01b815260040160206040518083038186803b15801561208757600080fd5b505afa15801561209b573d6000803e3d6000fd5b505050506040513d601f19601f820116820180604052506120bf9190810190612c78565b6040518563ffffffff1660e01b81526004016120de9493929190613196565b60206040518083038186803b1580156120f657600080fd5b505afa15801561210a573d6000803e3d6000fd5b505050506040513d601f19601f8201168201806040525061212e9190810190612c78565b6124db90919063ffffffff16565b935050505092915050565b600080600260009054906101000a900473ffffffffffffffffffffffffffffffffffffffff1673ffffffffffffffffffffffffffffffffffffffff1663fd47eda6856040518263ffffffff1660e01b81526004016121a5919061317b565b60206040518083038186803b1580156121bd57600080fd5b505afa1580156121d1573d6000803e3d6000fd5b505050506040513d601f19601f820116820180604052506121f59190810190612c26565b60000151905060006301e28500820290506000600260009054906101000a900473ffffffffffffffffffffffffffffffffffffffff1673ffffffffffffffffffffffffffffffffffffffff1663cb04a34c876040518263ffffffff1660e01b8152600401612263919061317b565b604080518083038186803b15801561227a57600080fd5b505afa15801561228e573d6000803e3d6000fd5b505050506040513d601f19601f820116820180604052506122b29190810190612bfd565b600001516fffffffffffffffffffffffffffffffff1690506000600260009054906101000a900473ffffffffffffffffffffffffffffffffffffffff1673ffffffffffffffffffffffffffffffffffffffff1663cb04a34c886040518263ffffffff1660e01b8152600401612327919061317b565b604080518083038186803b15801561233e57600080fd5b505afa158015612352573d6000803e3d6000fd5b505050506040513d601f19601f820116820180604052506123769190810190612bfd565b602001516fffffffffffffffffffffffffffffffff1690506123a1868261248690919063ffffffff16565b90506000816001548402816123b257fe5b0490506000600154600260009054906101000a900473ffffffffffffffffffffffffffffffffffffffff1673ffffffffffffffffffffffffffffffffffffffff1663e55202286040518163ffffffff1660e01b815260040160206040518083038186803b15801561242257600080fd5b505afa158015612436573d6000803e3d6000fd5b505050506040513d601f19601f8201168201806040525061245a9190810190612c26565b600001516001548488028161246b57fe5b04028161247457fe5b04905080965050505050505092915050565b6000808284019050838110156124d1576040517f08c379a00000000000000000000000000000000000000000000000000000000081526004016124c8906130fb565b60405180910390fd5b8091505092915050565b6000808314156124ee5760009050612545565b60008284029050828482816124ff57fe5b0414612540576040517f08c379a00000000000000000000000000000000000000000000000000000000081526004016125379061313b565b60405180910390fd5b809150505b92915050565b600061258d83836040518060400160405280601a81526020017f536166654d6174683a206469766973696f6e206279207a65726f0000000000008152506127c1565b905092915050565b6000670de0b6b3a7640000905090565b60006125d4670de0b6b3a76400006125c684866124db90919063ffffffff16565b61282290919063ffffffff16565b905092915050565b600061261e83836040518060400160405280601e81526020017f536166654d6174683a207375627472616374696f6e206f766572666c6f77000081525061285c565b905092915050565b6000670de0b6b3a764000061264483856124db90919063ffffffff16565b8161264b57fe5b04905092915050565b600061268382612675670de0b6b3a7640000866124db90919063ffffffff16565b61254b90919063ffffffff16565b905092915050565b600033905090565b600073ffffffffffffffffffffffffffffffffffffffff168173ffffffffffffffffffffffffffffffffffffffff161415612703576040517f08c379a00000000000000000000000000000000000000000000000000000000081526004016126fa906130db565b60405180910390fd5b8073ffffffffffffffffffffffffffffffffffffffff166000809054906101000a900473ffffffffffffffffffffffffffffffffffffffff1673ffffffffffffffffffffffffffffffffffffffff167f8be0079c531659141344cd1fd0a4f28419497f9722a3daafe3b4186f6b6457e060405160405180910390a3806000806101000a81548173ffffffffffffffffffffffffffffffffffffffff021916908373ffffffffffffffffffffffffffffffffffffffff16021790555050565b60008083118290612808576040517f08c379a00000000000000000000000000000000000000000000000000000000081526004016127ff91906130b9565b60405180910390fd5b50600083858161281457fe5b049050809150509392505050565b60008061282f848461254b565b90506000838202850390506000811115612850576001820192505050612856565b81925050505b92915050565b60008383111582906128a4576040517f08c379a000000000000000000000000000000000000000000000000000000000815260040161289b91906130b9565b60405180910390fd5b5060008385039050809150509392505050565b6000813590506128c681613331565b92915050565b6000815190506128db81613331565b92915050565b6000815190506128f081613348565b92915050565b6000813590506129058161335f565b92915050565b60006060828403121561291d57600080fd5b61292760606131db565b90506000612937848285016128cc565b600083015250602061294b848285016128cc565b602083015250604061295f848285016128cc565b60408301525092915050565b60006040828403121561297d57600080fd5b61298760406131db565b90506000612997848285016129ef565b60008301525060206129ab848285016129ef565b60208301525092915050565b6000602082840312156129c957600080fd5b6129d360206131db565b905060006129e384828501612a19565b60008301525092915050565b6000815190506129fe81613376565b92915050565b600081359050612a138161338d565b92915050565b600081519050612a288161338d565b92915050565b600060208284031215612a4057600080fd5b6000612a4e848285016128b7565b91505092915050565b600060208284031215612a6957600080fd5b6000612a77848285016128cc565b91505092915050565b60008060408385031215612a9357600080fd5b6000612aa1858286016128b7565b9250506020612ab285828601612a04565b9150509250929050565b600060208284031215612ace57600080fd5b6000612adc848285016128e1565b91505092915050565b60008060008060008060008060006101208a8c031215612b0457600080fd5b6000612b128c828d016128e1565b9950506020612b238c828d01612a19565b9850506040612b348c828d016128cc565b9750506060612b458c828d01612a19565b9650506080612b568c828d01612a19565b95505060a0612b678c828d01612a19565b94505060c0612b788c828d01612a19565b93505060e0612b898c828d01612a19565b925050610100612b9b8c828d01612a19565b9150509295985092959850929598565b600060208284031215612bbd57600080fd5b6000612bcb848285016128f6565b91505092915050565b600060608284031215612be657600080fd5b6000612bf48482850161290b565b91505092915050565b600060408284031215612c0f57600080fd5b6000612c1d8482850161296b565b91505092915050565b600060208284031215612c3857600080fd5b6000612c46848285016129b7565b91505092915050565b600060208284031215612c6157600080fd5b6000612c6f84828501612a04565b91505092915050565b600060208284031215612c8a57600080fd5b6000612c9884828501612a19565b91505092915050565b60008060408385031215612cb457600080fd5b6000612cc285828601612a04565b9250506020612cd385828601612a04565b9150509250929050565b60008060408385031215612cf057600080fd5b6000612cfe85828601612a19565b9250506020612d0f85828601612a19565b9150509250929050565b600080600060608486031215612d2e57600080fd5b6000612d3c86828701612a19565b9350506020612d4d86828701612a19565b9250506040612d5e86828701612a19565b9150509250925092565b612d71816132a5565b82525050565b612d808161322f565b82525050565b612d8f81613241565b82525050565b612d9e816132b7565b82525050565b6000612daf82613208565b612db9818561321e565b9350612dc98185602086016132ed565b612dd281613320565b840191505092915050565b6000612dea60268361321e565b91507f4f776e61626c653a206e6577206f776e657220697320746865207a65726f206160008301527f64647265737300000000000000000000000000000000000000000000000000006020830152604082019050919050565b6000612e50601b8361321e565b91507f536166654d6174683a206164646974696f6e206f766572666c6f7700000000006000830152602082019050919050565b6000612e9060168361321e565b91507f7472616e73666572206f6620455448206661696c6564000000000000000000006000830152602082019050919050565b6000612ed060218361321e565b91507f536166654d6174683a206d756c7469706c69636174696f6e206f766572666c6f60008301527f77000000000000000000000000000000000000000000000000000000000000006020830152604082019050919050565b6000612f3660208361321e565b91507f4f776e61626c653a2063616c6c6572206973206e6f7420746865206f776e65726000830152602082019050919050565b6000612f76600083613213565b9150600082019050919050565b612f8c8161329b565b82525050565b6000612f9d82612f69565b9150819050919050565b6000602082019050612fbc6000830184612d77565b92915050565b6000604082019050612fd76000830185612d68565b612fe46020830184612f83565b9392505050565b60006040820190506130006000830185612d77565b61300d6020830184612d95565b9392505050565b60006060820190506130296000830186612d77565b6130366020830185612f83565b6130436040830184612f83565b949350505050565b600060a0820190506130606000830188612d77565b61306d6020830187612f83565b61307a6040830186612f83565b6130876060830185612f83565b6130946080830184612f83565b9695505050505050565b60006020820190506130b36000830184612d86565b92915050565b600060208201905081810360008301526130d38184612da4565b905092915050565b600060208201905081810360008301526130f481612ddd565b9050919050565b6000602082019050818103600083015261311481612e43565b9050919050565b6000602082019050818103600083015261313481612e83565b9050919050565b6000602082019050818103600083015261315481612ec3565b9050919050565b6000602082019050818103600083015261317481612f29565b9050919050565b60006020820190506131906000830184612f83565b92915050565b60006080820190506131ab6000830187612f83565b6131b86020830186612f83565b6131c56040830185612f83565b6131d26060830184612f83565b95945050505050565b6000604051905081810181811067ffffffffffffffff821117156131fe57600080fd5b8060405250919050565b600081519050919050565b600081905092915050565b600082825260208201905092915050565b600061323a8261327b565b9050919050565b60008115159050919050565b60006132588261322f565b9050919050565b60006fffffffffffffffffffffffffffffffff82169050919050565b600073ffffffffffffffffffffffffffffffffffffffff82169050919050565b6000819050919050565b60006132b0826132c9565b9050919050565b60006132c28261329b565b9050919050565b60006132d4826132db565b9050919050565b60006132e68261327b565b9050919050565b60005b8381101561330b5780820151818401526020810190506132f0565b8381111561331a576000848401525b50505050565b6000601f19601f8301169050919050565b61333a8161322f565b811461334557600080fd5b50565b61335181613241565b811461335c57600080fd5b50565b6133688161324d565b811461337357600080fd5b50565b61337f8161325f565b811461338a57600080fd5b50565b6133968161329b565b81146133a157600080fd5b5056fea365627a7a723158200a70a38a17b1a1aaac679569ca7023406d07a37d44233942fcb67ec7748c08846c6578706572696d656e74616cf564736f6c634300050c0040",
  "source": "pragma solidity ^0.5.0;\r\npragma experimental ABIEncoderV2;\r\n\r\ninterface IERC20 {\r\n    function totalSupply() external view returns (uint256);\r\n    function balanceOf(address account) external view returns (uint256);\r\n    function transfer(address recipient, uint256 amount) external returns (bool);\r\n    function allowance(address owner, address spender) external view returns (uint256);\r\n    function approve(address spender, uint256 amount) external returns (bool);\r\n    function transferFrom(address sender, address recipient, uint256 amount) external returns (bool);\r\n    event Transfer(address indexed from, address indexed to, uint256 value);\r\n    event Approval(address indexed owner, address indexed spender, uint256 value);\r\n}\r\n\r\ncontract Context {\r\n    constructor () internal { }\r\n    // solhint-disable-previous-line no-empty-blocks\r\n\r\n    function _msgSender() internal view returns (address payable) {\r\n        return msg.sender;\r\n    }\r\n\r\n    function _msgData() internal view returns (bytes memory) {\r\n        this; // silence state mutability warning without generating bytecode - see https://github.com/ethereum/solidity/issues/2691\r\n        return msg.data;\r\n    }\r\n}\r\ncontract Ownable is Context {\r\n    address private _owner;\r\n\r\n    event OwnershipTransferred(address indexed previousOwner, address indexed newOwner);\r\n    constructor () internal {\r\n        _owner = _msgSender();\r\n        emit OwnershipTransferred(address(0), _owner);\r\n    }\r\n    function owner() public view returns (address) {\r\n        return _owner;\r\n    }\r\n    modifier onlyOwner() {\r\n        require(isOwner(), \"Ownable: caller is not the owner\");\r\n        _;\r\n    }\r\n    function isOwner() public view returns (bool) {\r\n        return _msgSender() == _owner;\r\n    }\r\n    function renounceOwnership() public onlyOwner {\r\n        emit OwnershipTransferred(_owner, address(0));\r\n        _owner = address(0);\r\n    }\r\n    function transferOwnership(address newOwner) public onlyOwner {\r\n        _transferOwnership(newOwner);\r\n    }\r\n    function _transferOwnership(address newOwner) internal {\r\n        require(newOwner != address(0), \"Ownable: new owner is the zero address\");\r\n        emit OwnershipTransferred(_owner, newOwner);\r\n        _owner = newOwner;\r\n    }\r\n}\r\n\r\nlibrary SafeMath {\r\n    function add(uint256 a, uint256 b) internal pure returns (uint256) {\r\n        uint256 c = a + b;\r\n        require(c >= a, \"SafeMath: addition overflow\");\r\n\r\n        return c;\r\n    }\r\n    function sub(uint256 a, uint256 b) internal pure returns (uint256) {\r\n        return sub(a, b, \"SafeMath: subtraction overflow\");\r\n    }\r\n    function sub(uint256 a, uint256 b, string memory errorMessage) internal pure returns (uint256) {\r\n        require(b <= a, errorMessage);\r\n        uint256 c = a - b;\r\n\r\n        return c;\r\n    }\r\n    function mul(uint256 a, uint256 b) internal pure returns (uint256) {\r\n        if (a == 0) {\r\n            return 0;\r\n        }\r\n\r\n        uint256 c = a * b;\r\n        require(c / a == b, \"SafeMath: multiplication overflow\");\r\n\r\n        return c;\r\n    }\r\n    function div(uint256 a, uint256 b) internal pure returns (uint256) {\r\n        return div(a, b, \"SafeMath: division by zero\");\r\n    }\r\n    function div(uint256 a, uint256 b, string memory errorMessage) internal pure returns (uint256) {\r\n        require(b > 0, errorMessage);\r\n        uint256 c = a / b;\r\n\r\n        return c;\r\n    }\r\n    function divCeil(\r\n        uint256 a,\r\n        uint256 b\r\n    )\r\n        internal\r\n        pure\r\n        returns (uint256)\r\n    {\r\n        uint256 quotient = div(a, b);\r\n        uint256 remainder = a - quotient * b;\r\n        if (remainder > 0) {\r\n            return quotient + 1;\r\n        } else {\r\n            return quotient;\r\n        }\r\n    }\r\n    function mod(uint256 a, uint256 b) internal pure returns (uint256) {\r\n        return mod(a, b, \"SafeMath: modulo by zero\");\r\n    }\r\n    function mod(uint256 a, uint256 b, string memory errorMessage) internal pure returns (uint256) {\r\n        require(b != 0, errorMessage);\r\n        return a % b;\r\n    }\r\n}\r\n\r\nlibrary Decimal {\r\n    using SafeMath for uint256;\r\n\r\n    uint256 constant BASE = 10**18;\r\n\r\n    function one()\r\n        internal\r\n        pure\r\n        returns (uint256)\r\n    {\r\n        return BASE;\r\n    }\r\n\r\n    function onePlus(\r\n        uint256 d\r\n    )\r\n        internal\r\n        pure\r\n        returns (uint256)\r\n    {\r\n        return d.add(BASE);\r\n    }\r\n\r\n    function mulFloor(\r\n        uint256 target,\r\n        uint256 d\r\n    )\r\n        internal\r\n        pure\r\n        returns (uint256)\r\n    {\r\n        return target.mul(d) / BASE;\r\n    }\r\n\r\n    function mulCeil(\r\n        uint256 target,\r\n        uint256 d\r\n    )\r\n        internal\r\n        pure\r\n        returns (uint256)\r\n    {\r\n        return target.mul(d).divCeil(BASE);\r\n    }\r\n\r\n    function divFloor(\r\n        uint256 target,\r\n        uint256 d\r\n    )\r\n        internal\r\n        pure\r\n        returns (uint256)\r\n    {\r\n        return target.mul(BASE).div(d);\r\n    }\r\n\r\n    function divCeil(\r\n        uint256 target,\r\n        uint256 d\r\n    )\r\n        internal\r\n        pure\r\n        returns (uint256)\r\n    {\r\n        return target.mul(BASE).divCeil(d);\r\n    }\r\n}\r\n\r\nlibrary Address {\r\n    function isContract(address account) internal view returns (bool) {\r\n        bytes32 codehash;\r\n        bytes32 accountHash = 0xc5d2460186f7233c927e7db2dcc703c0e500b653ca82273b7bfad8045d85a470;\r\n        // solhint-disable-next-line no-inline-assembly\r\n        assembly { codehash := extcodehash(account) }\r\n        return (codehash != 0x0 && codehash != accountHash);\r\n    }\r\n    function toPayable(address account) internal pure returns (address payable) {\r\n        return address(uint160(account));\r\n    }\r\n    function sendValue(address payable recipient, uint256 amount) internal {\r\n        require(address(this).balance >= amount, \"Address: insufficient balance\");\r\n\r\n        // solhint-disable-next-line avoid-call-value\r\n        (bool success, ) = recipient.call.value(amount)(\"\");\r\n        require(success, \"Address: unable to send value, recipient may have reverted\");\r\n    }\r\n}\r\n\r\n// Compound\r\ninterface Compound {\r\n  function interestRateModel() external view returns (address);\r\n  function reserveFactorMantissa() external view returns (uint256);\r\n  function totalBorrows() external view returns (uint256);\r\n  function totalReserves() external view returns (uint256);\r\n\r\n  function supplyRatePerBlock() external view returns (uint);\r\n  function getCash() external view returns (uint256);\r\n}\r\n\r\n// Fulcrum\r\ninterface Fulcrum {\r\n  function supplyInterestRate() external view returns (uint256);\r\n  function nextSupplyInterestRate(uint256 supplyAmount) external view returns (uint256);\r\n}\r\n\r\ninterface DyDx {\r\n  struct val {\r\n       uint256 value;\r\n   }\r\n\r\n   struct set {\r\n      uint128 borrow;\r\n      uint128 supply;\r\n  }\r\n\r\n  function getEarningsRate() external view returns (val memory);\r\n  function getMarketInterestRate(uint256 marketId) external view returns (val memory);\r\n  function getMarketTotalPar(uint256 marketId) external view returns (set memory);\r\n}\r\n\r\ninterface LendingPoolAddressesProvider {\r\n    function getLendingPoolCore() external view returns (address);\r\n}\r\n\r\ninterface LendingPoolCore  {\r\n  function getReserveCurrentLiquidityRate(address _reserve)\r\n  external\r\n  view\r\n  returns (\r\n      uint256 liquidityRate\r\n  );\r\n  function getReserveInterestRateStrategyAddress(address _reserve) external view returns (address);\r\n  function getReserveTotalBorrows(address _reserve) external view returns (uint256);\r\n  function getReserveTotalBorrowsStable(address _reserve) external view returns (uint256);\r\n  function getReserveTotalBorrowsVariable(address _reserve) external view returns (uint256);\r\n  function getReserveCurrentAverageStableBorrowRate(address _reserve)\r\n     external\r\n     view\r\n     returns (uint256);\r\n  function getReserveAvailableLiquidity(address _reserve) external view returns (uint256);\r\n}\r\n\r\ninterface IReserveInterestRateStrategy {\r\n\r\n    function getBaseVariableBorrowRate() external view returns (uint256);\r\n    function calculateInterestRates(\r\n        address _reserve,\r\n        uint256 _utilizationRate,\r\n        uint256 _totalBorrowsStable,\r\n        uint256 _totalBorrowsVariable,\r\n        uint256 _averageStableBorrowRate)\r\n    external\r\n    view\r\n    returns (uint256 liquidityRate, uint256 stableBorrowRate, uint256 variableBorrowRate);\r\n}\r\n\r\ninterface InterestRateModel {\r\n  function getSupplyRate(uint cash, uint borrows, uint reserves, uint reserveFactorMantissa) external view returns (uint);\r\n}\r\n\r\ncontract Structs {\r\n  struct Asset {\r\n    address lendingPool;\r\n    address priceOralce;\r\n    address interestModel;\r\n  }\r\n}\r\n\r\ncontract IDDEX is Structs {\r\n\r\n  function getInterestRates(address token, uint256 extraBorrowAmount)\r\n    external\r\n    view\r\n    returns (uint256 borrowInterestRate, uint256 supplyInterestRate);\r\n  function getIndex(address token)\r\n    external\r\n    view\r\n    returns (uint256 supplyIndex, uint256 borrowIndex);\r\n  function getTotalSupply(address asset)\r\n    external\r\n    view\r\n    returns (uint256 amount);\r\n  function getTotalBorrow(address asset)\r\n    external\r\n    view\r\n    returns (uint256 amount);\r\n  function getAsset(address token)\r\n    external\r\n    view returns (Asset memory asset);\r\n}\r\n\r\ninterface IDDEXModel {\r\n  function polynomialInterestModel(uint256 borrowRatio) external view returns (uint256);\r\n}\r\n\r\ninterface ILendF {\r\n  function getSupplyBalance(address account, address token)\r\n    external\r\n    view\r\n    returns (uint256);\r\n  function supplyBalances(address account, address token)\r\n    external\r\n    view\r\n    returns (uint256 principal, uint256 interestIndex);\r\n  function supply(address asset, uint256 amount) external;\r\n  function withdraw(address asset, uint256 amount) external;\r\n  function markets(address asset) external view returns (\r\n    bool isSupported,\r\n    uint256 blockNumber,\r\n    address interestRateModel,\r\n    uint256 totalSupply,\r\n    uint256 supplyRateMantissa,\r\n    uint256 supplyIndex,\r\n    uint256 totalBorrows,\r\n    uint256 borrowRateMantissa,\r\n    uint256 borrowIndex\r\n  );\r\n}\r\n\r\ninterface ILendFModel {\r\n\r\n    /**\r\n      * @notice Gets the current supply interest rate based on the given asset, total cash and total borrows\r\n      * @dev The return value should be scaled by 1e18, thus a return value of\r\n      *      `(true, 1000000000000)` implies an interest rate of 0.000001 or 0.0001% *per block*.\r\n      * @param asset The asset to get the interest rate of\r\n      * @param cash The total cash of the asset in the market\r\n      * @param borrows The total borrows of the asset in the market\r\n      * @return Success or failure and the supply interest rate per block scaled by 10e18\r\n      */\r\n    function getSupplyRate(address asset, uint cash, uint borrows) external view returns (uint, uint);\r\n}\r\n\r\n\r\n\r\ncontract APRWithPoolOracle is Ownable, Structs {\r\n  using SafeMath for uint256;\r\n  using Address for address;\r\n\r\n  uint256 DECIMAL = 10 ** 18;\r\n\r\n  // MAINNET ADDRESSES\r\n  address public DYDX;\r\n  address public AAVE;\r\n  address public DDEX;\r\n  address public LENDF;\r\n\r\n  constructor() public {\r\n    DYDX = address(0x1E0447b19BB6EcFdAe1e4AE1694b0C3659614e4e);\r\n    AAVE = address(0x24a42fD28C976A61Df5D00D0599C34c4f90748c8);\r\n    DDEX = address(0x241e82C79452F51fbfc89Fac6d912e021dB1a3B7);\r\n    LENDF = address(0x0eEe3E3828A45f7601D5F54bF49bB01d1A9dF5ea);\r\n  }\r\n\r\n  function set_new_AAVE(address _new_AAVE) public onlyOwner {\r\n      AAVE = _new_AAVE;\r\n  }\r\n  function set_new_DDEX(address _new_DDEX) public onlyOwner {\r\n      DDEX = _new_DDEX;\r\n  }\r\n  function set_new_DYDX(address _new_DYDX) public onlyOwner {\r\n      DYDX = _new_DYDX;\r\n  }\r\n  function set_new_LENDF(address _new_LENDF) public onlyOwner {\r\n      LENDF = _new_LENDF;\r\n  }\r\n\r\n  function getLENDFAPR(address token) public view returns (uint256) {\r\n    (,,,,uint256 supplyRateMantissa,,,,) = ILendF(LENDF).markets(token);\r\n    return supplyRateMantissa.mul(2102400);\r\n  }\r\n\r\n  function getLENDFAPRAdjusted(address token, uint256 supply) public view returns (uint256) {\r\n    (,, address interestRateModel, uint256 totalSupply,,, uint256 totalBorrows,,) = ILendF(LENDF).markets(token);\r\n    (, uint256 supplyRateMantissa) = ILendFModel(interestRateModel).getSupplyRate(token, totalSupply.add(supply), totalBorrows);\r\n    return supplyRateMantissa.mul(2102400);\r\n  }\r\n\r\n  function getDDEXAPR(address token) public view returns (uint256) {\r\n    (,uint256 supplyRate) = IDDEX(DDEX).getInterestRates(token, 0);\r\n    return supplyRate;\r\n  }\r\n\r\n  function getDDEXAPRAdjusted(address token, uint256 _supply) public view returns (uint256) {\r\n    uint256 supply = IDDEX(DDEX).getTotalSupply(token).add(_supply);\r\n    uint256 borrow = IDDEX(DDEX).getTotalBorrow(token);\r\n    uint256 borrowRatio = borrow.mul(Decimal.one()).div(supply);\r\n    address interestRateModel = IDDEX(DDEX).getAsset(token).interestModel;\r\n    uint256 borrowRate = IDDEXModel(interestRateModel).polynomialInterestModel(borrowRatio);\r\n    uint256 borrowInterest = Decimal.mulCeil(borrow, borrowRate);\r\n    uint256 supplyInterest = Decimal.mulFloor(borrowInterest, Decimal.one().sub(12185788407877));\r\n    return Decimal.divFloor(supplyInterest, supply);\r\n  }\r\n\r\n  function getCompoundAPR(address token) public view returns (uint256) {\r\n      return Compound(token).supplyRatePerBlock().mul(2102400);\r\n  }\r\n\r\n  function getCompoundAPRAdjusted(address token, uint256 _supply) public view returns (uint256) {\r\n    //interestRateModel.getSupplyRate(getCashPrior(), totalBorrows, totalReserves, reserveFactorMantissa);\r\n    Compound c = Compound(token);\r\n    InterestRateModel i = InterestRateModel(Compound(token).interestRateModel());\r\n    uint256 cashPrior = c.getCash().add(_supply);\r\n    return i.getSupplyRate(cashPrior, c.totalBorrows(), c.totalReserves().add(_supply), c.reserveFactorMantissa()).mul(2102400);\r\n  }\r\n\r\n  function getFulcrumAPR(address token) public view returns(uint256) {\r\n    return Fulcrum(token).supplyInterestRate().div(100);\r\n  }\r\n  function getFulcrumAPRAdjusted(address token, uint256 _supply) public view returns(uint256) {\r\n    return Fulcrum(token).nextSupplyInterestRate(_supply).div(100);\r\n  }\r\n\r\n  function getDyDxAPR(uint256 marketId) public view returns(uint256) {\r\n    uint256 rate      = DyDx(DYDX).getMarketInterestRate(marketId).value;\r\n    uint256 aprBorrow = rate * 31622400;\r\n    uint256 borrow    = DyDx(DYDX).getMarketTotalPar(marketId).borrow;\r\n    uint256 supply    = DyDx(DYDX).getMarketTotalPar(marketId).supply;\r\n    uint256 usage     = (borrow * DECIMAL) / supply;\r\n    uint256 apr       = (((aprBorrow * usage) / DECIMAL) * DyDx(DYDX).getEarningsRate().value) / DECIMAL;\r\n    return apr;\r\n  }\r\n\r\n  function getDyDxAPRAdjusted(uint256 marketId, uint256 _supply) public view returns(uint256) {\r\n    uint256 rate      = DyDx(DYDX).getMarketInterestRate(marketId).value;\r\n    uint256 aprBorrow = rate * 31622400;\r\n    uint256 borrow    = DyDx(DYDX).getMarketTotalPar(marketId).borrow;\r\n    uint256 supply    = DyDx(DYDX).getMarketTotalPar(marketId).supply;\r\n    supply = supply.add(_supply);\r\n    uint256 usage     = (borrow * DECIMAL) / supply;\r\n    uint256 apr       = (((aprBorrow * usage) / DECIMAL) * DyDx(DYDX).getEarningsRate().value) / DECIMAL;\r\n    return apr;\r\n  }\r\n\r\n  function getAaveCore() public view returns (address) {\r\n    return address(LendingPoolAddressesProvider(AAVE).getLendingPoolCore());\r\n  }\r\n\r\n  function getAaveAPR(address token) public view returns (uint256) {\r\n    LendingPoolCore core = LendingPoolCore(LendingPoolAddressesProvider(AAVE).getLendingPoolCore());\r\n    return core.getReserveCurrentLiquidityRate(token).div(1e9);\r\n  }\r\n\r\n  function getAaveAPRAdjusted(address token, uint256 _supply) public view returns (uint256) {\r\n    LendingPoolCore core = LendingPoolCore(LendingPoolAddressesProvider(AAVE).getLendingPoolCore());\r\n    IReserveInterestRateStrategy apr = IReserveInterestRateStrategy(core.getReserveInterestRateStrategyAddress(token));\r\n    (uint256 newLiquidityRate,,) = apr.calculateInterestRates(\r\n      token,\r\n      core.getReserveAvailableLiquidity(token).add(_supply),\r\n      core.getReserveTotalBorrowsStable(token),\r\n      core.getReserveTotalBorrowsVariable(token),\r\n      core.getReserveCurrentAverageStableBorrowRate(token)\r\n    );\r\n\r\n    return newLiquidityRate.div(1e9);\r\n  }\r\n\r\n  // incase of half-way error\r\n  function inCaseTokenGetsStuck(IERC20 _TokenAddress) onlyOwner public {\r\n      uint qty = _TokenAddress.balanceOf(address(this));\r\n      _TokenAddress.transfer(msg.sender, qty);\r\n  }\r\n  // incase of half-way error\r\n  function inCaseETHGetsStuck() onlyOwner public{\r\n      (bool result, ) = msg.sender.call.value(address(this).balance)(\"\");\r\n      require(result, \"transfer of ETH failed\");\r\n  }\r\n}\r\n",
  "sourcePath": "D:/ftm/apr-oracle/contracts/APRWithPoolOracle.sol",
  "compiler": {
    "name": "solc",
    "version": "0.5.12+commit.7709ece9.Emscripten.clang"
  },
  "schemaVersion": "3.0.19",
  "updatedAt": "2020-02-03T06:50:32.669Z",
  "devdoc": {
    "methods": {}
  },
  "userdoc": {
    "methods": {}
  }
}