{
  "contractName": "APRWithPoolOracle",
  "abi": [
    {
      "inputs": [],
      "payable": false,
      "stateMutability": "nonpayable",
      "type": "constructor"
    },
    {
      "anonymous": false,
      "inputs": [
        {
          "indexed": true,
          "internalType": "address",
          "name": "previousOwner",
          "type": "address"
        },
        {
          "indexed": true,
          "internalType": "address",
          "name": "newOwner",
          "type": "address"
        }
      ],
      "name": "OwnershipTransferred",
      "type": "event"
    },
    {
      "constant": true,
      "inputs": [],
      "name": "AAVE",
      "outputs": [
        {
          "internalType": "address",
          "name": "",
          "type": "address"
        }
      ],
      "payable": false,
      "stateMutability": "view",
      "type": "function"
    },
    {
      "constant": true,
      "inputs": [],
      "name": "DDEX",
      "outputs": [
        {
          "internalType": "address",
          "name": "",
          "type": "address"
        }
      ],
      "payable": false,
      "stateMutability": "view",
      "type": "function"
    },
    {
      "constant": true,
      "inputs": [],
      "name": "DYDX",
      "outputs": [
        {
          "internalType": "address",
          "name": "",
          "type": "address"
        }
      ],
      "payable": false,
      "stateMutability": "view",
      "type": "function"
    },
    {
      "constant": true,
      "inputs": [],
      "name": "LENDF",
      "outputs": [
        {
          "internalType": "address",
          "name": "",
          "type": "address"
        }
      ],
      "payable": false,
      "stateMutability": "view",
      "type": "function"
    },
    {
      "constant": true,
      "inputs": [],
      "name": "isOwner",
      "outputs": [
        {
          "internalType": "bool",
          "name": "",
          "type": "bool"
        }
      ],
      "payable": false,
      "stateMutability": "view",
      "type": "function"
    },
    {
      "constant": true,
      "inputs": [],
      "name": "liquidationRatio",
      "outputs": [
        {
          "internalType": "uint256",
          "name": "",
          "type": "uint256"
        }
      ],
      "payable": false,
      "stateMutability": "view",
      "type": "function"
    },
    {
      "constant": true,
      "inputs": [],
      "name": "owner",
      "outputs": [
        {
          "internalType": "address",
          "name": "",
          "type": "address"
        }
      ],
      "payable": false,
      "stateMutability": "view",
      "type": "function"
    },
    {
      "constant": false,
      "inputs": [],
      "name": "renounceOwnership",
      "outputs": [],
      "payable": false,
      "stateMutability": "nonpayable",
      "type": "function"
    },
    {
      "constant": false,
      "inputs": [
        {
          "internalType": "address",
          "name": "newOwner",
          "type": "address"
        }
      ],
      "name": "transferOwnership",
      "outputs": [],
      "payable": false,
      "stateMutability": "nonpayable",
      "type": "function"
    },
    {
      "constant": false,
      "inputs": [
        {
          "internalType": "address",
          "name": "_new_AAVE",
          "type": "address"
        }
      ],
      "name": "set_new_AAVE",
      "outputs": [],
      "payable": false,
      "stateMutability": "nonpayable",
      "type": "function"
    },
    {
      "constant": false,
      "inputs": [
        {
          "internalType": "address",
          "name": "_new_DDEX",
          "type": "address"
        }
      ],
      "name": "set_new_DDEX",
      "outputs": [],
      "payable": false,
      "stateMutability": "nonpayable",
      "type": "function"
    },
    {
      "constant": false,
      "inputs": [
        {
          "internalType": "address",
          "name": "_new_DYDX",
          "type": "address"
        }
      ],
      "name": "set_new_DYDX",
      "outputs": [],
      "payable": false,
      "stateMutability": "nonpayable",
      "type": "function"
    },
    {
      "constant": false,
      "inputs": [
        {
          "internalType": "address",
          "name": "_new_LENDF",
          "type": "address"
        }
      ],
      "name": "set_new_LENDF",
      "outputs": [],
      "payable": false,
      "stateMutability": "nonpayable",
      "type": "function"
    },
    {
      "constant": false,
      "inputs": [
        {
          "internalType": "uint256",
          "name": "_new_Ratio",
          "type": "uint256"
        }
      ],
      "name": "set_new_Ratio",
      "outputs": [],
      "payable": false,
      "stateMutability": "nonpayable",
      "type": "function"
    },
    {
      "constant": true,
      "inputs": [
        {
          "internalType": "address",
          "name": "token",
          "type": "address"
        }
      ],
      "name": "getLENDFAPR",
      "outputs": [
        {
          "internalType": "uint256",
          "name": "",
          "type": "uint256"
        }
      ],
      "payable": false,
      "stateMutability": "view",
      "type": "function"
    },
    {
      "constant": true,
      "inputs": [
        {
          "internalType": "address",
          "name": "token",
          "type": "address"
        },
        {
          "internalType": "uint256",
          "name": "supply",
          "type": "uint256"
        }
      ],
      "name": "getLENDFAPRAdjusted",
      "outputs": [
        {
          "internalType": "uint256",
          "name": "",
          "type": "uint256"
        }
      ],
      "payable": false,
      "stateMutability": "view",
      "type": "function"
    },
    {
      "constant": true,
      "inputs": [
        {
          "internalType": "address",
          "name": "token",
          "type": "address"
        }
      ],
      "name": "getDDEXAPR",
      "outputs": [
        {
          "internalType": "uint256",
          "name": "",
          "type": "uint256"
        }
      ],
      "payable": false,
      "stateMutability": "view",
      "type": "function"
    },
    {
      "constant": true,
      "inputs": [
        {
          "internalType": "address",
          "name": "token",
          "type": "address"
        },
        {
          "internalType": "uint256",
          "name": "_supply",
          "type": "uint256"
        }
      ],
      "name": "getDDEXAPRAdjusted",
      "outputs": [
        {
          "internalType": "uint256",
          "name": "",
          "type": "uint256"
        }
      ],
      "payable": false,
      "stateMutability": "view",
      "type": "function"
    },
    {
      "constant": true,
      "inputs": [
        {
          "internalType": "address",
          "name": "token",
          "type": "address"
        }
      ],
      "name": "getCompoundAPR",
      "outputs": [
        {
          "internalType": "uint256",
          "name": "",
          "type": "uint256"
        }
      ],
      "payable": false,
      "stateMutability": "view",
      "type": "function"
    },
    {
      "constant": true,
      "inputs": [
        {
          "internalType": "address",
          "name": "token",
          "type": "address"
        },
        {
          "internalType": "uint256",
          "name": "_supply",
          "type": "uint256"
        }
      ],
      "name": "getCompoundAPRAdjusted",
      "outputs": [
        {
          "internalType": "uint256",
          "name": "",
          "type": "uint256"
        }
      ],
      "payable": false,
      "stateMutability": "view",
      "type": "function"
    },
    {
      "constant": true,
      "inputs": [
        {
          "internalType": "address",
          "name": "token",
          "type": "address"
        }
      ],
      "name": "getFulcrumAPR",
      "outputs": [
        {
          "internalType": "uint256",
          "name": "",
          "type": "uint256"
        }
      ],
      "payable": false,
      "stateMutability": "view",
      "type": "function"
    },
    {
      "constant": true,
      "inputs": [
        {
          "internalType": "address",
          "name": "token",
          "type": "address"
        },
        {
          "internalType": "uint256",
          "name": "_supply",
          "type": "uint256"
        }
      ],
      "name": "getFulcrumAPRAdjusted",
      "outputs": [
        {
          "internalType": "uint256",
          "name": "",
          "type": "uint256"
        }
      ],
      "payable": false,
      "stateMutability": "view",
      "type": "function"
    },
    {
      "constant": true,
      "inputs": [
        {
          "internalType": "uint256",
          "name": "marketId",
          "type": "uint256"
        }
      ],
      "name": "getDyDxAPR",
      "outputs": [
        {
          "internalType": "uint256",
          "name": "",
          "type": "uint256"
        }
      ],
      "payable": false,
      "stateMutability": "view",
      "type": "function"
    },
    {
      "constant": true,
      "inputs": [
        {
          "internalType": "uint256",
          "name": "marketId",
          "type": "uint256"
        },
        {
          "internalType": "uint256",
          "name": "_supply",
          "type": "uint256"
        }
      ],
      "name": "getDyDxAPRAdjusted",
      "outputs": [
        {
          "internalType": "uint256",
          "name": "",
          "type": "uint256"
        }
      ],
      "payable": false,
      "stateMutability": "view",
      "type": "function"
    },
    {
      "constant": true,
      "inputs": [],
      "name": "getAaveCore",
      "outputs": [
        {
          "internalType": "address",
          "name": "",
          "type": "address"
        }
      ],
      "payable": false,
      "stateMutability": "view",
      "type": "function"
    },
    {
      "constant": true,
      "inputs": [
        {
          "internalType": "address",
          "name": "token",
          "type": "address"
        }
      ],
      "name": "getAaveAPR",
      "outputs": [
        {
          "internalType": "uint256",
          "name": "",
          "type": "uint256"
        }
      ],
      "payable": false,
      "stateMutability": "view",
      "type": "function"
    },
    {
      "constant": true,
      "inputs": [
        {
          "internalType": "address",
          "name": "token",
          "type": "address"
        },
        {
          "internalType": "uint256",
          "name": "_supply",
          "type": "uint256"
        }
      ],
      "name": "getAaveAPRAdjusted",
      "outputs": [
        {
          "internalType": "uint256",
          "name": "",
          "type": "uint256"
        }
      ],
      "payable": false,
      "stateMutability": "view",
      "type": "function"
    },
    {
      "constant": false,
      "inputs": [
        {
          "internalType": "contract IERC20",
          "name": "_TokenAddress",
          "type": "address"
        }
      ],
      "name": "inCaseTokenGetsStuck",
      "outputs": [],
      "payable": false,
      "stateMutability": "nonpayable",
      "type": "function"
    },
    {
      "constant": false,
      "inputs": [],
      "name": "inCaseETHGetsStuck",
      "outputs": [],
      "payable": false,
      "stateMutability": "nonpayable",
      "type": "function"
    }
  ],
  "bytecode": "0x6080604052670de0b6b3a76400006001553480156200001d57600080fd5b506200002e6200025160201b60201c565b6000806101000a81548173ffffffffffffffffffffffffffffffffffffffff021916908373ffffffffffffffffffffffffffffffffffffffff1602179055506000809054906101000a900473ffffffffffffffffffffffffffffffffffffffff1673ffffffffffffffffffffffffffffffffffffffff16600073ffffffffffffffffffffffffffffffffffffffff167f8be0079c531659141344cd1fd0a4f28419497f9722a3daafe3b4186f6b6457e060405160405180910390a3731e0447b19bb6ecfdae1e4ae1694b0c3659614e4e600260006101000a81548173ffffffffffffffffffffffffffffffffffffffff021916908373ffffffffffffffffffffffffffffffffffffffff1602179055507324a42fd28c976a61df5d00d0599c34c4f90748c8600360006101000a81548173ffffffffffffffffffffffffffffffffffffffff021916908373ffffffffffffffffffffffffffffffffffffffff16021790555073241e82c79452f51fbfc89fac6d912e021db1a3b7600460006101000a81548173ffffffffffffffffffffffffffffffffffffffff021916908373ffffffffffffffffffffffffffffffffffffffff160217905550730eee3e3828a45f7601d5f54bf49bb01d1a9df5ea600560006101000a81548173ffffffffffffffffffffffffffffffffffffffff021916908373ffffffffffffffffffffffffffffffffffffffff16021790555066b1a2bc2ec5000060068190555062000259565b600033905090565b6137fe80620002696000396000f3fe608060405234801561001057600080fd5b50600436106101cf5760003560e01c8063812adb0611610104578063ae600c45116100a2578063f60a15ed11610071578063f60a15ed14610554578063f82ce27d1461055e578063fb73c8321461057c578063fcc01c7b146105ac576101cf565b8063ae600c45146104ce578063c043fca2146104ea578063ddf1084214610508578063f2fde38b14610538576101cf565b80638da5cb5b116100de5780638da5cb5b146104445780638f32d59b1461046257806390ece0de14610480578063989eaa9c1461049e576101cf565b8063812adb06146103c857806381d24d8d146103e457806383deca3d14610414576101cf565b806348ccda3c116101715780636d5ccd181161014b5780636d5ccd1814610354578063715018a61461037257806373824dae1461037c57806376852893146103ac576101cf565b806348ccda3c146102d65780634eff75d8146102f45780634f5dd96914610324576101cf565b80632a71abe3116101ad5780632a71abe3146102525780632c7a5ae41461026e5780632e8d6e181461028a57806344e258b4146102a6576101cf565b80630e775fd5146101d45780631775765f14610204578063192a986114610222575b600080fd5b6101ee60048036036101e99190810190612e97565b6105dc565b6040516101fb9190613592565b60405180910390f35b61020c61089f565b6040516102199190613592565b60405180910390f35b61023c60048036036102379190810190612e45565b6108a5565b6040516102499190613592565b60405180910390f35b61026c60048036036102679190810190613066565b6109f1565b005b61028860048036036102839190810190612e45565b610a42565b005b6102a4600480360361029f9190810190612fc2565b610acd565b005b6102c060048036036102bb9190810190612e45565b610c33565b6040516102cd9190613592565b60405180910390f35b6102de610ccf565b6040516102eb91906133be565b60405180910390f35b61030e60048036036103099190810190612e97565b610cf5565b60405161031b9190613592565b60405180910390f35b61033e60048036036103399190810190612e45565b610d9b565b60405161034b9190613592565b60405180910390f35b61035c610e72565b60405161036991906133be565b60405180910390f35b61037a610e98565b005b61039660048036036103919190810190612e97565b610f9e565b6040516103a39190613592565b60405180910390f35b6103c660048036036103c19190810190612e45565b6113e1565b005b6103e260048036036103dd9190810190612e45565b61146c565b005b6103fe60048036036103f99190810190613066565b6114f7565b60405161040b9190613592565b60405180910390f35b61042e60048036036104299190810190612e45565b611820565b60405161043b9190613592565b60405180910390f35b61044c6118ba565b60405161045991906133be565b60405180910390f35b61046a6118e3565b60405161047791906134b5565b60405180910390f35b610488611941565b60405161049591906133be565b60405180910390f35b6104b860048036036104b39190810190612e97565b611967565b6040516104c59190613592565b60405180910390f35b6104e860048036036104e39190810190612e45565b611d84565b005b6104f2611e0f565b6040516104ff91906133be565b60405180910390f35b610522600480360361051d9190810190612e45565b611e35565b60405161052f9190613592565b60405180910390f35b610552600480360361054d9190810190612e45565b612003565b005b61055c612056565b005b610566612163565b60405161057391906133be565b60405180910390f35b61059660048036036105919190810190612e97565b61220a565b6040516105a39190613592565b60405180910390f35b6105c660048036036105c191908101906130b8565b61255e565b6040516105d39190613592565b60405180910390f35b600073eeeeeeeeeeeeeeeeeeeeeeeeeeeeeeeeeeeeeeee73ffffffffffffffffffffffffffffffffffffffff168373ffffffffffffffffffffffffffffffffffffffff16141561062f5760009050610899565b60006106ee838573ffffffffffffffffffffffffffffffffffffffff166370a08231600560009054906101000a900473ffffffffffffffffffffffffffffffffffffffff166040518263ffffffff1660e01b815260040161069091906133be565b60206040518083038186803b1580156106a857600080fd5b505afa1580156106bc573d6000803e3d6000fd5b505050506040513d601f19601f820116820180604052506106e0919081019061308f565b61289d90919063ffffffff16565b9050600080600560009054906101000a900473ffffffffffffffffffffffffffffffffffffffff1673ffffffffffffffffffffffffffffffffffffffff16638e8f294b876040518263ffffffff1660e01b815260040161074e91906133be565b6101206040518083038186803b15801561076757600080fd5b505afa15801561077b573d6000803e3d6000fd5b505050506040513d601f19601f8201168201806040525061079f9190810190612efc565b5050965050505093505050600073ffffffffffffffffffffffffffffffffffffffff168273ffffffffffffffffffffffffffffffffffffffff1614156107eb5760009350505050610899565b60008273ffffffffffffffffffffffffffffffffffffffff1663517cf73e8886856040518463ffffffff1660e01b815260040161082a9392919061342b565b604080518083038186803b15801561084157600080fd5b505afa158015610855573d6000803e3d6000fd5b505050506040513d601f19601f8201168201806040525061087991908101906130f4565b91505061089262201480826128f290919063ffffffff16565b9450505050505b92915050565b60065481565b600080600360009054906101000a900473ffffffffffffffffffffffffffffffffffffffff1673ffffffffffffffffffffffffffffffffffffffff1663ed6ff7606040518163ffffffff1660e01b815260040160206040518083038186803b15801561091057600080fd5b505afa158015610924573d6000803e3d6000fd5b505050506040513d601f19601f820116820180604052506109489190810190612e6e565b90506109e9633b9aca008273ffffffffffffffffffffffffffffffffffffffff1663c540148e866040518263ffffffff1660e01b815260040161098b91906133be565b60206040518083038186803b1580156109a357600080fd5b505afa1580156109b7573d6000803e3d6000fd5b505050506040513d601f19601f820116820180604052506109db919081019061308f565b61296290919063ffffffff16565b915050919050565b6109f96118e3565b610a38576040517f08c379a0000000000000000000000000000000000000000000000000000000008152600401610a2f90613572565b60405180910390fd5b8060068190555050565b610a4a6118e3565b610a89576040517f08c379a0000000000000000000000000000000000000000000000000000000008152600401610a8090613572565b60405180910390fd5b80600260006101000a81548173ffffffffffffffffffffffffffffffffffffffff021916908373ffffffffffffffffffffffffffffffffffffffff16021790555050565b610ad56118e3565b610b14576040517f08c379a0000000000000000000000000000000000000000000000000000000008152600401610b0b90613572565b60405180910390fd5b60008173ffffffffffffffffffffffffffffffffffffffff166370a08231306040518263ffffffff1660e01b8152600401610b4f91906133be565b60206040518083038186803b158015610b6757600080fd5b505afa158015610b7b573d6000803e3d6000fd5b505050506040513d601f19601f82011682018060405250610b9f919081019061308f565b90508173ffffffffffffffffffffffffffffffffffffffff1663a9059cbb33836040518363ffffffff1660e01b8152600401610bdc9291906133d9565b602060405180830381600087803b158015610bf657600080fd5b505af1158015610c0a573d6000803e3d6000fd5b505050506040513d601f19601f82011682018060405250610c2e9190810190612ed3565b505050565b6000610cc8622014808373ffffffffffffffffffffffffffffffffffffffff1663ae9d70b06040518163ffffffff1660e01b815260040160206040518083038186803b158015610c8257600080fd5b505afa158015610c96573d6000803e3d6000fd5b505050506040513d601f19601f82011682018060405250610cba919081019061308f565b6128f290919063ffffffff16565b9050919050565b600360009054906101000a900473ffffffffffffffffffffffffffffffffffffffff1681565b6000610d9360648473ffffffffffffffffffffffffffffffffffffffff1663d65a5021856040518263ffffffff1660e01b8152600401610d359190613592565b60206040518083038186803b158015610d4d57600080fd5b505afa158015610d61573d6000803e3d6000fd5b505050506040513d601f19601f82011682018060405250610d85919081019061308f565b61296290919063ffffffff16565b905092915050565b600080600560009054906101000a900473ffffffffffffffffffffffffffffffffffffffff1673ffffffffffffffffffffffffffffffffffffffff16638e8f294b846040518263ffffffff1660e01b8152600401610df991906133be565b6101206040518083038186803b158015610e1257600080fd5b505afa158015610e26573d6000803e3d6000fd5b505050506040513d601f19601f82011682018060405250610e4a9190810190612efc565b50505050945050505050610e6a62201480826128f290919063ffffffff16565b915050919050565b600560009054906101000a900473ffffffffffffffffffffffffffffffffffffffff1681565b610ea06118e3565b610edf576040517f08c379a0000000000000000000000000000000000000000000000000000000008152600401610ed690613572565b60405180910390fd5b600073ffffffffffffffffffffffffffffffffffffffff166000809054906101000a900473ffffffffffffffffffffffffffffffffffffffff1673ffffffffffffffffffffffffffffffffffffffff167f8be0079c531659141344cd1fd0a4f28419497f9722a3daafe3b4186f6b6457e060405160405180910390a360008060006101000a81548173ffffffffffffffffffffffffffffffffffffffff021916908373ffffffffffffffffffffffffffffffffffffffff160217905550565b600073eeeeeeeeeeeeeeeeeeeeeeeeeeeeeeeeeeeeeeee73ffffffffffffffffffffffffffffffffffffffff168373ffffffffffffffffffffffffffffffffffffffff161415610fed57600e92505b6000600460009054906101000a900473ffffffffffffffffffffffffffffffffffffffff1673ffffffffffffffffffffffffffffffffffffffff1663b31610db856040518263ffffffff1660e01b815260040161104a91906133be565b604080518083038186803b15801561106157600080fd5b505afa158015611075573d6000803e3d6000fd5b505050506040513d601f19601f8201168201806040525061109991908101906130f4565b50905060008114156110af5760009150506113db565b600061116e84600460009054906101000a900473ffffffffffffffffffffffffffffffffffffffff1673ffffffffffffffffffffffffffffffffffffffff166368da10ae886040518263ffffffff1660e01b815260040161111091906133be565b60206040518083038186803b15801561112857600080fd5b505afa15801561113c573d6000803e3d6000fd5b505050506040513d601f19601f82011682018060405250611160919081019061308f565b61289d90919063ffffffff16565b90506000600460009054906101000a900473ffffffffffffffffffffffffffffffffffffffff1673ffffffffffffffffffffffffffffffffffffffff16638538d14e876040518263ffffffff1660e01b81526004016111cd91906133be565b60206040518083038186803b1580156111e557600080fd5b505afa1580156111f9573d6000803e3d6000fd5b505050506040513d601f19601f8201168201806040525061121d919081019061308f565b9050600061124d8361123f6112306129ac565b856128f290919063ffffffff16565b61296290919063ffffffff16565b90506000600460009054906101000a900473ffffffffffffffffffffffffffffffffffffffff1673ffffffffffffffffffffffffffffffffffffffff166330b8b2c6896040518263ffffffff1660e01b81526004016112ac91906133be565b60606040518083038186803b1580156112c457600080fd5b505afa1580156112d8573d6000803e3d6000fd5b505050506040513d601f19601f820116820180604052506112fc9190810190612feb565b60400151905060008173ffffffffffffffffffffffffffffffffffffffff166369e8a15f846040518263ffffffff1660e01b815260040161133d9190613592565b60206040518083038186803b15801561135557600080fd5b505afa158015611369573d6000803e3d6000fd5b505050506040513d601f19601f8201168201806040525061138d919081019061308f565b9050600061139b85836129bc565b905060006113c4826113bf6006546113b16129ac565b6129f390919063ffffffff16565b612a3d565b90506113d08188612a6b565b985050505050505050505b92915050565b6113e96118e3565b611428576040517f08c379a000000000000000000000000000000000000000000000000000000000815260040161141f90613572565b60405180910390fd5b80600460006101000a81548173ffffffffffffffffffffffffffffffffffffffff021916908373ffffffffffffffffffffffffffffffffffffffff16021790555050565b6114746118e3565b6114b3576040517f08c379a00000000000000000000000000000000000000000000000000000000081526004016114aa90613572565b60405180910390fd5b80600360006101000a81548173ffffffffffffffffffffffffffffffffffffffff021916908373ffffffffffffffffffffffffffffffffffffffff16021790555050565b600080600260009054906101000a900473ffffffffffffffffffffffffffffffffffffffff1673ffffffffffffffffffffffffffffffffffffffff1663fd47eda6846040518263ffffffff1660e01b81526004016115559190613592565b60206040518083038186803b15801561156d57600080fd5b505afa158015611581573d6000803e3d6000fd5b505050506040513d601f19601f820116820180604052506115a5919081019061303d565b60000151905060006301e28500820290506000600260009054906101000a900473ffffffffffffffffffffffffffffffffffffffff1673ffffffffffffffffffffffffffffffffffffffff1663cb04a34c866040518263ffffffff1660e01b81526004016116139190613592565b604080518083038186803b15801561162a57600080fd5b505afa15801561163e573d6000803e3d6000fd5b505050506040513d601f19601f820116820180604052506116629190810190613014565b600001516fffffffffffffffffffffffffffffffff1690506000600260009054906101000a900473ffffffffffffffffffffffffffffffffffffffff1673ffffffffffffffffffffffffffffffffffffffff1663cb04a34c876040518263ffffffff1660e01b81526004016116d79190613592565b604080518083038186803b1580156116ee57600080fd5b505afa158015611702573d6000803e3d6000fd5b505050506040513d601f19601f820116820180604052506117269190810190613014565b602001516fffffffffffffffffffffffffffffffff16905060008160015484028161174d57fe5b0490506000600154600260009054906101000a900473ffffffffffffffffffffffffffffffffffffffff1673ffffffffffffffffffffffffffffffffffffffff1663e55202286040518163ffffffff1660e01b815260040160206040518083038186803b1580156117bd57600080fd5b505afa1580156117d1573d6000803e3d6000fd5b505050506040513d601f19601f820116820180604052506117f5919081019061303d565b600001516001548488028161180657fe5b04028161180f57fe5b049050809650505050505050919050565b60006118b360648373ffffffffffffffffffffffffffffffffffffffff166309ec6b6b6040518163ffffffff1660e01b815260040160206040518083038186803b15801561186d57600080fd5b505afa158015611881573d6000803e3d6000fd5b505050506040513d601f19601f820116820180604052506118a5919081019061308f565b61296290919063ffffffff16565b9050919050565b60008060009054906101000a900473ffffffffffffffffffffffffffffffffffffffff16905090565b60008060009054906101000a900473ffffffffffffffffffffffffffffffffffffffff1673ffffffffffffffffffffffffffffffffffffffff16611925612aa2565b73ffffffffffffffffffffffffffffffffffffffff1614905090565b600460009054906101000a900473ffffffffffffffffffffffffffffffffffffffff1681565b600080600360009054906101000a900473ffffffffffffffffffffffffffffffffffffffff1673ffffffffffffffffffffffffffffffffffffffff1663ed6ff7606040518163ffffffff1660e01b815260040160206040518083038186803b1580156119d257600080fd5b505afa1580156119e6573d6000803e3d6000fd5b505050506040513d601f19601f82011682018060405250611a0a9190810190612e6e565b905060008173ffffffffffffffffffffffffffffffffffffffff16636ae14416866040518263ffffffff1660e01b8152600401611a4791906133be565b60206040518083038186803b158015611a5f57600080fd5b505afa158015611a73573d6000803e3d6000fd5b505050506040513d601f19601f82011682018060405250611a979190810190612e6e565b905060008173ffffffffffffffffffffffffffffffffffffffff166357e37af087611b53888773ffffffffffffffffffffffffffffffffffffffff1663e24030198c6040518263ffffffff1660e01b8152600401611af591906133be565b60206040518083038186803b158015611b0d57600080fd5b505afa158015611b21573d6000803e3d6000fd5b505050506040513d601f19601f82011682018060405250611b45919081019061308f565b61289d90919063ffffffff16565b8673ffffffffffffffffffffffffffffffffffffffff16637f90fec58b6040518263ffffffff1660e01b8152600401611b8c91906133be565b60206040518083038186803b158015611ba457600080fd5b505afa158015611bb8573d6000803e3d6000fd5b505050506040513d601f19601f82011682018060405250611bdc919081019061308f565b8773ffffffffffffffffffffffffffffffffffffffff166398bd47378c6040518263ffffffff1660e01b8152600401611c1591906133be565b60206040518083038186803b158015611c2d57600080fd5b505afa158015611c41573d6000803e3d6000fd5b505050506040513d601f19601f82011682018060405250611c65919081019061308f565b8873ffffffffffffffffffffffffffffffffffffffff166346bc0f288d6040518263ffffffff1660e01b8152600401611c9e91906133be565b60206040518083038186803b158015611cb657600080fd5b505afa158015611cca573d6000803e3d6000fd5b505050506040513d601f19601f82011682018060405250611cee919081019061308f565b6040518663ffffffff1660e01b8152600401611d0e959493929190613462565b60606040518083038186803b158015611d2657600080fd5b505afa158015611d3a573d6000803e3d6000fd5b505050506040513d601f19601f82011682018060405250611d5e9190810190613130565b50509050611d79633b9aca008261296290919063ffffffff16565b935050505092915050565b611d8c6118e3565b611dcb576040517f08c379a0000000000000000000000000000000000000000000000000000000008152600401611dc290613572565b60405180910390fd5b80600560006101000a81548173ffffffffffffffffffffffffffffffffffffffff021916908373ffffffffffffffffffffffffffffffffffffffff16021790555050565b600260009054906101000a900473ffffffffffffffffffffffffffffffffffffffff1681565b600073eeeeeeeeeeeeeeeeeeeeeeeeeeeeeeeeeeeeeeee73ffffffffffffffffffffffffffffffffffffffff168273ffffffffffffffffffffffffffffffffffffffff161415611e8457600e91505b6000600460009054906101000a900473ffffffffffffffffffffffffffffffffffffffff1673ffffffffffffffffffffffffffffffffffffffff1663b31610db846040518263ffffffff1660e01b8152600401611ee191906133be565b604080518083038186803b158015611ef857600080fd5b505afa158015611f0c573d6000803e3d6000fd5b505050506040513d601f19601f82011682018060405250611f3091908101906130f4565b5090506000811415611f46576000915050611ffe565b6000600460009054906101000a900473ffffffffffffffffffffffffffffffffffffffff1673ffffffffffffffffffffffffffffffffffffffff166343239e9b8560006040518363ffffffff1660e01b8152600401611fa6929190613402565b604080518083038186803b158015611fbd57600080fd5b505afa158015611fd1573d6000803e3d6000fd5b505050506040513d601f19601f82011682018060405250611ff591908101906130f4565b91505080925050505b919050565b61200b6118e3565b61204a576040517f08c379a000000000000000000000000000000000000000000000000000000000815260040161204190613572565b60405180910390fd5b61205381612aaa565b50565b61205e6118e3565b61209d576040517f08c379a000000000000000000000000000000000000000000000000000000000815260040161209490613572565b60405180910390fd5b60003373ffffffffffffffffffffffffffffffffffffffff163073ffffffffffffffffffffffffffffffffffffffff16316040516120da906133a9565b60006040518083038185875af1925050503d8060008114612117576040519150601f19603f3d011682016040523d82523d6000602084013e61211c565b606091505b5050905080612160576040517f08c379a000000000000000000000000000000000000000000000000000000000815260040161215790613532565b60405180910390fd5b50565b6000600360009054906101000a900473ffffffffffffffffffffffffffffffffffffffff1673ffffffffffffffffffffffffffffffffffffffff1663ed6ff7606040518163ffffffff1660e01b815260040160206040518083038186803b1580156121cd57600080fd5b505afa1580156121e1573d6000803e3d6000fd5b505050506040513d601f19601f820116820180604052506122059190810190612e6e565b905090565b60008083905060008473ffffffffffffffffffffffffffffffffffffffff1663f3fdb15a6040518163ffffffff1660e01b815260040160206040518083038186803b15801561225857600080fd5b505afa15801561226c573d6000803e3d6000fd5b505050506040513d601f19601f820116820180604052506122909190810190612e6e565b90506000612324858473ffffffffffffffffffffffffffffffffffffffff16633b1d21a26040518163ffffffff1660e01b815260040160206040518083038186803b1580156122de57600080fd5b505afa1580156122f2573d6000803e3d6000fd5b505050506040513d601f19601f82011682018060405250612316919081019061308f565b61289d90919063ffffffff16565b9050612553622014808373ffffffffffffffffffffffffffffffffffffffff1663b8168816848773ffffffffffffffffffffffffffffffffffffffff166347bd37186040518163ffffffff1660e01b815260040160206040518083038186803b15801561239057600080fd5b505afa1580156123a4573d6000803e3d6000fd5b505050506040513d601f19601f820116820180604052506123c8919081019061308f565b6124588b8a73ffffffffffffffffffffffffffffffffffffffff16638f840ddd6040518163ffffffff1660e01b815260040160206040518083038186803b15801561241257600080fd5b505afa158015612426573d6000803e3d6000fd5b505050506040513d601f19601f8201168201806040525061244a919081019061308f565b61289d90919063ffffffff16565b8973ffffffffffffffffffffffffffffffffffffffff1663173b99046040518163ffffffff1660e01b815260040160206040518083038186803b15801561249e57600080fd5b505afa1580156124b2573d6000803e3d6000fd5b505050506040513d601f19601f820116820180604052506124d6919081019061308f565b6040518563ffffffff1660e01b81526004016124f594939291906135ad565b60206040518083038186803b15801561250d57600080fd5b505afa158015612521573d6000803e3d6000fd5b505050506040513d601f19601f82011682018060405250612545919081019061308f565b6128f290919063ffffffff16565b935050505092915050565b600080600260009054906101000a900473ffffffffffffffffffffffffffffffffffffffff1673ffffffffffffffffffffffffffffffffffffffff1663fd47eda6856040518263ffffffff1660e01b81526004016125bc9190613592565b60206040518083038186803b1580156125d457600080fd5b505afa1580156125e8573d6000803e3d6000fd5b505050506040513d601f19601f8201168201806040525061260c919081019061303d565b60000151905060006301e28500820290506000600260009054906101000a900473ffffffffffffffffffffffffffffffffffffffff1673ffffffffffffffffffffffffffffffffffffffff1663cb04a34c876040518263ffffffff1660e01b815260040161267a9190613592565b604080518083038186803b15801561269157600080fd5b505afa1580156126a5573d6000803e3d6000fd5b505050506040513d601f19601f820116820180604052506126c99190810190613014565b600001516fffffffffffffffffffffffffffffffff1690506000600260009054906101000a900473ffffffffffffffffffffffffffffffffffffffff1673ffffffffffffffffffffffffffffffffffffffff1663cb04a34c886040518263ffffffff1660e01b815260040161273e9190613592565b604080518083038186803b15801561275557600080fd5b505afa158015612769573d6000803e3d6000fd5b505050506040513d601f19601f8201168201806040525061278d9190810190613014565b602001516fffffffffffffffffffffffffffffffff1690506127b8868261289d90919063ffffffff16565b90506000816001548402816127c957fe5b0490506000600154600260009054906101000a900473ffffffffffffffffffffffffffffffffffffffff1673ffffffffffffffffffffffffffffffffffffffff1663e55202286040518163ffffffff1660e01b815260040160206040518083038186803b15801561283957600080fd5b505afa15801561284d573d6000803e3d6000fd5b505050506040513d601f19601f82011682018060405250612871919081019061303d565b600001516001548488028161288257fe5b04028161288b57fe5b04905080965050505050505092915050565b6000808284019050838110156128e8576040517f08c379a00000000000000000000000000000000000000000000000000000000081526004016128df90613512565b60405180910390fd5b8091505092915050565b600080831415612905576000905061295c565b600082840290508284828161291657fe5b0414612957576040517f08c379a000000000000000000000000000000000000000000000000000000000815260040161294e90613552565b60405180910390fd5b809150505b92915050565b60006129a483836040518060400160405280601a81526020017f536166654d6174683a206469766973696f6e206279207a65726f000000000000815250612bd8565b905092915050565b6000670de0b6b3a7640000905090565b60006129eb670de0b6b3a76400006129dd84866128f290919063ffffffff16565b612c3990919063ffffffff16565b905092915050565b6000612a3583836040518060400160405280601e81526020017f536166654d6174683a207375627472616374696f6e206f766572666c6f770000815250612c73565b905092915050565b6000670de0b6b3a7640000612a5b83856128f290919063ffffffff16565b81612a6257fe5b04905092915050565b6000612a9a82612a8c670de0b6b3a7640000866128f290919063ffffffff16565b61296290919063ffffffff16565b905092915050565b600033905090565b600073ffffffffffffffffffffffffffffffffffffffff168173ffffffffffffffffffffffffffffffffffffffff161415612b1a576040517f08c379a0000000000000000000000000000000000000000000000000000000008152600401612b11906134f2565b60405180910390fd5b8073ffffffffffffffffffffffffffffffffffffffff166000809054906101000a900473ffffffffffffffffffffffffffffffffffffffff1673ffffffffffffffffffffffffffffffffffffffff167f8be0079c531659141344cd1fd0a4f28419497f9722a3daafe3b4186f6b6457e060405160405180910390a3806000806101000a81548173ffffffffffffffffffffffffffffffffffffffff021916908373ffffffffffffffffffffffffffffffffffffffff16021790555050565b60008083118290612c1f576040517f08c379a0000000000000000000000000000000000000000000000000000000008152600401612c1691906134d0565b60405180910390fd5b506000838581612c2b57fe5b049050809150509392505050565b600080612c468484612962565b90506000838202850390506000811115612c67576001820192505050612c6d565b81925050505b92915050565b6000838311158290612cbb576040517f08c379a0000000000000000000000000000000000000000000000000000000008152600401612cb291906134d0565b60405180910390fd5b5060008385039050809150509392505050565b600081359050612cdd81613748565b92915050565b600081519050612cf281613748565b92915050565b600081519050612d078161375f565b92915050565b600081359050612d1c81613776565b92915050565b600060608284031215612d3457600080fd5b612d3e60606135f2565b90506000612d4e84828501612ce3565b6000830152506020612d6284828501612ce3565b6020830152506040612d7684828501612ce3565b60408301525092915050565b600060408284031215612d9457600080fd5b612d9e60406135f2565b90506000612dae84828501612e06565b6000830152506020612dc284828501612e06565b60208301525092915050565b600060208284031215612de057600080fd5b612dea60206135f2565b90506000612dfa84828501612e30565b60008301525092915050565b600081519050612e158161378d565b92915050565b600081359050612e2a816137a4565b92915050565b600081519050612e3f816137a4565b92915050565b600060208284031215612e5757600080fd5b6000612e6584828501612cce565b91505092915050565b600060208284031215612e8057600080fd5b6000612e8e84828501612ce3565b91505092915050565b60008060408385031215612eaa57600080fd5b6000612eb885828601612cce565b9250506020612ec985828601612e1b565b9150509250929050565b600060208284031215612ee557600080fd5b6000612ef384828501612cf8565b91505092915050565b60008060008060008060008060006101208a8c031215612f1b57600080fd5b6000612f298c828d01612cf8565b9950506020612f3a8c828d01612e30565b9850506040612f4b8c828d01612ce3565b9750506060612f5c8c828d01612e30565b9650506080612f6d8c828d01612e30565b95505060a0612f7e8c828d01612e30565b94505060c0612f8f8c828d01612e30565b93505060e0612fa08c828d01612e30565b925050610100612fb28c828d01612e30565b9150509295985092959850929598565b600060208284031215612fd457600080fd5b6000612fe284828501612d0d565b91505092915050565b600060608284031215612ffd57600080fd5b600061300b84828501612d22565b91505092915050565b60006040828403121561302657600080fd5b600061303484828501612d82565b91505092915050565b60006020828403121561304f57600080fd5b600061305d84828501612dce565b91505092915050565b60006020828403121561307857600080fd5b600061308684828501612e1b565b91505092915050565b6000602082840312156130a157600080fd5b60006130af84828501612e30565b91505092915050565b600080604083850312156130cb57600080fd5b60006130d985828601612e1b565b92505060206130ea85828601612e1b565b9150509250929050565b6000806040838503121561310757600080fd5b600061311585828601612e30565b925050602061312685828601612e30565b9150509250929050565b60008060006060848603121561314557600080fd5b600061315386828701612e30565b935050602061316486828701612e30565b925050604061317586828701612e30565b9150509250925092565b613188816136bc565b82525050565b61319781613646565b82525050565b6131a681613658565b82525050565b6131b5816136ce565b82525050565b60006131c68261361f565b6131d08185613635565b93506131e0818560208601613704565b6131e981613737565b840191505092915050565b6000613201602683613635565b91507f4f776e61626c653a206e6577206f776e657220697320746865207a65726f206160008301527f64647265737300000000000000000000000000000000000000000000000000006020830152604082019050919050565b6000613267601b83613635565b91507f536166654d6174683a206164646974696f6e206f766572666c6f7700000000006000830152602082019050919050565b60006132a7601683613635565b91507f7472616e73666572206f6620455448206661696c6564000000000000000000006000830152602082019050919050565b60006132e7602183613635565b91507f536166654d6174683a206d756c7469706c69636174696f6e206f766572666c6f60008301527f77000000000000000000000000000000000000000000000000000000000000006020830152604082019050919050565b600061334d602083613635565b91507f4f776e61626c653a2063616c6c6572206973206e6f7420746865206f776e65726000830152602082019050919050565b600061338d60008361362a565b9150600082019050919050565b6133a3816136b2565b82525050565b60006133b482613380565b9150819050919050565b60006020820190506133d3600083018461318e565b92915050565b60006040820190506133ee600083018561317f565b6133fb602083018461339a565b9392505050565b6000604082019050613417600083018561318e565b61342460208301846131ac565b9392505050565b6000606082019050613440600083018661318e565b61344d602083018561339a565b61345a604083018461339a565b949350505050565b600060a082019050613477600083018861318e565b613484602083018761339a565b613491604083018661339a565b61349e606083018561339a565b6134ab608083018461339a565b9695505050505050565b60006020820190506134ca600083018461319d565b92915050565b600060208201905081810360008301526134ea81846131bb565b905092915050565b6000602082019050818103600083015261350b816131f4565b9050919050565b6000602082019050818103600083015261352b8161325a565b9050919050565b6000602082019050818103600083015261354b8161329a565b9050919050565b6000602082019050818103600083015261356b816132da565b9050919050565b6000602082019050818103600083015261358b81613340565b9050919050565b60006020820190506135a7600083018461339a565b92915050565b60006080820190506135c2600083018761339a565b6135cf602083018661339a565b6135dc604083018561339a565b6135e9606083018461339a565b95945050505050565b6000604051905081810181811067ffffffffffffffff8211171561361557600080fd5b8060405250919050565b600081519050919050565b600081905092915050565b600082825260208201905092915050565b600061365182613692565b9050919050565b60008115159050919050565b600061366f82613646565b9050919050565b60006fffffffffffffffffffffffffffffffff82169050919050565b600073ffffffffffffffffffffffffffffffffffffffff82169050919050565b6000819050919050565b60006136c7826136e0565b9050919050565b60006136d9826136b2565b9050919050565b60006136eb826136f2565b9050919050565b60006136fd82613692565b9050919050565b60005b83811015613722578082015181840152602081019050613707565b83811115613731576000848401525b50505050565b6000601f19601f8301169050919050565b61375181613646565b811461375c57600080fd5b50565b61376881613658565b811461377357600080fd5b50565b61377f81613664565b811461378a57600080fd5b50565b61379681613676565b81146137a157600080fd5b50565b6137ad816136b2565b81146137b857600080fd5b5056fea365627a7a7231582011158ede95775c470726b56c783c1509b4d3c662d1875ae7a7df1c91e36334bc6c6578706572696d656e74616cf564736f6c634300050c0040",
  "source": "pragma solidity ^0.5.0;\r\npragma experimental ABIEncoderV2;\r\n\r\ninterface IERC20 {\r\n    function totalSupply() external view returns (uint256);\r\n    function balanceOf(address account) external view returns (uint256);\r\n    function transfer(address recipient, uint256 amount) external returns (bool);\r\n    function allowance(address owner, address spender) external view returns (uint256);\r\n    function decimals() external view returns (uint8);\r\n    function approve(address spender, uint256 amount) external returns (bool);\r\n    function transferFrom(address sender, address recipient, uint256 amount) external returns (bool);\r\n    event Transfer(address indexed from, address indexed to, uint256 value);\r\n    event Approval(address indexed owner, address indexed spender, uint256 value);\r\n}\r\n\r\ncontract Context {\r\n    constructor () internal { }\r\n    // solhint-disable-previous-line no-empty-blocks\r\n\r\n    function _msgSender() internal view returns (address payable) {\r\n        return msg.sender;\r\n    }\r\n\r\n    function _msgData() internal view returns (bytes memory) {\r\n        this; // silence state mutability warning without generating bytecode - see https://github.com/ethereum/solidity/issues/2691\r\n        return msg.data;\r\n    }\r\n}\r\ncontract Ownable is Context {\r\n    address private _owner;\r\n\r\n    event OwnershipTransferred(address indexed previousOwner, address indexed newOwner);\r\n    constructor () internal {\r\n        _owner = _msgSender();\r\n        emit OwnershipTransferred(address(0), _owner);\r\n    }\r\n    function owner() public view returns (address) {\r\n        return _owner;\r\n    }\r\n    modifier onlyOwner() {\r\n        require(isOwner(), \"Ownable: caller is not the owner\");\r\n        _;\r\n    }\r\n    function isOwner() public view returns (bool) {\r\n        return _msgSender() == _owner;\r\n    }\r\n    function renounceOwnership() public onlyOwner {\r\n        emit OwnershipTransferred(_owner, address(0));\r\n        _owner = address(0);\r\n    }\r\n    function transferOwnership(address newOwner) public onlyOwner {\r\n        _transferOwnership(newOwner);\r\n    }\r\n    function _transferOwnership(address newOwner) internal {\r\n        require(newOwner != address(0), \"Ownable: new owner is the zero address\");\r\n        emit OwnershipTransferred(_owner, newOwner);\r\n        _owner = newOwner;\r\n    }\r\n}\r\n\r\nlibrary SafeMath {\r\n    function add(uint256 a, uint256 b) internal pure returns (uint256) {\r\n        uint256 c = a + b;\r\n        require(c >= a, \"SafeMath: addition overflow\");\r\n\r\n        return c;\r\n    }\r\n    function sub(uint256 a, uint256 b) internal pure returns (uint256) {\r\n        return sub(a, b, \"SafeMath: subtraction overflow\");\r\n    }\r\n    function sub(uint256 a, uint256 b, string memory errorMessage) internal pure returns (uint256) {\r\n        require(b <= a, errorMessage);\r\n        uint256 c = a - b;\r\n\r\n        return c;\r\n    }\r\n    function mul(uint256 a, uint256 b) internal pure returns (uint256) {\r\n        if (a == 0) {\r\n            return 0;\r\n        }\r\n\r\n        uint256 c = a * b;\r\n        require(c / a == b, \"SafeMath: multiplication overflow\");\r\n\r\n        return c;\r\n    }\r\n    function div(uint256 a, uint256 b) internal pure returns (uint256) {\r\n        return div(a, b, \"SafeMath: division by zero\");\r\n    }\r\n    function div(uint256 a, uint256 b, string memory errorMessage) internal pure returns (uint256) {\r\n        require(b > 0, errorMessage);\r\n        uint256 c = a / b;\r\n\r\n        return c;\r\n    }\r\n    function divCeil(\r\n        uint256 a,\r\n        uint256 b\r\n    )\r\n        internal\r\n        pure\r\n        returns (uint256)\r\n    {\r\n        uint256 quotient = div(a, b);\r\n        uint256 remainder = a - quotient * b;\r\n        if (remainder > 0) {\r\n            return quotient + 1;\r\n        } else {\r\n            return quotient;\r\n        }\r\n    }\r\n    function mod(uint256 a, uint256 b) internal pure returns (uint256) {\r\n        return mod(a, b, \"SafeMath: modulo by zero\");\r\n    }\r\n    function mod(uint256 a, uint256 b, string memory errorMessage) internal pure returns (uint256) {\r\n        require(b != 0, errorMessage);\r\n        return a % b;\r\n    }\r\n}\r\n\r\nlibrary Decimal {\r\n    using SafeMath for uint256;\r\n\r\n    uint256 constant BASE = 10**18;\r\n\r\n    function one()\r\n        internal\r\n        pure\r\n        returns (uint256)\r\n    {\r\n        return BASE;\r\n    }\r\n\r\n    function onePlus(\r\n        uint256 d\r\n    )\r\n        internal\r\n        pure\r\n        returns (uint256)\r\n    {\r\n        return d.add(BASE);\r\n    }\r\n\r\n    function mulFloor(\r\n        uint256 target,\r\n        uint256 d\r\n    )\r\n        internal\r\n        pure\r\n        returns (uint256)\r\n    {\r\n        return target.mul(d) / BASE;\r\n    }\r\n\r\n    function mulCeil(\r\n        uint256 target,\r\n        uint256 d\r\n    )\r\n        internal\r\n        pure\r\n        returns (uint256)\r\n    {\r\n        return target.mul(d).divCeil(BASE);\r\n    }\r\n\r\n    function divFloor(\r\n        uint256 target,\r\n        uint256 d\r\n    )\r\n        internal\r\n        pure\r\n        returns (uint256)\r\n    {\r\n        return target.mul(BASE).div(d);\r\n    }\r\n\r\n    function divCeil(\r\n        uint256 target,\r\n        uint256 d\r\n    )\r\n        internal\r\n        pure\r\n        returns (uint256)\r\n    {\r\n        return target.mul(BASE).divCeil(d);\r\n    }\r\n}\r\n\r\nlibrary Address {\r\n    function isContract(address account) internal view returns (bool) {\r\n        bytes32 codehash;\r\n        bytes32 accountHash = 0xc5d2460186f7233c927e7db2dcc703c0e500b653ca82273b7bfad8045d85a470;\r\n        // solhint-disable-next-line no-inline-assembly\r\n        assembly { codehash := extcodehash(account) }\r\n        return (codehash != 0x0 && codehash != accountHash);\r\n    }\r\n    function toPayable(address account) internal pure returns (address payable) {\r\n        return address(uint160(account));\r\n    }\r\n    function sendValue(address payable recipient, uint256 amount) internal {\r\n        require(address(this).balance >= amount, \"Address: insufficient balance\");\r\n\r\n        // solhint-disable-next-line avoid-call-value\r\n        (bool success, ) = recipient.call.value(amount)(\"\");\r\n        require(success, \"Address: unable to send value, recipient may have reverted\");\r\n    }\r\n}\r\n\r\n// Compound\r\ninterface Compound {\r\n  function interestRateModel() external view returns (address);\r\n  function reserveFactorMantissa() external view returns (uint256);\r\n  function totalBorrows() external view returns (uint256);\r\n  function totalReserves() external view returns (uint256);\r\n\r\n  function supplyRatePerBlock() external view returns (uint);\r\n  function getCash() external view returns (uint256);\r\n}\r\n\r\n// Fulcrum\r\ninterface Fulcrum {\r\n  function supplyInterestRate() external view returns (uint256);\r\n  function nextSupplyInterestRate(uint256 supplyAmount) external view returns (uint256);\r\n}\r\n\r\ninterface DyDx {\r\n  struct val {\r\n       uint256 value;\r\n   }\r\n\r\n   struct set {\r\n      uint128 borrow;\r\n      uint128 supply;\r\n  }\r\n\r\n  function getEarningsRate() external view returns (val memory);\r\n  function getMarketInterestRate(uint256 marketId) external view returns (val memory);\r\n  function getMarketTotalPar(uint256 marketId) external view returns (set memory);\r\n}\r\n\r\ninterface LendingPoolAddressesProvider {\r\n    function getLendingPoolCore() external view returns (address);\r\n}\r\n\r\ninterface LendingPoolCore  {\r\n  function getReserveCurrentLiquidityRate(address _reserve)\r\n  external\r\n  view\r\n  returns (\r\n      uint256 liquidityRate\r\n  );\r\n  function getReserveInterestRateStrategyAddress(address _reserve) external view returns (address);\r\n  function getReserveTotalBorrows(address _reserve) external view returns (uint256);\r\n  function getReserveTotalBorrowsStable(address _reserve) external view returns (uint256);\r\n  function getReserveTotalBorrowsVariable(address _reserve) external view returns (uint256);\r\n  function getReserveCurrentAverageStableBorrowRate(address _reserve)\r\n     external\r\n     view\r\n     returns (uint256);\r\n  function getReserveAvailableLiquidity(address _reserve) external view returns (uint256);\r\n}\r\n\r\ninterface IReserveInterestRateStrategy {\r\n\r\n    function getBaseVariableBorrowRate() external view returns (uint256);\r\n    function calculateInterestRates(\r\n        address _reserve,\r\n        uint256 _utilizationRate,\r\n        uint256 _totalBorrowsStable,\r\n        uint256 _totalBorrowsVariable,\r\n        uint256 _averageStableBorrowRate)\r\n    external\r\n    view\r\n    returns (uint256 liquidityRate, uint256 stableBorrowRate, uint256 variableBorrowRate);\r\n}\r\n\r\ninterface InterestRateModel {\r\n  function getSupplyRate(uint cash, uint borrows, uint reserves, uint reserveFactorMantissa) external view returns (uint);\r\n}\r\n\r\ncontract Structs {\r\n  struct Asset {\r\n    address lendingPool;\r\n    address priceOralce;\r\n    address interestModel;\r\n  }\r\n}\r\n\r\ncontract IDDEX is Structs {\r\n\r\n  function getInterestRates(address token, uint256 extraBorrowAmount)\r\n    external\r\n    view\r\n    returns (uint256 borrowInterestRate, uint256 supplyInterestRate);\r\n  function getIndex(address token)\r\n    external\r\n    view\r\n    returns (uint256 supplyIndex, uint256 borrowIndex);\r\n  function getTotalSupply(address asset)\r\n    external\r\n    view\r\n    returns (uint256 amount);\r\n  function getTotalBorrow(address asset)\r\n    external\r\n    view\r\n    returns (uint256 amount);\r\n  function getAsset(address token)\r\n    external\r\n    view returns (Asset memory asset);\r\n}\r\n\r\ninterface IDDEXModel {\r\n  function polynomialInterestModel(uint256 borrowRatio) external view returns (uint256);\r\n}\r\n\r\ninterface ILendF {\r\n  function getSupplyBalance(address account, address token)\r\n    external\r\n    view\r\n    returns (uint256);\r\n  function supplyBalances(address account, address token)\r\n    external\r\n    view\r\n    returns (uint256 principal, uint256 interestIndex);\r\n  function supply(address asset, uint256 amount) external;\r\n  function withdraw(address asset, uint256 amount) external;\r\n  function markets(address asset) external view returns (\r\n    bool isSupported,\r\n    uint256 blockNumber,\r\n    address interestRateModel,\r\n    uint256 totalSupply,\r\n    uint256 supplyRateMantissa,\r\n    uint256 supplyIndex,\r\n    uint256 totalBorrows,\r\n    uint256 borrowRateMantissa,\r\n    uint256 borrowIndex\r\n  );\r\n}\r\n\r\ninterface ILendFModel {\r\n    function getSupplyRate(address asset, uint cash, uint borrows) external view returns (uint, uint);\r\n}\r\n\r\n\r\n\r\ncontract APRWithPoolOracle is Ownable, Structs {\r\n  using SafeMath for uint256;\r\n  using Address for address;\r\n\r\n  uint256 DECIMAL = 10 ** 18;\r\n\r\n  address public DYDX;\r\n  address public AAVE;\r\n  address public DDEX;\r\n  address public LENDF;\r\n\r\n  uint256 public liquidationRatio;\r\n\r\n  constructor() public {\r\n    DYDX = address(0x1E0447b19BB6EcFdAe1e4AE1694b0C3659614e4e);\r\n    AAVE = address(0x24a42fD28C976A61Df5D00D0599C34c4f90748c8);\r\n    DDEX = address(0x241e82C79452F51fbfc89Fac6d912e021dB1a3B7);\r\n    LENDF = address(0x0eEe3E3828A45f7601D5F54bF49bB01d1A9dF5ea);\r\n    liquidationRatio = 50000000000000000;\r\n  }\r\n\r\n  function set_new_AAVE(address _new_AAVE) public onlyOwner {\r\n      AAVE = _new_AAVE;\r\n  }\r\n  function set_new_DDEX(address _new_DDEX) public onlyOwner {\r\n      DDEX = _new_DDEX;\r\n  }\r\n  function set_new_DYDX(address _new_DYDX) public onlyOwner {\r\n      DYDX = _new_DYDX;\r\n  }\r\n  function set_new_LENDF(address _new_LENDF) public onlyOwner {\r\n      LENDF = _new_LENDF;\r\n  }\r\n  function set_new_Ratio(uint256 _new_Ratio) public onlyOwner {\r\n      liquidationRatio = _new_Ratio;\r\n  }\r\n\r\n  function getLENDFAPR(address token) public view returns (uint256) {\r\n    (,,,,uint256 supplyRateMantissa,,,,) = ILendF(LENDF).markets(token);\r\n    return supplyRateMantissa.mul(2102400);\r\n  }\r\n\r\n  function getLENDFAPRAdjusted(address token, uint256 supply) public view returns (uint256) {\r\n    if (token == address(0xEeeeeEeeeEeEeeEeEeEeeEEEeeeeEeeeeeeeEEeE)) {\r\n      return 0;\r\n    }\r\n    uint256 totalCash = IERC20(token).balanceOf(LENDF).add(supply);\r\n    (,, address interestRateModel,,,, uint256 totalBorrows,,) = ILendF(LENDF).markets(token);\r\n    if (interestRateModel == address(0)) {\r\n      return 0;\r\n    }\r\n    (, uint256 supplyRateMantissa) = ILendFModel(interestRateModel).getSupplyRate(token, totalCash, totalBorrows);\r\n    return supplyRateMantissa.mul(2102400);\r\n  }\r\n\r\n  function getDDEXAPR(address token) public view returns (uint256) {\r\n    if (token == address(0xEeeeeEeeeEeEeeEeEeEeeEEEeeeeEeeeeeeeEEeE)) {\r\n      token = address(0x000000000000000000000000000000000000000E);\r\n    }\r\n    (uint256 supplyIndex,) = IDDEX(DDEX).getIndex(token);\r\n    if (supplyIndex == 0) {\r\n      return 0;\r\n    }\r\n    (,uint256 supplyRate) = IDDEX(DDEX).getInterestRates(token, 0);\r\n    return supplyRate;\r\n  }\r\n  function getDDEXAPRAdjusted(address token, uint256 _supply) public view returns (uint256) {\r\n    if (token == address(0xEeeeeEeeeEeEeeEeEeEeeEEEeeeeEeeeeeeeEEeE)) {\r\n      token = address(0x000000000000000000000000000000000000000E);\r\n    }\r\n    (uint256 supplyIndex,) = IDDEX(DDEX).getIndex(token);\r\n    if (supplyIndex == 0) {\r\n      return 0;\r\n    }\r\n    uint256 supply = IDDEX(DDEX).getTotalSupply(token).add(_supply);\r\n    uint256 borrow = IDDEX(DDEX).getTotalBorrow(token);\r\n    uint256 borrowRatio = borrow.mul(Decimal.one()).div(supply);\r\n    address interestRateModel = IDDEX(DDEX).getAsset(token).interestModel;\r\n    uint256 borrowRate = IDDEXModel(interestRateModel).polynomialInterestModel(borrowRatio);\r\n    uint256 borrowInterest = Decimal.mulCeil(borrow, borrowRate);\r\n    uint256 supplyInterest = Decimal.mulFloor(borrowInterest, Decimal.one().sub(liquidationRatio));\r\n    return Decimal.divFloor(supplyInterest, supply);\r\n  }\r\n\r\n  function getCompoundAPR(address token) public view returns (uint256) {\r\n    return Compound(token).supplyRatePerBlock().mul(2102400);\r\n  }\r\n\r\n  function getCompoundAPRAdjusted(address token, uint256 _supply) public view returns (uint256) {\r\n    Compound c = Compound(token);\r\n    InterestRateModel i = InterestRateModel(Compound(token).interestRateModel());\r\n    uint256 cashPrior = c.getCash().add(_supply);\r\n    return i.getSupplyRate(cashPrior, c.totalBorrows(), c.totalReserves().add(_supply), c.reserveFactorMantissa()).mul(2102400);\r\n  }\r\n\r\n  function getFulcrumAPR(address token) public view returns(uint256) {\r\n    return Fulcrum(token).supplyInterestRate().div(100);\r\n  }\r\n\r\n  function getFulcrumAPRAdjusted(address token, uint256 _supply) public view returns(uint256) {\r\n    return Fulcrum(token).nextSupplyInterestRate(_supply).div(100);\r\n  }\r\n\r\n  function getDyDxAPR(uint256 marketId) public view returns(uint256) {\r\n    uint256 rate      = DyDx(DYDX).getMarketInterestRate(marketId).value;\r\n    uint256 aprBorrow = rate * 31622400;\r\n    uint256 borrow    = DyDx(DYDX).getMarketTotalPar(marketId).borrow;\r\n    uint256 supply    = DyDx(DYDX).getMarketTotalPar(marketId).supply;\r\n    uint256 usage     = (borrow * DECIMAL) / supply;\r\n    uint256 apr       = (((aprBorrow * usage) / DECIMAL) * DyDx(DYDX).getEarningsRate().value) / DECIMAL;\r\n    return apr;\r\n  }\r\n  function getDyDxAPRAdjusted(uint256 marketId, uint256 _supply) public view returns(uint256) {\r\n    uint256 rate      = DyDx(DYDX).getMarketInterestRate(marketId).value;\r\n    uint256 aprBorrow = rate * 31622400;\r\n    uint256 borrow    = DyDx(DYDX).getMarketTotalPar(marketId).borrow;\r\n    uint256 supply    = DyDx(DYDX).getMarketTotalPar(marketId).supply;\r\n    supply = supply.add(_supply);\r\n    uint256 usage     = (borrow * DECIMAL) / supply;\r\n    uint256 apr       = (((aprBorrow * usage) / DECIMAL) * DyDx(DYDX).getEarningsRate().value) / DECIMAL;\r\n    return apr;\r\n  }\r\n\r\n  function getAaveCore() public view returns (address) {\r\n    return address(LendingPoolAddressesProvider(AAVE).getLendingPoolCore());\r\n  }\r\n\r\n  function getAaveAPR(address token) public view returns (uint256) {\r\n    LendingPoolCore core = LendingPoolCore(LendingPoolAddressesProvider(AAVE).getLendingPoolCore());\r\n    return core.getReserveCurrentLiquidityRate(token).div(1e9);\r\n  }\r\n\r\n  function getAaveAPRAdjusted(address token, uint256 _supply) public view returns (uint256) {\r\n    LendingPoolCore core = LendingPoolCore(LendingPoolAddressesProvider(AAVE).getLendingPoolCore());\r\n    IReserveInterestRateStrategy apr = IReserveInterestRateStrategy(core.getReserveInterestRateStrategyAddress(token));\r\n    (uint256 newLiquidityRate,,) = apr.calculateInterestRates(\r\n      token,\r\n      core.getReserveAvailableLiquidity(token).add(_supply),\r\n      core.getReserveTotalBorrowsStable(token),\r\n      core.getReserveTotalBorrowsVariable(token),\r\n      core.getReserveCurrentAverageStableBorrowRate(token)\r\n    );\r\n    return newLiquidityRate.div(1e9);\r\n  }\r\n\r\n  // incase of half-way error\r\n  function inCaseTokenGetsStuck(IERC20 _TokenAddress) onlyOwner public {\r\n      uint qty = _TokenAddress.balanceOf(address(this));\r\n      _TokenAddress.transfer(msg.sender, qty);\r\n  }\r\n  // incase of half-way error\r\n  function inCaseETHGetsStuck() onlyOwner public{\r\n      (bool result, ) = msg.sender.call.value(address(this).balance)(\"\");\r\n      require(result, \"transfer of ETH failed\");\r\n  }\r\n}\r\n",
  "sourcePath": "D:/ftm/apr-oracle/contracts/APRWithPoolOracle.sol",
  "compiler": {
    "name": "solc",
    "version": "0.5.12+commit.7709ece9.Emscripten.clang"
  },
  "schemaVersion": "3.0.19",
  "updatedAt": "2020-02-04T03:59:13.146Z",
  "devdoc": {
    "methods": {}
  },
  "userdoc": {
    "methods": {}
  }
}