{
  "contractName": "APRWithPoolOracle",
  "abi": [
    {
      "inputs": [],
      "payable": false,
      "stateMutability": "nonpayable",
      "type": "constructor"
    },
    {
      "anonymous": false,
      "inputs": [
        {
          "indexed": true,
          "internalType": "address",
          "name": "previousOwner",
          "type": "address"
        },
        {
          "indexed": true,
          "internalType": "address",
          "name": "newOwner",
          "type": "address"
        }
      ],
      "name": "OwnershipTransferred",
      "type": "event"
    },
    {
      "constant": true,
      "inputs": [],
      "name": "AAVE",
      "outputs": [
        {
          "internalType": "address",
          "name": "",
          "type": "address"
        }
      ],
      "payable": false,
      "stateMutability": "view",
      "type": "function"
    },
    {
      "constant": true,
      "inputs": [],
      "name": "DDEX",
      "outputs": [
        {
          "internalType": "address",
          "name": "",
          "type": "address"
        }
      ],
      "payable": false,
      "stateMutability": "view",
      "type": "function"
    },
    {
      "constant": true,
      "inputs": [],
      "name": "DYDX",
      "outputs": [
        {
          "internalType": "address",
          "name": "",
          "type": "address"
        }
      ],
      "payable": false,
      "stateMutability": "view",
      "type": "function"
    },
    {
      "constant": true,
      "inputs": [],
      "name": "LENDF",
      "outputs": [
        {
          "internalType": "address",
          "name": "",
          "type": "address"
        }
      ],
      "payable": false,
      "stateMutability": "view",
      "type": "function"
    },
    {
      "constant": true,
      "inputs": [],
      "name": "isOwner",
      "outputs": [
        {
          "internalType": "bool",
          "name": "",
          "type": "bool"
        }
      ],
      "payable": false,
      "stateMutability": "view",
      "type": "function"
    },
    {
      "constant": true,
      "inputs": [],
      "name": "owner",
      "outputs": [
        {
          "internalType": "address",
          "name": "",
          "type": "address"
        }
      ],
      "payable": false,
      "stateMutability": "view",
      "type": "function"
    },
    {
      "constant": false,
      "inputs": [],
      "name": "renounceOwnership",
      "outputs": [],
      "payable": false,
      "stateMutability": "nonpayable",
      "type": "function"
    },
    {
      "constant": false,
      "inputs": [
        {
          "internalType": "address",
          "name": "newOwner",
          "type": "address"
        }
      ],
      "name": "transferOwnership",
      "outputs": [],
      "payable": false,
      "stateMutability": "nonpayable",
      "type": "function"
    },
    {
      "constant": false,
      "inputs": [
        {
          "internalType": "address",
          "name": "_new_AAVE",
          "type": "address"
        }
      ],
      "name": "set_new_AAVE",
      "outputs": [],
      "payable": false,
      "stateMutability": "nonpayable",
      "type": "function"
    },
    {
      "constant": false,
      "inputs": [
        {
          "internalType": "address",
          "name": "_new_DDEX",
          "type": "address"
        }
      ],
      "name": "set_new_DDEX",
      "outputs": [],
      "payable": false,
      "stateMutability": "nonpayable",
      "type": "function"
    },
    {
      "constant": false,
      "inputs": [
        {
          "internalType": "address",
          "name": "_new_DYDX",
          "type": "address"
        }
      ],
      "name": "set_new_DYDX",
      "outputs": [],
      "payable": false,
      "stateMutability": "nonpayable",
      "type": "function"
    },
    {
      "constant": false,
      "inputs": [
        {
          "internalType": "address",
          "name": "_new_LENDF",
          "type": "address"
        }
      ],
      "name": "set_new_LENDF",
      "outputs": [],
      "payable": false,
      "stateMutability": "nonpayable",
      "type": "function"
    },
    {
      "constant": true,
      "inputs": [
        {
          "internalType": "address",
          "name": "token",
          "type": "address"
        }
      ],
      "name": "getDDEXAPR",
      "outputs": [
        {
          "internalType": "uint256",
          "name": "",
          "type": "uint256"
        }
      ],
      "payable": false,
      "stateMutability": "view",
      "type": "function"
    },
    {
      "constant": true,
      "inputs": [
        {
          "internalType": "address",
          "name": "token",
          "type": "address"
        },
        {
          "internalType": "uint256",
          "name": "_supply",
          "type": "uint256"
        }
      ],
      "name": "getDDEXAPRAdjusted",
      "outputs": [
        {
          "internalType": "uint256",
          "name": "",
          "type": "uint256"
        }
      ],
      "payable": false,
      "stateMutability": "view",
      "type": "function"
    },
    {
      "constant": true,
      "inputs": [
        {
          "internalType": "address",
          "name": "token",
          "type": "address"
        }
      ],
      "name": "getCompoundAPR",
      "outputs": [
        {
          "internalType": "uint256",
          "name": "",
          "type": "uint256"
        }
      ],
      "payable": false,
      "stateMutability": "view",
      "type": "function"
    },
    {
      "constant": true,
      "inputs": [
        {
          "internalType": "address",
          "name": "token",
          "type": "address"
        },
        {
          "internalType": "uint256",
          "name": "_supply",
          "type": "uint256"
        }
      ],
      "name": "getCompoundAPRAdjusted",
      "outputs": [
        {
          "internalType": "uint256",
          "name": "",
          "type": "uint256"
        }
      ],
      "payable": false,
      "stateMutability": "view",
      "type": "function"
    },
    {
      "constant": true,
      "inputs": [
        {
          "internalType": "address",
          "name": "token",
          "type": "address"
        }
      ],
      "name": "getFulcrumAPR",
      "outputs": [
        {
          "internalType": "uint256",
          "name": "",
          "type": "uint256"
        }
      ],
      "payable": false,
      "stateMutability": "view",
      "type": "function"
    },
    {
      "constant": true,
      "inputs": [
        {
          "internalType": "address",
          "name": "token",
          "type": "address"
        },
        {
          "internalType": "uint256",
          "name": "_supply",
          "type": "uint256"
        }
      ],
      "name": "getFulcrumAPRAdjusted",
      "outputs": [
        {
          "internalType": "uint256",
          "name": "",
          "type": "uint256"
        }
      ],
      "payable": false,
      "stateMutability": "view",
      "type": "function"
    },
    {
      "constant": true,
      "inputs": [
        {
          "internalType": "uint256",
          "name": "marketId",
          "type": "uint256"
        }
      ],
      "name": "getDyDxAPR",
      "outputs": [
        {
          "internalType": "uint256",
          "name": "",
          "type": "uint256"
        }
      ],
      "payable": false,
      "stateMutability": "view",
      "type": "function"
    },
    {
      "constant": true,
      "inputs": [
        {
          "internalType": "uint256",
          "name": "marketId",
          "type": "uint256"
        },
        {
          "internalType": "uint256",
          "name": "_supply",
          "type": "uint256"
        }
      ],
      "name": "getDyDxAPRAdjusted",
      "outputs": [
        {
          "internalType": "uint256",
          "name": "",
          "type": "uint256"
        }
      ],
      "payable": false,
      "stateMutability": "view",
      "type": "function"
    },
    {
      "constant": true,
      "inputs": [],
      "name": "getAaveCore",
      "outputs": [
        {
          "internalType": "address",
          "name": "",
          "type": "address"
        }
      ],
      "payable": false,
      "stateMutability": "view",
      "type": "function"
    },
    {
      "constant": true,
      "inputs": [
        {
          "internalType": "address",
          "name": "token",
          "type": "address"
        }
      ],
      "name": "getAaveAPR",
      "outputs": [
        {
          "internalType": "uint256",
          "name": "",
          "type": "uint256"
        }
      ],
      "payable": false,
      "stateMutability": "view",
      "type": "function"
    },
    {
      "constant": true,
      "inputs": [
        {
          "internalType": "address",
          "name": "token",
          "type": "address"
        },
        {
          "internalType": "uint256",
          "name": "_supply",
          "type": "uint256"
        }
      ],
      "name": "getAaveAPRAdjusted",
      "outputs": [
        {
          "internalType": "uint256",
          "name": "",
          "type": "uint256"
        }
      ],
      "payable": false,
      "stateMutability": "view",
      "type": "function"
    },
    {
      "constant": false,
      "inputs": [
        {
          "internalType": "contract IERC20",
          "name": "_TokenAddress",
          "type": "address"
        }
      ],
      "name": "inCaseTokenGetsStuck",
      "outputs": [],
      "payable": false,
      "stateMutability": "nonpayable",
      "type": "function"
    },
    {
      "constant": false,
      "inputs": [],
      "name": "inCaseETHGetsStuck",
      "outputs": [],
      "payable": false,
      "stateMutability": "nonpayable",
      "type": "function"
    }
  ],
  "bytecode": "0x6080604052670de0b6b3a764000060015534801561001c57600080fd5b5061002b61023f60201b60201c565b6000806101000a81548173ffffffffffffffffffffffffffffffffffffffff021916908373ffffffffffffffffffffffffffffffffffffffff1602179055506000809054906101000a900473ffffffffffffffffffffffffffffffffffffffff1673ffffffffffffffffffffffffffffffffffffffff16600073ffffffffffffffffffffffffffffffffffffffff167f8be0079c531659141344cd1fd0a4f28419497f9722a3daafe3b4186f6b6457e060405160405180910390a3731e0447b19bb6ecfdae1e4ae1694b0c3659614e4e600260006101000a81548173ffffffffffffffffffffffffffffffffffffffff021916908373ffffffffffffffffffffffffffffffffffffffff1602179055507324a42fd28c976a61df5d00d0599c34c4f90748c8600360006101000a81548173ffffffffffffffffffffffffffffffffffffffff021916908373ffffffffffffffffffffffffffffffffffffffff16021790555073241e82c79452f51fbfc89fac6d912e021db1a3b7600460006101000a81548173ffffffffffffffffffffffffffffffffffffffff021916908373ffffffffffffffffffffffffffffffffffffffff160217905550730eee3e3828a45f7601d5f54bf49bb01d1a9df5ea600560006101000a81548173ffffffffffffffffffffffffffffffffffffffff021916908373ffffffffffffffffffffffffffffffffffffffff160217905550610247565b600033905090565b612ffa80620002576000396000f3fe608060405234801561001057600080fd5b50600436106101735760003560e01c806383deca3d116100de578063c043fca211610097578063f60a15ed11610071578063f60a15ed1461045e578063f82ce27d14610468578063fb73c83214610486578063fcc01c7b146104b657610173565b8063c043fca2146103f4578063ddf1084214610412578063f2fde38b1461044257610173565b806383deca3d1461031e5780638da5cb5b1461034e5780638f32d59b1461036c57806390ece0de1461038a578063989eaa9c146103a8578063ae600c45146103d857610173565b80636d5ccd18116101305780636d5ccd181461025e578063715018a61461027c57806373824dae1461028657806376852893146102b6578063812adb06146102d257806381d24d8d146102ee57610173565b8063192a9861146101785780632c7a5ae4146101a85780632e8d6e18146101c457806344e258b4146101e057806348ccda3c146102105780634eff75d81461022e575b600080fd5b610192600480360361018d919081019061273e565b6104e6565b60405161019f9190612d8e565b60405180910390f35b6101c260048036036101bd919081019061273e565b610632565b005b6101de60048036036101d991908101906127f5565b6106bd565b005b6101fa60048036036101f5919081019061273e565b610823565b6040516102079190612d8e565b60405180910390f35b6102186108bf565b6040516102259190612bf1565b60405180910390f35b61024860048036036102439190810190612790565b6108e5565b6040516102559190612d8e565b60405180910390f35b61026661098b565b6040516102739190612bf1565b60405180910390f35b6102846109b1565b005b6102a0600480360361029b9190810190612790565b610ab7565b6040516102ad9190612d8e565b60405180910390f35b6102d060048036036102cb919081019061273e565b610dec565b005b6102ec60048036036102e7919081019061273e565b610e77565b005b61030860048036036103039190810190612899565b610f02565b6040516103159190612d8e565b60405180910390f35b6103386004803603610333919081019061273e565b61122b565b6040516103459190612d8e565b60405180910390f35b6103566112c5565b6040516103639190612bf1565b60405180910390f35b6103746112ee565b6040516103819190612cb1565b60405180910390f35b61039261134c565b60405161039f9190612bf1565b60405180910390f35b6103c260048036036103bd9190810190612790565b611372565b6040516103cf9190612d8e565b60405180910390f35b6103f260048036036103ed919081019061273e565b61178f565b005b6103fc61181a565b6040516104099190612bf1565b60405180910390f35b61042c6004803603610427919081019061273e565b611840565b6040516104399190612d8e565b60405180910390f35b61045c6004803603610457919081019061273e565b6118fc565b005b61046661194f565b005b610470611a5c565b60405161047d9190612bf1565b60405180910390f35b6104a0600480360361049b9190810190612790565b611b03565b6040516104ad9190612d8e565b60405180910390f35b6104d060048036036104cb91908101906128eb565b611e57565b6040516104dd9190612d8e565b60405180910390f35b600080600360009054906101000a900473ffffffffffffffffffffffffffffffffffffffff1673ffffffffffffffffffffffffffffffffffffffff1663ed6ff7606040518163ffffffff1660e01b815260040160206040518083038186803b15801561055157600080fd5b505afa158015610565573d6000803e3d6000fd5b505050506040513d601f19601f820116820180604052506105899190810190612767565b905061062a633b9aca008273ffffffffffffffffffffffffffffffffffffffff1663c540148e866040518263ffffffff1660e01b81526004016105cc9190612bf1565b60206040518083038186803b1580156105e457600080fd5b505afa1580156105f8573d6000803e3d6000fd5b505050506040513d601f19601f8201168201806040525061061c91908101906128c2565b61219690919063ffffffff16565b915050919050565b61063a6112ee565b610679576040517f08c379a000000000000000000000000000000000000000000000000000000000815260040161067090612d6e565b60405180910390fd5b80600260006101000a81548173ffffffffffffffffffffffffffffffffffffffff021916908373ffffffffffffffffffffffffffffffffffffffff16021790555050565b6106c56112ee565b610704576040517f08c379a00000000000000000000000000000000000000000000000000000000081526004016106fb90612d6e565b60405180910390fd5b60008173ffffffffffffffffffffffffffffffffffffffff166370a08231306040518263ffffffff1660e01b815260040161073f9190612bf1565b60206040518083038186803b15801561075757600080fd5b505afa15801561076b573d6000803e3d6000fd5b505050506040513d601f19601f8201168201806040525061078f91908101906128c2565b90508173ffffffffffffffffffffffffffffffffffffffff1663a9059cbb33836040518363ffffffff1660e01b81526004016107cc929190612c0c565b602060405180830381600087803b1580156107e657600080fd5b505af11580156107fa573d6000803e3d6000fd5b505050506040513d601f19601f8201168201806040525061081e91908101906127cc565b505050565b60006108b8622014808373ffffffffffffffffffffffffffffffffffffffff1663ae9d70b06040518163ffffffff1660e01b815260040160206040518083038186803b15801561087257600080fd5b505afa158015610886573d6000803e3d6000fd5b505050506040513d601f19601f820116820180604052506108aa91908101906128c2565b6121e090919063ffffffff16565b9050919050565b600360009054906101000a900473ffffffffffffffffffffffffffffffffffffffff1681565b600061098360648473ffffffffffffffffffffffffffffffffffffffff1663d65a5021856040518263ffffffff1660e01b81526004016109259190612d8e565b60206040518083038186803b15801561093d57600080fd5b505afa158015610951573d6000803e3d6000fd5b505050506040513d601f19601f8201168201806040525061097591908101906128c2565b61219690919063ffffffff16565b905092915050565b600560009054906101000a900473ffffffffffffffffffffffffffffffffffffffff1681565b6109b96112ee565b6109f8576040517f08c379a00000000000000000000000000000000000000000000000000000000081526004016109ef90612d6e565b60405180910390fd5b600073ffffffffffffffffffffffffffffffffffffffff166000809054906101000a900473ffffffffffffffffffffffffffffffffffffffff1673ffffffffffffffffffffffffffffffffffffffff167f8be0079c531659141344cd1fd0a4f28419497f9722a3daafe3b4186f6b6457e060405160405180910390a360008060006101000a81548173ffffffffffffffffffffffffffffffffffffffff021916908373ffffffffffffffffffffffffffffffffffffffff160217905550565b600080610b7783600460009054906101000a900473ffffffffffffffffffffffffffffffffffffffff1673ffffffffffffffffffffffffffffffffffffffff166368da10ae876040518263ffffffff1660e01b8152600401610b199190612bf1565b60206040518083038186803b158015610b3157600080fd5b505afa158015610b45573d6000803e3d6000fd5b505050506040513d601f19601f82011682018060405250610b6991908101906128c2565b61225090919063ffffffff16565b90506000600460009054906101000a900473ffffffffffffffffffffffffffffffffffffffff1673ffffffffffffffffffffffffffffffffffffffff16638538d14e866040518263ffffffff1660e01b8152600401610bd69190612bf1565b60206040518083038186803b158015610bee57600080fd5b505afa158015610c02573d6000803e3d6000fd5b505050506040513d601f19601f82011682018060405250610c2691908101906128c2565b90506000610c5683610c48610c396122a5565b856121e090919063ffffffff16565b61219690919063ffffffff16565b90506000600460009054906101000a900473ffffffffffffffffffffffffffffffffffffffff1673ffffffffffffffffffffffffffffffffffffffff166330b8b2c6886040518263ffffffff1660e01b8152600401610cb59190612bf1565b60606040518083038186803b158015610ccd57600080fd5b505afa158015610ce1573d6000803e3d6000fd5b505050506040513d601f19601f82011682018060405250610d05919081019061281e565b60400151905060008173ffffffffffffffffffffffffffffffffffffffff166369e8a15f846040518263ffffffff1660e01b8152600401610d469190612d8e565b60206040518083038186803b158015610d5e57600080fd5b505afa158015610d72573d6000803e3d6000fd5b505050506040513d601f19601f82011682018060405250610d9691908101906128c2565b90506000610da485836122b5565b90506000610dd182610dcc650b153996e045610dbe6122a5565b6122ec90919063ffffffff16565b612336565b9050610ddd818a612364565b97505050505050505092915050565b610df46112ee565b610e33576040517f08c379a0000000000000000000000000000000000000000000000000000000008152600401610e2a90612d6e565b60405180910390fd5b80600460006101000a81548173ffffffffffffffffffffffffffffffffffffffff021916908373ffffffffffffffffffffffffffffffffffffffff16021790555050565b610e7f6112ee565b610ebe576040517f08c379a0000000000000000000000000000000000000000000000000000000008152600401610eb590612d6e565b60405180910390fd5b80600360006101000a81548173ffffffffffffffffffffffffffffffffffffffff021916908373ffffffffffffffffffffffffffffffffffffffff16021790555050565b600080600260009054906101000a900473ffffffffffffffffffffffffffffffffffffffff1673ffffffffffffffffffffffffffffffffffffffff1663fd47eda6846040518263ffffffff1660e01b8152600401610f609190612d8e565b60206040518083038186803b158015610f7857600080fd5b505afa158015610f8c573d6000803e3d6000fd5b505050506040513d601f19601f82011682018060405250610fb09190810190612870565b60000151905060006301e28500820290506000600260009054906101000a900473ffffffffffffffffffffffffffffffffffffffff1673ffffffffffffffffffffffffffffffffffffffff1663cb04a34c866040518263ffffffff1660e01b815260040161101e9190612d8e565b604080518083038186803b15801561103557600080fd5b505afa158015611049573d6000803e3d6000fd5b505050506040513d601f19601f8201168201806040525061106d9190810190612847565b600001516fffffffffffffffffffffffffffffffff1690506000600260009054906101000a900473ffffffffffffffffffffffffffffffffffffffff1673ffffffffffffffffffffffffffffffffffffffff1663cb04a34c876040518263ffffffff1660e01b81526004016110e29190612d8e565b604080518083038186803b1580156110f957600080fd5b505afa15801561110d573d6000803e3d6000fd5b505050506040513d601f19601f820116820180604052506111319190810190612847565b602001516fffffffffffffffffffffffffffffffff16905060008160015484028161115857fe5b0490506000600154600260009054906101000a900473ffffffffffffffffffffffffffffffffffffffff1673ffffffffffffffffffffffffffffffffffffffff1663e55202286040518163ffffffff1660e01b815260040160206040518083038186803b1580156111c857600080fd5b505afa1580156111dc573d6000803e3d6000fd5b505050506040513d601f19601f820116820180604052506112009190810190612870565b600001516001548488028161121157fe5b04028161121a57fe5b049050809650505050505050919050565b60006112be60648373ffffffffffffffffffffffffffffffffffffffff166309ec6b6b6040518163ffffffff1660e01b815260040160206040518083038186803b15801561127857600080fd5b505afa15801561128c573d6000803e3d6000fd5b505050506040513d601f19601f820116820180604052506112b091908101906128c2565b61219690919063ffffffff16565b9050919050565b60008060009054906101000a900473ffffffffffffffffffffffffffffffffffffffff16905090565b60008060009054906101000a900473ffffffffffffffffffffffffffffffffffffffff1673ffffffffffffffffffffffffffffffffffffffff1661133061239b565b73ffffffffffffffffffffffffffffffffffffffff1614905090565b600460009054906101000a900473ffffffffffffffffffffffffffffffffffffffff1681565b600080600360009054906101000a900473ffffffffffffffffffffffffffffffffffffffff1673ffffffffffffffffffffffffffffffffffffffff1663ed6ff7606040518163ffffffff1660e01b815260040160206040518083038186803b1580156113dd57600080fd5b505afa1580156113f1573d6000803e3d6000fd5b505050506040513d601f19601f820116820180604052506114159190810190612767565b905060008173ffffffffffffffffffffffffffffffffffffffff16636ae14416866040518263ffffffff1660e01b81526004016114529190612bf1565b60206040518083038186803b15801561146a57600080fd5b505afa15801561147e573d6000803e3d6000fd5b505050506040513d601f19601f820116820180604052506114a29190810190612767565b905060008173ffffffffffffffffffffffffffffffffffffffff166357e37af08761155e888773ffffffffffffffffffffffffffffffffffffffff1663e24030198c6040518263ffffffff1660e01b81526004016115009190612bf1565b60206040518083038186803b15801561151857600080fd5b505afa15801561152c573d6000803e3d6000fd5b505050506040513d601f19601f8201168201806040525061155091908101906128c2565b61225090919063ffffffff16565b8673ffffffffffffffffffffffffffffffffffffffff16637f90fec58b6040518263ffffffff1660e01b81526004016115979190612bf1565b60206040518083038186803b1580156115af57600080fd5b505afa1580156115c3573d6000803e3d6000fd5b505050506040513d601f19601f820116820180604052506115e791908101906128c2565b8773ffffffffffffffffffffffffffffffffffffffff166398bd47378c6040518263ffffffff1660e01b81526004016116209190612bf1565b60206040518083038186803b15801561163857600080fd5b505afa15801561164c573d6000803e3d6000fd5b505050506040513d601f19601f8201168201806040525061167091908101906128c2565b8873ffffffffffffffffffffffffffffffffffffffff166346bc0f288d6040518263ffffffff1660e01b81526004016116a99190612bf1565b60206040518083038186803b1580156116c157600080fd5b505afa1580156116d5573d6000803e3d6000fd5b505050506040513d601f19601f820116820180604052506116f991908101906128c2565b6040518663ffffffff1660e01b8152600401611719959493929190612c5e565b60606040518083038186803b15801561173157600080fd5b505afa158015611745573d6000803e3d6000fd5b505050506040513d601f19601f820116820180604052506117699190810190612963565b50509050611784633b9aca008261219690919063ffffffff16565b935050505092915050565b6117976112ee565b6117d6576040517f08c379a00000000000000000000000000000000000000000000000000000000081526004016117cd90612d6e565b60405180910390fd5b80600560006101000a81548173ffffffffffffffffffffffffffffffffffffffff021916908373ffffffffffffffffffffffffffffffffffffffff16021790555050565b600260009054906101000a900473ffffffffffffffffffffffffffffffffffffffff1681565b600080600460009054906101000a900473ffffffffffffffffffffffffffffffffffffffff1673ffffffffffffffffffffffffffffffffffffffff166343239e9b8460006040518363ffffffff1660e01b81526004016118a1929190612c35565b604080518083038186803b1580156118b857600080fd5b505afa1580156118cc573d6000803e3d6000fd5b505050506040513d601f19601f820116820180604052506118f09190810190612927565b91505080915050919050565b6119046112ee565b611943576040517f08c379a000000000000000000000000000000000000000000000000000000000815260040161193a90612d6e565b60405180910390fd5b61194c816123a3565b50565b6119576112ee565b611996576040517f08c379a000000000000000000000000000000000000000000000000000000000815260040161198d90612d6e565b60405180910390fd5b60003373ffffffffffffffffffffffffffffffffffffffff163073ffffffffffffffffffffffffffffffffffffffff16316040516119d390612bdc565b60006040518083038185875af1925050503d8060008114611a10576040519150601f19603f3d011682016040523d82523d6000602084013e611a15565b606091505b5050905080611a59576040517f08c379a0000000000000000000000000000000000000000000000000000000008152600401611a5090612d2e565b60405180910390fd5b50565b6000600360009054906101000a900473ffffffffffffffffffffffffffffffffffffffff1673ffffffffffffffffffffffffffffffffffffffff1663ed6ff7606040518163ffffffff1660e01b815260040160206040518083038186803b158015611ac657600080fd5b505afa158015611ada573d6000803e3d6000fd5b505050506040513d601f19601f82011682018060405250611afe9190810190612767565b905090565b60008083905060008473ffffffffffffffffffffffffffffffffffffffff1663f3fdb15a6040518163ffffffff1660e01b815260040160206040518083038186803b158015611b5157600080fd5b505afa158015611b65573d6000803e3d6000fd5b505050506040513d601f19601f82011682018060405250611b899190810190612767565b90506000611c1d858473ffffffffffffffffffffffffffffffffffffffff16633b1d21a26040518163ffffffff1660e01b815260040160206040518083038186803b158015611bd757600080fd5b505afa158015611beb573d6000803e3d6000fd5b505050506040513d601f19601f82011682018060405250611c0f91908101906128c2565b61225090919063ffffffff16565b9050611e4c622014808373ffffffffffffffffffffffffffffffffffffffff1663b8168816848773ffffffffffffffffffffffffffffffffffffffff166347bd37186040518163ffffffff1660e01b815260040160206040518083038186803b158015611c8957600080fd5b505afa158015611c9d573d6000803e3d6000fd5b505050506040513d601f19601f82011682018060405250611cc191908101906128c2565b611d518b8a73ffffffffffffffffffffffffffffffffffffffff16638f840ddd6040518163ffffffff1660e01b815260040160206040518083038186803b158015611d0b57600080fd5b505afa158015611d1f573d6000803e3d6000fd5b505050506040513d601f19601f82011682018060405250611d4391908101906128c2565b61225090919063ffffffff16565b8973ffffffffffffffffffffffffffffffffffffffff1663173b99046040518163ffffffff1660e01b815260040160206040518083038186803b158015611d9757600080fd5b505afa158015611dab573d6000803e3d6000fd5b505050506040513d601f19601f82011682018060405250611dcf91908101906128c2565b6040518563ffffffff1660e01b8152600401611dee9493929190612da9565b60206040518083038186803b158015611e0657600080fd5b505afa158015611e1a573d6000803e3d6000fd5b505050506040513d601f19601f82011682018060405250611e3e91908101906128c2565b6121e090919063ffffffff16565b935050505092915050565b600080600260009054906101000a900473ffffffffffffffffffffffffffffffffffffffff1673ffffffffffffffffffffffffffffffffffffffff1663fd47eda6856040518263ffffffff1660e01b8152600401611eb59190612d8e565b60206040518083038186803b158015611ecd57600080fd5b505afa158015611ee1573d6000803e3d6000fd5b505050506040513d601f19601f82011682018060405250611f059190810190612870565b60000151905060006301e28500820290506000600260009054906101000a900473ffffffffffffffffffffffffffffffffffffffff1673ffffffffffffffffffffffffffffffffffffffff1663cb04a34c876040518263ffffffff1660e01b8152600401611f739190612d8e565b604080518083038186803b158015611f8a57600080fd5b505afa158015611f9e573d6000803e3d6000fd5b505050506040513d601f19601f82011682018060405250611fc29190810190612847565b600001516fffffffffffffffffffffffffffffffff1690506000600260009054906101000a900473ffffffffffffffffffffffffffffffffffffffff1673ffffffffffffffffffffffffffffffffffffffff1663cb04a34c886040518263ffffffff1660e01b81526004016120379190612d8e565b604080518083038186803b15801561204e57600080fd5b505afa158015612062573d6000803e3d6000fd5b505050506040513d601f19601f820116820180604052506120869190810190612847565b602001516fffffffffffffffffffffffffffffffff1690506120b1868261225090919063ffffffff16565b90506000816001548402816120c257fe5b0490506000600154600260009054906101000a900473ffffffffffffffffffffffffffffffffffffffff1673ffffffffffffffffffffffffffffffffffffffff1663e55202286040518163ffffffff1660e01b815260040160206040518083038186803b15801561213257600080fd5b505afa158015612146573d6000803e3d6000fd5b505050506040513d601f19601f8201168201806040525061216a9190810190612870565b600001516001548488028161217b57fe5b04028161218457fe5b04905080965050505050505092915050565b60006121d883836040518060400160405280601a81526020017f536166654d6174683a206469766973696f6e206279207a65726f0000000000008152506124d1565b905092915050565b6000808314156121f3576000905061224a565b600082840290508284828161220457fe5b0414612245576040517f08c379a000000000000000000000000000000000000000000000000000000000815260040161223c90612d4e565b60405180910390fd5b809150505b92915050565b60008082840190508381101561229b576040517f08c379a000000000000000000000000000000000000000000000000000000000815260040161229290612d0e565b60405180910390fd5b8091505092915050565b6000670de0b6b3a7640000905090565b60006122e4670de0b6b3a76400006122d684866121e090919063ffffffff16565b61253290919063ffffffff16565b905092915050565b600061232e83836040518060400160405280601e81526020017f536166654d6174683a207375627472616374696f6e206f766572666c6f77000081525061256c565b905092915050565b6000670de0b6b3a764000061235483856121e090919063ffffffff16565b8161235b57fe5b04905092915050565b600061239382612385670de0b6b3a7640000866121e090919063ffffffff16565b61219690919063ffffffff16565b905092915050565b600033905090565b600073ffffffffffffffffffffffffffffffffffffffff168173ffffffffffffffffffffffffffffffffffffffff161415612413576040517f08c379a000000000000000000000000000000000000000000000000000000000815260040161240a90612cee565b60405180910390fd5b8073ffffffffffffffffffffffffffffffffffffffff166000809054906101000a900473ffffffffffffffffffffffffffffffffffffffff1673ffffffffffffffffffffffffffffffffffffffff167f8be0079c531659141344cd1fd0a4f28419497f9722a3daafe3b4186f6b6457e060405160405180910390a3806000806101000a81548173ffffffffffffffffffffffffffffffffffffffff021916908373ffffffffffffffffffffffffffffffffffffffff16021790555050565b60008083118290612518576040517f08c379a000000000000000000000000000000000000000000000000000000000815260040161250f9190612ccc565b60405180910390fd5b50600083858161252457fe5b049050809150509392505050565b60008061253f8484612196565b90506000838202850390506000811115612560576001820192505050612566565b81925050505b92915050565b60008383111582906125b4576040517f08c379a00000000000000000000000000000000000000000000000000000000081526004016125ab9190612ccc565b60405180910390fd5b5060008385039050809150509392505050565b6000813590506125d681612f44565b92915050565b6000815190506125eb81612f44565b92915050565b60008151905061260081612f5b565b92915050565b60008135905061261581612f72565b92915050565b60006060828403121561262d57600080fd5b6126376060612dee565b90506000612647848285016125dc565b600083015250602061265b848285016125dc565b602083015250604061266f848285016125dc565b60408301525092915050565b60006040828403121561268d57600080fd5b6126976040612dee565b905060006126a7848285016126ff565b60008301525060206126bb848285016126ff565b60208301525092915050565b6000602082840312156126d957600080fd5b6126e36020612dee565b905060006126f384828501612729565b60008301525092915050565b60008151905061270e81612f89565b92915050565b60008135905061272381612fa0565b92915050565b60008151905061273881612fa0565b92915050565b60006020828403121561275057600080fd5b600061275e848285016125c7565b91505092915050565b60006020828403121561277957600080fd5b6000612787848285016125dc565b91505092915050565b600080604083850312156127a357600080fd5b60006127b1858286016125c7565b92505060206127c285828601612714565b9150509250929050565b6000602082840312156127de57600080fd5b60006127ec848285016125f1565b91505092915050565b60006020828403121561280757600080fd5b600061281584828501612606565b91505092915050565b60006060828403121561283057600080fd5b600061283e8482850161261b565b91505092915050565b60006040828403121561285957600080fd5b60006128678482850161267b565b91505092915050565b60006020828403121561288257600080fd5b6000612890848285016126c7565b91505092915050565b6000602082840312156128ab57600080fd5b60006128b984828501612714565b91505092915050565b6000602082840312156128d457600080fd5b60006128e284828501612729565b91505092915050565b600080604083850312156128fe57600080fd5b600061290c85828601612714565b925050602061291d85828601612714565b9150509250929050565b6000806040838503121561293a57600080fd5b600061294885828601612729565b925050602061295985828601612729565b9150509250929050565b60008060006060848603121561297857600080fd5b600061298686828701612729565b935050602061299786828701612729565b92505060406129a886828701612729565b9150509250925092565b6129bb81612eb8565b82525050565b6129ca81612e42565b82525050565b6129d981612e54565b82525050565b6129e881612eca565b82525050565b60006129f982612e1b565b612a038185612e31565b9350612a13818560208601612f00565b612a1c81612f33565b840191505092915050565b6000612a34602683612e31565b91507f4f776e61626c653a206e6577206f776e657220697320746865207a65726f206160008301527f64647265737300000000000000000000000000000000000000000000000000006020830152604082019050919050565b6000612a9a601b83612e31565b91507f536166654d6174683a206164646974696f6e206f766572666c6f7700000000006000830152602082019050919050565b6000612ada601683612e31565b91507f7472616e73666572206f6620455448206661696c6564000000000000000000006000830152602082019050919050565b6000612b1a602183612e31565b91507f536166654d6174683a206d756c7469706c69636174696f6e206f766572666c6f60008301527f77000000000000000000000000000000000000000000000000000000000000006020830152604082019050919050565b6000612b80602083612e31565b91507f4f776e61626c653a2063616c6c6572206973206e6f7420746865206f776e65726000830152602082019050919050565b6000612bc0600083612e26565b9150600082019050919050565b612bd681612eae565b82525050565b6000612be782612bb3565b9150819050919050565b6000602082019050612c0660008301846129c1565b92915050565b6000604082019050612c2160008301856129b2565b612c2e6020830184612bcd565b9392505050565b6000604082019050612c4a60008301856129c1565b612c5760208301846129df565b9392505050565b600060a082019050612c7360008301886129c1565b612c806020830187612bcd565b612c8d6040830186612bcd565b612c9a6060830185612bcd565b612ca76080830184612bcd565b9695505050505050565b6000602082019050612cc660008301846129d0565b92915050565b60006020820190508181036000830152612ce681846129ee565b905092915050565b60006020820190508181036000830152612d0781612a27565b9050919050565b60006020820190508181036000830152612d2781612a8d565b9050919050565b60006020820190508181036000830152612d4781612acd565b9050919050565b60006020820190508181036000830152612d6781612b0d565b9050919050565b60006020820190508181036000830152612d8781612b73565b9050919050565b6000602082019050612da36000830184612bcd565b92915050565b6000608082019050612dbe6000830187612bcd565b612dcb6020830186612bcd565b612dd86040830185612bcd565b612de56060830184612bcd565b95945050505050565b6000604051905081810181811067ffffffffffffffff82111715612e1157600080fd5b8060405250919050565b600081519050919050565b600081905092915050565b600082825260208201905092915050565b6000612e4d82612e8e565b9050919050565b60008115159050919050565b6000612e6b82612e42565b9050919050565b60006fffffffffffffffffffffffffffffffff82169050919050565b600073ffffffffffffffffffffffffffffffffffffffff82169050919050565b6000819050919050565b6000612ec382612edc565b9050919050565b6000612ed582612eae565b9050919050565b6000612ee782612eee565b9050919050565b6000612ef982612e8e565b9050919050565b60005b83811015612f1e578082015181840152602081019050612f03565b83811115612f2d576000848401525b50505050565b6000601f19601f8301169050919050565b612f4d81612e42565b8114612f5857600080fd5b50565b612f6481612e54565b8114612f6f57600080fd5b50565b612f7b81612e60565b8114612f8657600080fd5b50565b612f9281612e72565b8114612f9d57600080fd5b50565b612fa981612eae565b8114612fb457600080fd5b5056fea365627a7a72315820ea5b7cec56138ad4d6dce22d9eabf02f9d21bf106236c981e53554cdc10fbec56c6578706572696d656e74616cf564736f6c634300050c0040",
  "source": "pragma solidity ^0.5.0;\r\npragma experimental ABIEncoderV2;\r\n\r\ninterface IERC20 {\r\n    function totalSupply() external view returns (uint256);\r\n    function balanceOf(address account) external view returns (uint256);\r\n    function transfer(address recipient, uint256 amount) external returns (bool);\r\n    function allowance(address owner, address spender) external view returns (uint256);\r\n    function approve(address spender, uint256 amount) external returns (bool);\r\n    function transferFrom(address sender, address recipient, uint256 amount) external returns (bool);\r\n    event Transfer(address indexed from, address indexed to, uint256 value);\r\n    event Approval(address indexed owner, address indexed spender, uint256 value);\r\n}\r\n\r\ncontract Context {\r\n    constructor () internal { }\r\n    // solhint-disable-previous-line no-empty-blocks\r\n\r\n    function _msgSender() internal view returns (address payable) {\r\n        return msg.sender;\r\n    }\r\n\r\n    function _msgData() internal view returns (bytes memory) {\r\n        this; // silence state mutability warning without generating bytecode - see https://github.com/ethereum/solidity/issues/2691\r\n        return msg.data;\r\n    }\r\n}\r\ncontract Ownable is Context {\r\n    address private _owner;\r\n\r\n    event OwnershipTransferred(address indexed previousOwner, address indexed newOwner);\r\n    constructor () internal {\r\n        _owner = _msgSender();\r\n        emit OwnershipTransferred(address(0), _owner);\r\n    }\r\n    function owner() public view returns (address) {\r\n        return _owner;\r\n    }\r\n    modifier onlyOwner() {\r\n        require(isOwner(), \"Ownable: caller is not the owner\");\r\n        _;\r\n    }\r\n    function isOwner() public view returns (bool) {\r\n        return _msgSender() == _owner;\r\n    }\r\n    function renounceOwnership() public onlyOwner {\r\n        emit OwnershipTransferred(_owner, address(0));\r\n        _owner = address(0);\r\n    }\r\n    function transferOwnership(address newOwner) public onlyOwner {\r\n        _transferOwnership(newOwner);\r\n    }\r\n    function _transferOwnership(address newOwner) internal {\r\n        require(newOwner != address(0), \"Ownable: new owner is the zero address\");\r\n        emit OwnershipTransferred(_owner, newOwner);\r\n        _owner = newOwner;\r\n    }\r\n}\r\n\r\nlibrary SafeMath {\r\n    function add(uint256 a, uint256 b) internal pure returns (uint256) {\r\n        uint256 c = a + b;\r\n        require(c >= a, \"SafeMath: addition overflow\");\r\n\r\n        return c;\r\n    }\r\n    function sub(uint256 a, uint256 b) internal pure returns (uint256) {\r\n        return sub(a, b, \"SafeMath: subtraction overflow\");\r\n    }\r\n    function sub(uint256 a, uint256 b, string memory errorMessage) internal pure returns (uint256) {\r\n        require(b <= a, errorMessage);\r\n        uint256 c = a - b;\r\n\r\n        return c;\r\n    }\r\n    function mul(uint256 a, uint256 b) internal pure returns (uint256) {\r\n        if (a == 0) {\r\n            return 0;\r\n        }\r\n\r\n        uint256 c = a * b;\r\n        require(c / a == b, \"SafeMath: multiplication overflow\");\r\n\r\n        return c;\r\n    }\r\n    function div(uint256 a, uint256 b) internal pure returns (uint256) {\r\n        return div(a, b, \"SafeMath: division by zero\");\r\n    }\r\n    function div(uint256 a, uint256 b, string memory errorMessage) internal pure returns (uint256) {\r\n        require(b > 0, errorMessage);\r\n        uint256 c = a / b;\r\n\r\n        return c;\r\n    }\r\n    function divCeil(\r\n        uint256 a,\r\n        uint256 b\r\n    )\r\n        internal\r\n        pure\r\n        returns (uint256)\r\n    {\r\n        uint256 quotient = div(a, b);\r\n        uint256 remainder = a - quotient * b;\r\n        if (remainder > 0) {\r\n            return quotient + 1;\r\n        } else {\r\n            return quotient;\r\n        }\r\n    }\r\n    function mod(uint256 a, uint256 b) internal pure returns (uint256) {\r\n        return mod(a, b, \"SafeMath: modulo by zero\");\r\n    }\r\n    function mod(uint256 a, uint256 b, string memory errorMessage) internal pure returns (uint256) {\r\n        require(b != 0, errorMessage);\r\n        return a % b;\r\n    }\r\n}\r\n\r\nlibrary Decimal {\r\n    using SafeMath for uint256;\r\n\r\n    uint256 constant BASE = 10**18;\r\n\r\n    function one()\r\n        internal\r\n        pure\r\n        returns (uint256)\r\n    {\r\n        return BASE;\r\n    }\r\n\r\n    function onePlus(\r\n        uint256 d\r\n    )\r\n        internal\r\n        pure\r\n        returns (uint256)\r\n    {\r\n        return d.add(BASE);\r\n    }\r\n\r\n    function mulFloor(\r\n        uint256 target,\r\n        uint256 d\r\n    )\r\n        internal\r\n        pure\r\n        returns (uint256)\r\n    {\r\n        return target.mul(d) / BASE;\r\n    }\r\n\r\n    function mulCeil(\r\n        uint256 target,\r\n        uint256 d\r\n    )\r\n        internal\r\n        pure\r\n        returns (uint256)\r\n    {\r\n        return target.mul(d).divCeil(BASE);\r\n    }\r\n\r\n    function divFloor(\r\n        uint256 target,\r\n        uint256 d\r\n    )\r\n        internal\r\n        pure\r\n        returns (uint256)\r\n    {\r\n        return target.mul(BASE).div(d);\r\n    }\r\n\r\n    function divCeil(\r\n        uint256 target,\r\n        uint256 d\r\n    )\r\n        internal\r\n        pure\r\n        returns (uint256)\r\n    {\r\n        return target.mul(BASE).divCeil(d);\r\n    }\r\n}\r\n\r\nlibrary Address {\r\n    function isContract(address account) internal view returns (bool) {\r\n        bytes32 codehash;\r\n        bytes32 accountHash = 0xc5d2460186f7233c927e7db2dcc703c0e500b653ca82273b7bfad8045d85a470;\r\n        // solhint-disable-next-line no-inline-assembly\r\n        assembly { codehash := extcodehash(account) }\r\n        return (codehash != 0x0 && codehash != accountHash);\r\n    }\r\n    function toPayable(address account) internal pure returns (address payable) {\r\n        return address(uint160(account));\r\n    }\r\n    function sendValue(address payable recipient, uint256 amount) internal {\r\n        require(address(this).balance >= amount, \"Address: insufficient balance\");\r\n\r\n        // solhint-disable-next-line avoid-call-value\r\n        (bool success, ) = recipient.call.value(amount)(\"\");\r\n        require(success, \"Address: unable to send value, recipient may have reverted\");\r\n    }\r\n}\r\n\r\n// Compound\r\ninterface Compound {\r\n  function interestRateModel() external view returns (address);\r\n  function reserveFactorMantissa() external view returns (uint256);\r\n  function totalBorrows() external view returns (uint256);\r\n  function totalReserves() external view returns (uint256);\r\n\r\n  function supplyRatePerBlock() external view returns (uint);\r\n  function getCash() external view returns (uint256);\r\n}\r\n\r\n// Fulcrum\r\ninterface Fulcrum {\r\n  function supplyInterestRate() external view returns (uint256);\r\n  function nextSupplyInterestRate(uint256 supplyAmount) external view returns (uint256);\r\n}\r\n\r\ninterface DyDx {\r\n  struct val {\r\n       uint256 value;\r\n   }\r\n\r\n   struct set {\r\n      uint128 borrow;\r\n      uint128 supply;\r\n  }\r\n\r\n  function getEarningsRate() external view returns (val memory);\r\n  function getMarketInterestRate(uint256 marketId) external view returns (val memory);\r\n  function getMarketTotalPar(uint256 marketId) external view returns (set memory);\r\n}\r\n\r\ninterface LendingPoolAddressesProvider {\r\n    function getLendingPoolCore() external view returns (address);\r\n}\r\n\r\ninterface LendingPoolCore  {\r\n  function getReserveCurrentLiquidityRate(address _reserve)\r\n  external\r\n  view\r\n  returns (\r\n      uint256 liquidityRate\r\n  );\r\n  function getReserveInterestRateStrategyAddress(address _reserve) external view returns (address);\r\n  function getReserveTotalBorrows(address _reserve) external view returns (uint256);\r\n  function getReserveTotalBorrowsStable(address _reserve) external view returns (uint256);\r\n  function getReserveTotalBorrowsVariable(address _reserve) external view returns (uint256);\r\n  function getReserveCurrentAverageStableBorrowRate(address _reserve)\r\n     external\r\n     view\r\n     returns (uint256);\r\n  function getReserveAvailableLiquidity(address _reserve) external view returns (uint256);\r\n}\r\n\r\ninterface IReserveInterestRateStrategy {\r\n\r\n    function getBaseVariableBorrowRate() external view returns (uint256);\r\n    function calculateInterestRates(\r\n        address _reserve,\r\n        uint256 _utilizationRate,\r\n        uint256 _totalBorrowsStable,\r\n        uint256 _totalBorrowsVariable,\r\n        uint256 _averageStableBorrowRate)\r\n    external\r\n    view\r\n    returns (uint256 liquidityRate, uint256 stableBorrowRate, uint256 variableBorrowRate);\r\n}\r\n\r\ninterface InterestRateModel {\r\n  function getSupplyRate(uint cash, uint borrows, uint reserves, uint reserveFactorMantissa) external view returns (uint);\r\n}\r\n\r\ncontract Structs {\r\n  struct Asset {\r\n    address lendingPool;\r\n    address priceOralce;\r\n    address interestModel;\r\n  }\r\n}\r\n\r\ncontract IDDEX is Structs {\r\n\r\n  function getInterestRates(address token, uint256 extraBorrowAmount)\r\n    external\r\n    view\r\n    returns (uint256 borrowInterestRate, uint256 supplyInterestRate);\r\n  function getIndex(address token)\r\n    external\r\n    view\r\n    returns (uint256 supplyIndex, uint256 borrowIndex);\r\n  function getTotalSupply(address asset)\r\n    external\r\n    view\r\n    returns (uint256 amount);\r\n  function getTotalBorrow(address asset)\r\n    external\r\n    view\r\n    returns (uint256 amount);\r\n  function getAsset(address token)\r\n    external\r\n    view returns (Asset memory asset);\r\n}\r\n\r\ninterface IDDEXModel {\r\n  function polynomialInterestModel(uint256 borrowRatio) external view returns (uint256);\r\n}\r\n\r\ninterface ILendF {\r\n  function getSupplyBalance(address account, address token)\r\n    external\r\n    view\r\n    returns (uint256);\r\n  function supplyBalances(address account, address token)\r\n    external\r\n    view\r\n    returns (uint256 principal, uint256 interestIndex);\r\n  function supply(address asset, uint256 amount) external;\r\n  function withdraw(address asset, uint256 amount) external;\r\n  function markets(address asset) external view returns (\r\n    bool isSupported,\r\n    uint256 blockNumber,\r\n    address interestRateModel,\r\n    uint256 totalSupply,\r\n    uint256 supplyRateMantissa,\r\n    uint256 supplyIndex,\r\n    uint256 totalBorrows,\r\n    uint256 borrowRateMantissa,\r\n    uint256 borrowIndex\r\n  );\r\n}\r\n\r\n\r\n\r\ncontract APRWithPoolOracle is Ownable, Structs {\r\n  using SafeMath for uint256;\r\n  using Address for address;\r\n\r\n  uint256 DECIMAL = 10 ** 18;\r\n\r\n  // MAINNET ADDRESSES\r\n  address public DYDX;\r\n  address public AAVE;\r\n  address public DDEX;\r\n  address public LENDF;\r\n\r\n  constructor() public {\r\n    DYDX = address(0x1E0447b19BB6EcFdAe1e4AE1694b0C3659614e4e);\r\n    AAVE = address(0x24a42fD28C976A61Df5D00D0599C34c4f90748c8);\r\n    DDEX = address(0x241e82C79452F51fbfc89Fac6d912e021dB1a3B7);\r\n    LENDF = address(0x0eEe3E3828A45f7601D5F54bF49bB01d1A9dF5ea);\r\n\r\n  }\r\n\r\n  function set_new_AAVE(address _new_AAVE) public onlyOwner {\r\n      AAVE = _new_AAVE;\r\n  }\r\n  function set_new_DDEX(address _new_DDEX) public onlyOwner {\r\n      DDEX = _new_DDEX;\r\n  }\r\n  function set_new_DYDX(address _new_DYDX) public onlyOwner {\r\n      DYDX = _new_DYDX;\r\n  }\r\n  function set_new_LENDF(address _new_LENDF) public onlyOwner {\r\n      LENDF = _new_LENDF;\r\n  }\r\n\r\n  function getDDEXAPR(address token) public view returns (uint256) {\r\n    (,uint256 supplyRate) = IDDEX(DDEX).getInterestRates(token, 0);\r\n    return supplyRate;\r\n  }\r\n\r\n  function getDDEXAPRAdjusted(address token, uint256 _supply) public view returns (uint256) {\r\n    uint256 supply = IDDEX(DDEX).getTotalSupply(token).add(_supply);\r\n    uint256 borrow = IDDEX(DDEX).getTotalBorrow(token);\r\n    uint256 borrowRatio = borrow.mul(Decimal.one()).div(supply);\r\n    address interestRateModel = IDDEX(DDEX).getAsset(token).interestModel;\r\n    uint256 borrowRate = IDDEXModel(interestRateModel).polynomialInterestModel(borrowRatio);\r\n    uint256 borrowInterest = Decimal.mulCeil(borrow, borrowRate);\r\n    uint256 supplyInterest = Decimal.mulFloor(borrowInterest, Decimal.one().sub(12185788407877));\r\n    return Decimal.divFloor(supplyInterest, _supply);\r\n  }\r\n\r\n  function getCompoundAPR(address token) public view returns (uint256) {\r\n      return Compound(token).supplyRatePerBlock().mul(2102400);\r\n  }\r\n\r\n  function getCompoundAPRAdjusted(address token, uint256 _supply) public view returns (uint256) {\r\n    //interestRateModel.getSupplyRate(getCashPrior(), totalBorrows, totalReserves, reserveFactorMantissa);\r\n    Compound c = Compound(token);\r\n    InterestRateModel i = InterestRateModel(Compound(token).interestRateModel());\r\n    uint256 cashPrior = c.getCash().add(_supply);\r\n\r\n    return i.getSupplyRate(cashPrior, c.totalBorrows(), c.totalReserves().add(_supply), c.reserveFactorMantissa()).mul(2102400);\r\n  }\r\n\r\n  function getFulcrumAPR(address token) public view returns(uint256) {\r\n    return Fulcrum(token).supplyInterestRate().div(100);\r\n  }\r\n  function getFulcrumAPRAdjusted(address token, uint256 _supply) public view returns(uint256) {\r\n    return Fulcrum(token).nextSupplyInterestRate(_supply).div(100);\r\n  }\r\n\r\n  function getDyDxAPR(uint256 marketId) public view returns(uint256) {\r\n    uint256 rate      = DyDx(DYDX).getMarketInterestRate(marketId).value;\r\n    uint256 aprBorrow = rate * 31622400;\r\n    uint256 borrow    = DyDx(DYDX).getMarketTotalPar(marketId).borrow;\r\n    uint256 supply    = DyDx(DYDX).getMarketTotalPar(marketId).supply;\r\n    uint256 usage     = (borrow * DECIMAL) / supply;\r\n    uint256 apr       = (((aprBorrow * usage) / DECIMAL) * DyDx(DYDX).getEarningsRate().value) / DECIMAL;\r\n    return apr;\r\n  }\r\n\r\n  function getDyDxAPRAdjusted(uint256 marketId, uint256 _supply) public view returns(uint256) {\r\n    uint256 rate      = DyDx(DYDX).getMarketInterestRate(marketId).value;\r\n    uint256 aprBorrow = rate * 31622400;\r\n    uint256 borrow    = DyDx(DYDX).getMarketTotalPar(marketId).borrow;\r\n    uint256 supply    = DyDx(DYDX).getMarketTotalPar(marketId).supply;\r\n    supply = supply.add(_supply);\r\n    uint256 usage     = (borrow * DECIMAL) / supply;\r\n    uint256 apr       = (((aprBorrow * usage) / DECIMAL) * DyDx(DYDX).getEarningsRate().value) / DECIMAL;\r\n    return apr;\r\n  }\r\n\r\n  function getAaveCore() public view returns (address) {\r\n    return address(LendingPoolAddressesProvider(AAVE).getLendingPoolCore());\r\n  }\r\n\r\n  function getAaveAPR(address token) public view returns (uint256) {\r\n    LendingPoolCore core = LendingPoolCore(LendingPoolAddressesProvider(AAVE).getLendingPoolCore());\r\n    return core.getReserveCurrentLiquidityRate(token).div(1e9);\r\n  }\r\n\r\n  function getAaveAPRAdjusted(address token, uint256 _supply) public view returns (uint256) {\r\n    LendingPoolCore core = LendingPoolCore(LendingPoolAddressesProvider(AAVE).getLendingPoolCore());\r\n    IReserveInterestRateStrategy apr = IReserveInterestRateStrategy(core.getReserveInterestRateStrategyAddress(token));\r\n    (uint256 newLiquidityRate,,) = apr.calculateInterestRates(\r\n      token,\r\n      core.getReserveAvailableLiquidity(token).add(_supply),\r\n      core.getReserveTotalBorrowsStable(token),\r\n      core.getReserveTotalBorrowsVariable(token),\r\n      core.getReserveCurrentAverageStableBorrowRate(token)\r\n    );\r\n\r\n    return newLiquidityRate.div(1e9);\r\n  }\r\n\r\n  // incase of half-way error\r\n  function inCaseTokenGetsStuck(IERC20 _TokenAddress) onlyOwner public {\r\n      uint qty = _TokenAddress.balanceOf(address(this));\r\n      _TokenAddress.transfer(msg.sender, qty);\r\n  }\r\n  // incase of half-way error\r\n  function inCaseETHGetsStuck() onlyOwner public{\r\n      (bool result, ) = msg.sender.call.value(address(this).balance)(\"\");\r\n      require(result, \"transfer of ETH failed\");\r\n  }\r\n}\r\n",
  "sourcePath": "D:/ftm/apr-oracle/contracts/APRWithPoolOracle.sol",
  "compiler": {
    "name": "solc",
    "version": "0.5.12+commit.7709ece9.Emscripten.clang"
  },
  "schemaVersion": "3.0.19",
  "updatedAt": "2020-02-03T06:27:53.452Z",
  "devdoc": {
    "methods": {}
  },
  "userdoc": {
    "methods": {}
  }
}