{
  "contractName": "APRWithPoolOracle",
  "abi": [
    {
      "inputs": [],
      "payable": false,
      "stateMutability": "nonpayable",
      "type": "constructor"
    },
    {
      "anonymous": false,
      "inputs": [
        {
          "indexed": true,
          "internalType": "address",
          "name": "previousOwner",
          "type": "address"
        },
        {
          "indexed": true,
          "internalType": "address",
          "name": "newOwner",
          "type": "address"
        }
      ],
      "name": "OwnershipTransferred",
      "type": "event"
    },
    {
      "constant": true,
      "inputs": [],
      "name": "AAVE",
      "outputs": [
        {
          "internalType": "address",
          "name": "",
          "type": "address"
        }
      ],
      "payable": false,
      "stateMutability": "view",
      "type": "function"
    },
    {
      "constant": true,
      "inputs": [],
      "name": "DDEX",
      "outputs": [
        {
          "internalType": "address",
          "name": "",
          "type": "address"
        }
      ],
      "payable": false,
      "stateMutability": "view",
      "type": "function"
    },
    {
      "constant": true,
      "inputs": [],
      "name": "DYDX",
      "outputs": [
        {
          "internalType": "address",
          "name": "",
          "type": "address"
        }
      ],
      "payable": false,
      "stateMutability": "view",
      "type": "function"
    },
    {
      "constant": true,
      "inputs": [],
      "name": "LENDF",
      "outputs": [
        {
          "internalType": "address",
          "name": "",
          "type": "address"
        }
      ],
      "payable": false,
      "stateMutability": "view",
      "type": "function"
    },
    {
      "constant": true,
      "inputs": [],
      "name": "isOwner",
      "outputs": [
        {
          "internalType": "bool",
          "name": "",
          "type": "bool"
        }
      ],
      "payable": false,
      "stateMutability": "view",
      "type": "function"
    },
    {
      "constant": true,
      "inputs": [],
      "name": "liquidationRatio",
      "outputs": [
        {
          "internalType": "uint256",
          "name": "",
          "type": "uint256"
        }
      ],
      "payable": false,
      "stateMutability": "view",
      "type": "function"
    },
    {
      "constant": true,
      "inputs": [],
      "name": "owner",
      "outputs": [
        {
          "internalType": "address",
          "name": "",
          "type": "address"
        }
      ],
      "payable": false,
      "stateMutability": "view",
      "type": "function"
    },
    {
      "constant": false,
      "inputs": [],
      "name": "renounceOwnership",
      "outputs": [],
      "payable": false,
      "stateMutability": "nonpayable",
      "type": "function"
    },
    {
      "constant": false,
      "inputs": [
        {
          "internalType": "address",
          "name": "newOwner",
          "type": "address"
        }
      ],
      "name": "transferOwnership",
      "outputs": [],
      "payable": false,
      "stateMutability": "nonpayable",
      "type": "function"
    },
    {
      "constant": false,
      "inputs": [
        {
          "internalType": "address",
          "name": "_new_AAVE",
          "type": "address"
        }
      ],
      "name": "set_new_AAVE",
      "outputs": [],
      "payable": false,
      "stateMutability": "nonpayable",
      "type": "function"
    },
    {
      "constant": false,
      "inputs": [
        {
          "internalType": "address",
          "name": "_new_DDEX",
          "type": "address"
        }
      ],
      "name": "set_new_DDEX",
      "outputs": [],
      "payable": false,
      "stateMutability": "nonpayable",
      "type": "function"
    },
    {
      "constant": false,
      "inputs": [
        {
          "internalType": "address",
          "name": "_new_DYDX",
          "type": "address"
        }
      ],
      "name": "set_new_DYDX",
      "outputs": [],
      "payable": false,
      "stateMutability": "nonpayable",
      "type": "function"
    },
    {
      "constant": false,
      "inputs": [
        {
          "internalType": "address",
          "name": "_new_LENDF",
          "type": "address"
        }
      ],
      "name": "set_new_LENDF",
      "outputs": [],
      "payable": false,
      "stateMutability": "nonpayable",
      "type": "function"
    },
    {
      "constant": false,
      "inputs": [
        {
          "internalType": "uint256",
          "name": "_new_Ratio",
          "type": "uint256"
        }
      ],
      "name": "set_new_Ratio",
      "outputs": [],
      "payable": false,
      "stateMutability": "nonpayable",
      "type": "function"
    },
    {
      "constant": true,
      "inputs": [
        {
          "internalType": "address",
          "name": "token",
          "type": "address"
        }
      ],
      "name": "getLENDFAPR",
      "outputs": [
        {
          "internalType": "uint256",
          "name": "",
          "type": "uint256"
        }
      ],
      "payable": false,
      "stateMutability": "view",
      "type": "function"
    },
    {
      "constant": true,
      "inputs": [
        {
          "internalType": "address",
          "name": "token",
          "type": "address"
        },
        {
          "internalType": "uint256",
          "name": "supply",
          "type": "uint256"
        }
      ],
      "name": "getLENDFAPRAdjusted",
      "outputs": [
        {
          "internalType": "uint256",
          "name": "",
          "type": "uint256"
        }
      ],
      "payable": false,
      "stateMutability": "view",
      "type": "function"
    },
    {
      "constant": true,
      "inputs": [
        {
          "internalType": "address",
          "name": "token",
          "type": "address"
        }
      ],
      "name": "getDDEXAPR",
      "outputs": [
        {
          "internalType": "uint256",
          "name": "",
          "type": "uint256"
        }
      ],
      "payable": false,
      "stateMutability": "view",
      "type": "function"
    },
    {
      "constant": true,
      "inputs": [
        {
          "internalType": "address",
          "name": "token",
          "type": "address"
        },
        {
          "internalType": "uint256",
          "name": "_supply",
          "type": "uint256"
        }
      ],
      "name": "getDDEXAPRAdjusted",
      "outputs": [
        {
          "internalType": "uint256",
          "name": "",
          "type": "uint256"
        }
      ],
      "payable": false,
      "stateMutability": "view",
      "type": "function"
    },
    {
      "constant": true,
      "inputs": [
        {
          "internalType": "address",
          "name": "token",
          "type": "address"
        }
      ],
      "name": "getCompoundAPR",
      "outputs": [
        {
          "internalType": "uint256",
          "name": "",
          "type": "uint256"
        }
      ],
      "payable": false,
      "stateMutability": "view",
      "type": "function"
    },
    {
      "constant": true,
      "inputs": [
        {
          "internalType": "address",
          "name": "token",
          "type": "address"
        },
        {
          "internalType": "uint256",
          "name": "_supply",
          "type": "uint256"
        }
      ],
      "name": "getCompoundAPRAdjusted",
      "outputs": [
        {
          "internalType": "uint256",
          "name": "",
          "type": "uint256"
        }
      ],
      "payable": false,
      "stateMutability": "view",
      "type": "function"
    },
    {
      "constant": true,
      "inputs": [
        {
          "internalType": "address",
          "name": "token",
          "type": "address"
        }
      ],
      "name": "getFulcrumAPR",
      "outputs": [
        {
          "internalType": "uint256",
          "name": "",
          "type": "uint256"
        }
      ],
      "payable": false,
      "stateMutability": "view",
      "type": "function"
    },
    {
      "constant": true,
      "inputs": [
        {
          "internalType": "address",
          "name": "token",
          "type": "address"
        },
        {
          "internalType": "uint256",
          "name": "_supply",
          "type": "uint256"
        }
      ],
      "name": "getFulcrumAPRAdjusted",
      "outputs": [
        {
          "internalType": "uint256",
          "name": "",
          "type": "uint256"
        }
      ],
      "payable": false,
      "stateMutability": "view",
      "type": "function"
    },
    {
      "constant": true,
      "inputs": [
        {
          "internalType": "uint256",
          "name": "marketId",
          "type": "uint256"
        }
      ],
      "name": "getDyDxAPR",
      "outputs": [
        {
          "internalType": "uint256",
          "name": "",
          "type": "uint256"
        }
      ],
      "payable": false,
      "stateMutability": "view",
      "type": "function"
    },
    {
      "constant": true,
      "inputs": [
        {
          "internalType": "uint256",
          "name": "marketId",
          "type": "uint256"
        },
        {
          "internalType": "uint256",
          "name": "_supply",
          "type": "uint256"
        }
      ],
      "name": "getDyDxAPRAdjusted",
      "outputs": [
        {
          "internalType": "uint256",
          "name": "",
          "type": "uint256"
        }
      ],
      "payable": false,
      "stateMutability": "view",
      "type": "function"
    },
    {
      "constant": true,
      "inputs": [],
      "name": "getAaveCore",
      "outputs": [
        {
          "internalType": "address",
          "name": "",
          "type": "address"
        }
      ],
      "payable": false,
      "stateMutability": "view",
      "type": "function"
    },
    {
      "constant": true,
      "inputs": [
        {
          "internalType": "address",
          "name": "token",
          "type": "address"
        }
      ],
      "name": "getAaveAPR",
      "outputs": [
        {
          "internalType": "uint256",
          "name": "",
          "type": "uint256"
        }
      ],
      "payable": false,
      "stateMutability": "view",
      "type": "function"
    },
    {
      "constant": true,
      "inputs": [
        {
          "internalType": "address",
          "name": "token",
          "type": "address"
        },
        {
          "internalType": "uint256",
          "name": "_supply",
          "type": "uint256"
        }
      ],
      "name": "getAaveAPRAdjusted",
      "outputs": [
        {
          "internalType": "uint256",
          "name": "",
          "type": "uint256"
        }
      ],
      "payable": false,
      "stateMutability": "view",
      "type": "function"
    },
    {
      "constant": false,
      "inputs": [
        {
          "internalType": "contract IERC20",
          "name": "_TokenAddress",
          "type": "address"
        }
      ],
      "name": "inCaseTokenGetsStuck",
      "outputs": [],
      "payable": false,
      "stateMutability": "nonpayable",
      "type": "function"
    },
    {
      "constant": false,
      "inputs": [],
      "name": "inCaseETHGetsStuck",
      "outputs": [],
      "payable": false,
      "stateMutability": "nonpayable",
      "type": "function"
    }
  ],
  "bytecode": "0x6080604052670de0b6b3a76400006001553480156200001d57600080fd5b506200002e6200025160201b60201c565b6000806101000a81548173ffffffffffffffffffffffffffffffffffffffff021916908373ffffffffffffffffffffffffffffffffffffffff1602179055506000809054906101000a900473ffffffffffffffffffffffffffffffffffffffff1673ffffffffffffffffffffffffffffffffffffffff16600073ffffffffffffffffffffffffffffffffffffffff167f8be0079c531659141344cd1fd0a4f28419497f9722a3daafe3b4186f6b6457e060405160405180910390a3731e0447b19bb6ecfdae1e4ae1694b0c3659614e4e600260006101000a81548173ffffffffffffffffffffffffffffffffffffffff021916908373ffffffffffffffffffffffffffffffffffffffff1602179055507324a42fd28c976a61df5d00d0599c34c4f90748c8600360006101000a81548173ffffffffffffffffffffffffffffffffffffffff021916908373ffffffffffffffffffffffffffffffffffffffff16021790555073241e82c79452f51fbfc89fac6d912e021db1a3b7600460006101000a81548173ffffffffffffffffffffffffffffffffffffffff021916908373ffffffffffffffffffffffffffffffffffffffff160217905550730eee3e3828a45f7601d5f54bf49bb01d1a9df5ea600560006101000a81548173ffffffffffffffffffffffffffffffffffffffff021916908373ffffffffffffffffffffffffffffffffffffffff16021790555066b1a2bc2ec5000060068190555062000259565b600033905090565b6138d680620002696000396000f3fe608060405234801561001057600080fd5b50600436106101cf5760003560e01c8063812adb0611610104578063ae600c45116100a2578063f60a15ed11610071578063f60a15ed14610554578063f82ce27d1461055e578063fb73c8321461057c578063fcc01c7b146105ac576101cf565b8063ae600c45146104ce578063c043fca2146104ea578063ddf1084214610508578063f2fde38b14610538576101cf565b80638da5cb5b116100de5780638da5cb5b146104445780638f32d59b1461046257806390ece0de14610480578063989eaa9c1461049e576101cf565b8063812adb06146103c857806381d24d8d146103e457806383deca3d14610414576101cf565b806348ccda3c116101715780636d5ccd181161014b5780636d5ccd1814610354578063715018a61461037257806373824dae1461037c57806376852893146103ac576101cf565b806348ccda3c146102d65780634eff75d8146102f45780634f5dd96914610324576101cf565b80632a71abe3116101ad5780632a71abe3146102525780632c7a5ae41461026e5780632e8d6e181461028a57806344e258b4146102a6576101cf565b80630e775fd5146101d45780631775765f14610204578063192a986114610222575b600080fd5b6101ee60048036036101e99190810190612f6f565b6105dc565b6040516101fb919061366a565b60405180910390f35b61020c61089f565b604051610219919061366a565b60405180910390f35b61023c60048036036102379190810190612f1d565b6108a5565b604051610249919061366a565b60405180910390f35b61026c6004803603610267919081019061313e565b6109f1565b005b61028860048036036102839190810190612f1d565b610a42565b005b6102a4600480360361029f919081019061309a565b610acd565b005b6102c060048036036102bb9190810190612f1d565b610c33565b6040516102cd919061366a565b60405180910390f35b6102de610ccf565b6040516102eb9190613496565b60405180910390f35b61030e60048036036103099190810190612f6f565b610cf5565b60405161031b919061366a565b60405180910390f35b61033e60048036036103399190810190612f1d565b610d9b565b60405161034b919061366a565b60405180910390f35b61035c610e72565b6040516103699190613496565b60405180910390f35b61037a610e98565b005b61039660048036036103919190810190612f6f565b610f9e565b6040516103a3919061366a565b60405180910390f35b6103c660048036036103c19190810190612f1d565b6113e1565b005b6103e260048036036103dd9190810190612f1d565b61146c565b005b6103fe60048036036103f9919081019061313e565b6114f7565b60405161040b919061366a565b60405180910390f35b61042e60048036036104299190810190612f1d565b611820565b60405161043b919061366a565b60405180910390f35b61044c6118ba565b6040516104599190613496565b60405180910390f35b61046a6118e3565b604051610477919061358d565b60405180910390f35b610488611941565b6040516104959190613496565b60405180910390f35b6104b860048036036104b39190810190612f6f565b611967565b6040516104c5919061366a565b60405180910390f35b6104e860048036036104e39190810190612f1d565b611d84565b005b6104f2611e0f565b6040516104ff9190613496565b60405180910390f35b610522600480360361051d9190810190612f1d565b611e35565b60405161052f919061366a565b60405180910390f35b610552600480360361054d9190810190612f1d565b612003565b005b61055c612056565b005b610566612163565b6040516105739190613496565b60405180910390f35b61059660048036036105919190810190612f6f565b61220a565b6040516105a3919061366a565b60405180910390f35b6105c660048036036105c19190810190613190565b612636565b6040516105d3919061366a565b60405180910390f35b600073eeeeeeeeeeeeeeeeeeeeeeeeeeeeeeeeeeeeeeee73ffffffffffffffffffffffffffffffffffffffff168373ffffffffffffffffffffffffffffffffffffffff16141561062f5760009050610899565b60006106ee838573ffffffffffffffffffffffffffffffffffffffff166370a08231600560009054906101000a900473ffffffffffffffffffffffffffffffffffffffff166040518263ffffffff1660e01b81526004016106909190613496565b60206040518083038186803b1580156106a857600080fd5b505afa1580156106bc573d6000803e3d6000fd5b505050506040513d601f19601f820116820180604052506106e09190810190613167565b61297590919063ffffffff16565b9050600080600560009054906101000a900473ffffffffffffffffffffffffffffffffffffffff1673ffffffffffffffffffffffffffffffffffffffff16638e8f294b876040518263ffffffff1660e01b815260040161074e9190613496565b6101206040518083038186803b15801561076757600080fd5b505afa15801561077b573d6000803e3d6000fd5b505050506040513d601f19601f8201168201806040525061079f9190810190612fd4565b5050965050505093505050600073ffffffffffffffffffffffffffffffffffffffff168273ffffffffffffffffffffffffffffffffffffffff1614156107eb5760009350505050610899565b60008273ffffffffffffffffffffffffffffffffffffffff1663517cf73e8886856040518463ffffffff1660e01b815260040161082a93929190613503565b604080518083038186803b15801561084157600080fd5b505afa158015610855573d6000803e3d6000fd5b505050506040513d601f19601f8201168201806040525061087991908101906131cc565b91505061089262201480826129ca90919063ffffffff16565b9450505050505b92915050565b60065481565b600080600360009054906101000a900473ffffffffffffffffffffffffffffffffffffffff1673ffffffffffffffffffffffffffffffffffffffff1663ed6ff7606040518163ffffffff1660e01b815260040160206040518083038186803b15801561091057600080fd5b505afa158015610924573d6000803e3d6000fd5b505050506040513d601f19601f820116820180604052506109489190810190612f46565b90506109e9633b9aca008273ffffffffffffffffffffffffffffffffffffffff1663c540148e866040518263ffffffff1660e01b815260040161098b9190613496565b60206040518083038186803b1580156109a357600080fd5b505afa1580156109b7573d6000803e3d6000fd5b505050506040513d601f19601f820116820180604052506109db9190810190613167565b612a3a90919063ffffffff16565b915050919050565b6109f96118e3565b610a38576040517f08c379a0000000000000000000000000000000000000000000000000000000008152600401610a2f9061364a565b60405180910390fd5b8060068190555050565b610a4a6118e3565b610a89576040517f08c379a0000000000000000000000000000000000000000000000000000000008152600401610a809061364a565b60405180910390fd5b80600260006101000a81548173ffffffffffffffffffffffffffffffffffffffff021916908373ffffffffffffffffffffffffffffffffffffffff16021790555050565b610ad56118e3565b610b14576040517f08c379a0000000000000000000000000000000000000000000000000000000008152600401610b0b9061364a565b60405180910390fd5b60008173ffffffffffffffffffffffffffffffffffffffff166370a08231306040518263ffffffff1660e01b8152600401610b4f9190613496565b60206040518083038186803b158015610b6757600080fd5b505afa158015610b7b573d6000803e3d6000fd5b505050506040513d601f19601f82011682018060405250610b9f9190810190613167565b90508173ffffffffffffffffffffffffffffffffffffffff1663a9059cbb33836040518363ffffffff1660e01b8152600401610bdc9291906134b1565b602060405180830381600087803b158015610bf657600080fd5b505af1158015610c0a573d6000803e3d6000fd5b505050506040513d601f19601f82011682018060405250610c2e9190810190612fab565b505050565b6000610cc8622014808373ffffffffffffffffffffffffffffffffffffffff1663ae9d70b06040518163ffffffff1660e01b815260040160206040518083038186803b158015610c8257600080fd5b505afa158015610c96573d6000803e3d6000fd5b505050506040513d601f19601f82011682018060405250610cba9190810190613167565b6129ca90919063ffffffff16565b9050919050565b600360009054906101000a900473ffffffffffffffffffffffffffffffffffffffff1681565b6000610d9360648473ffffffffffffffffffffffffffffffffffffffff1663d65a5021856040518263ffffffff1660e01b8152600401610d35919061366a565b60206040518083038186803b158015610d4d57600080fd5b505afa158015610d61573d6000803e3d6000fd5b505050506040513d601f19601f82011682018060405250610d859190810190613167565b612a3a90919063ffffffff16565b905092915050565b600080600560009054906101000a900473ffffffffffffffffffffffffffffffffffffffff1673ffffffffffffffffffffffffffffffffffffffff16638e8f294b846040518263ffffffff1660e01b8152600401610df99190613496565b6101206040518083038186803b158015610e1257600080fd5b505afa158015610e26573d6000803e3d6000fd5b505050506040513d601f19601f82011682018060405250610e4a9190810190612fd4565b50505050945050505050610e6a62201480826129ca90919063ffffffff16565b915050919050565b600560009054906101000a900473ffffffffffffffffffffffffffffffffffffffff1681565b610ea06118e3565b610edf576040517f08c379a0000000000000000000000000000000000000000000000000000000008152600401610ed69061364a565b60405180910390fd5b600073ffffffffffffffffffffffffffffffffffffffff166000809054906101000a900473ffffffffffffffffffffffffffffffffffffffff1673ffffffffffffffffffffffffffffffffffffffff167f8be0079c531659141344cd1fd0a4f28419497f9722a3daafe3b4186f6b6457e060405160405180910390a360008060006101000a81548173ffffffffffffffffffffffffffffffffffffffff021916908373ffffffffffffffffffffffffffffffffffffffff160217905550565b600073eeeeeeeeeeeeeeeeeeeeeeeeeeeeeeeeeeeeeeee73ffffffffffffffffffffffffffffffffffffffff168373ffffffffffffffffffffffffffffffffffffffff161415610fed57600e92505b6000600460009054906101000a900473ffffffffffffffffffffffffffffffffffffffff1673ffffffffffffffffffffffffffffffffffffffff1663b31610db856040518263ffffffff1660e01b815260040161104a9190613496565b604080518083038186803b15801561106157600080fd5b505afa158015611075573d6000803e3d6000fd5b505050506040513d601f19601f8201168201806040525061109991908101906131cc565b50905060008114156110af5760009150506113db565b600061116e84600460009054906101000a900473ffffffffffffffffffffffffffffffffffffffff1673ffffffffffffffffffffffffffffffffffffffff166368da10ae886040518263ffffffff1660e01b81526004016111109190613496565b60206040518083038186803b15801561112857600080fd5b505afa15801561113c573d6000803e3d6000fd5b505050506040513d601f19601f820116820180604052506111609190810190613167565b61297590919063ffffffff16565b90506000600460009054906101000a900473ffffffffffffffffffffffffffffffffffffffff1673ffffffffffffffffffffffffffffffffffffffff16638538d14e876040518263ffffffff1660e01b81526004016111cd9190613496565b60206040518083038186803b1580156111e557600080fd5b505afa1580156111f9573d6000803e3d6000fd5b505050506040513d601f19601f8201168201806040525061121d9190810190613167565b9050600061124d8361123f611230612a84565b856129ca90919063ffffffff16565b612a3a90919063ffffffff16565b90506000600460009054906101000a900473ffffffffffffffffffffffffffffffffffffffff1673ffffffffffffffffffffffffffffffffffffffff166330b8b2c6896040518263ffffffff1660e01b81526004016112ac9190613496565b60606040518083038186803b1580156112c457600080fd5b505afa1580156112d8573d6000803e3d6000fd5b505050506040513d601f19601f820116820180604052506112fc91908101906130c3565b60400151905060008173ffffffffffffffffffffffffffffffffffffffff166369e8a15f846040518263ffffffff1660e01b815260040161133d919061366a565b60206040518083038186803b15801561135557600080fd5b505afa158015611369573d6000803e3d6000fd5b505050506040513d601f19601f8201168201806040525061138d9190810190613167565b9050600061139b8583612a94565b905060006113c4826113bf6006546113b1612a84565b612acb90919063ffffffff16565b612b15565b90506113d08188612b43565b985050505050505050505b92915050565b6113e96118e3565b611428576040517f08c379a000000000000000000000000000000000000000000000000000000000815260040161141f9061364a565b60405180910390fd5b80600460006101000a81548173ffffffffffffffffffffffffffffffffffffffff021916908373ffffffffffffffffffffffffffffffffffffffff16021790555050565b6114746118e3565b6114b3576040517f08c379a00000000000000000000000000000000000000000000000000000000081526004016114aa9061364a565b60405180910390fd5b80600360006101000a81548173ffffffffffffffffffffffffffffffffffffffff021916908373ffffffffffffffffffffffffffffffffffffffff16021790555050565b600080600260009054906101000a900473ffffffffffffffffffffffffffffffffffffffff1673ffffffffffffffffffffffffffffffffffffffff1663fd47eda6846040518263ffffffff1660e01b8152600401611555919061366a565b60206040518083038186803b15801561156d57600080fd5b505afa158015611581573d6000803e3d6000fd5b505050506040513d601f19601f820116820180604052506115a59190810190613115565b60000151905060006301e28500820290506000600260009054906101000a900473ffffffffffffffffffffffffffffffffffffffff1673ffffffffffffffffffffffffffffffffffffffff1663cb04a34c866040518263ffffffff1660e01b8152600401611613919061366a565b604080518083038186803b15801561162a57600080fd5b505afa15801561163e573d6000803e3d6000fd5b505050506040513d601f19601f8201168201806040525061166291908101906130ec565b600001516fffffffffffffffffffffffffffffffff1690506000600260009054906101000a900473ffffffffffffffffffffffffffffffffffffffff1673ffffffffffffffffffffffffffffffffffffffff1663cb04a34c876040518263ffffffff1660e01b81526004016116d7919061366a565b604080518083038186803b1580156116ee57600080fd5b505afa158015611702573d6000803e3d6000fd5b505050506040513d601f19601f8201168201806040525061172691908101906130ec565b602001516fffffffffffffffffffffffffffffffff16905060008160015484028161174d57fe5b0490506000600154600260009054906101000a900473ffffffffffffffffffffffffffffffffffffffff1673ffffffffffffffffffffffffffffffffffffffff1663e55202286040518163ffffffff1660e01b815260040160206040518083038186803b1580156117bd57600080fd5b505afa1580156117d1573d6000803e3d6000fd5b505050506040513d601f19601f820116820180604052506117f59190810190613115565b600001516001548488028161180657fe5b04028161180f57fe5b049050809650505050505050919050565b60006118b360648373ffffffffffffffffffffffffffffffffffffffff166309ec6b6b6040518163ffffffff1660e01b815260040160206040518083038186803b15801561186d57600080fd5b505afa158015611881573d6000803e3d6000fd5b505050506040513d601f19601f820116820180604052506118a59190810190613167565b612a3a90919063ffffffff16565b9050919050565b60008060009054906101000a900473ffffffffffffffffffffffffffffffffffffffff16905090565b60008060009054906101000a900473ffffffffffffffffffffffffffffffffffffffff1673ffffffffffffffffffffffffffffffffffffffff16611925612b7a565b73ffffffffffffffffffffffffffffffffffffffff1614905090565b600460009054906101000a900473ffffffffffffffffffffffffffffffffffffffff1681565b600080600360009054906101000a900473ffffffffffffffffffffffffffffffffffffffff1673ffffffffffffffffffffffffffffffffffffffff1663ed6ff7606040518163ffffffff1660e01b815260040160206040518083038186803b1580156119d257600080fd5b505afa1580156119e6573d6000803e3d6000fd5b505050506040513d601f19601f82011682018060405250611a0a9190810190612f46565b905060008173ffffffffffffffffffffffffffffffffffffffff16636ae14416866040518263ffffffff1660e01b8152600401611a479190613496565b60206040518083038186803b158015611a5f57600080fd5b505afa158015611a73573d6000803e3d6000fd5b505050506040513d601f19601f82011682018060405250611a979190810190612f46565b905060008173ffffffffffffffffffffffffffffffffffffffff166357e37af087611b53888773ffffffffffffffffffffffffffffffffffffffff1663e24030198c6040518263ffffffff1660e01b8152600401611af59190613496565b60206040518083038186803b158015611b0d57600080fd5b505afa158015611b21573d6000803e3d6000fd5b505050506040513d601f19601f82011682018060405250611b459190810190613167565b61297590919063ffffffff16565b8673ffffffffffffffffffffffffffffffffffffffff16637f90fec58b6040518263ffffffff1660e01b8152600401611b8c9190613496565b60206040518083038186803b158015611ba457600080fd5b505afa158015611bb8573d6000803e3d6000fd5b505050506040513d601f19601f82011682018060405250611bdc9190810190613167565b8773ffffffffffffffffffffffffffffffffffffffff166398bd47378c6040518263ffffffff1660e01b8152600401611c159190613496565b60206040518083038186803b158015611c2d57600080fd5b505afa158015611c41573d6000803e3d6000fd5b505050506040513d601f19601f82011682018060405250611c659190810190613167565b8873ffffffffffffffffffffffffffffffffffffffff166346bc0f288d6040518263ffffffff1660e01b8152600401611c9e9190613496565b60206040518083038186803b158015611cb657600080fd5b505afa158015611cca573d6000803e3d6000fd5b505050506040513d601f19601f82011682018060405250611cee9190810190613167565b6040518663ffffffff1660e01b8152600401611d0e95949392919061353a565b60606040518083038186803b158015611d2657600080fd5b505afa158015611d3a573d6000803e3d6000fd5b505050506040513d601f19601f82011682018060405250611d5e9190810190613208565b50509050611d79633b9aca0082612a3a90919063ffffffff16565b935050505092915050565b611d8c6118e3565b611dcb576040517f08c379a0000000000000000000000000000000000000000000000000000000008152600401611dc29061364a565b60405180910390fd5b80600560006101000a81548173ffffffffffffffffffffffffffffffffffffffff021916908373ffffffffffffffffffffffffffffffffffffffff16021790555050565b600260009054906101000a900473ffffffffffffffffffffffffffffffffffffffff1681565b600073eeeeeeeeeeeeeeeeeeeeeeeeeeeeeeeeeeeeeeee73ffffffffffffffffffffffffffffffffffffffff168273ffffffffffffffffffffffffffffffffffffffff161415611e8457600e91505b6000600460009054906101000a900473ffffffffffffffffffffffffffffffffffffffff1673ffffffffffffffffffffffffffffffffffffffff1663b31610db846040518263ffffffff1660e01b8152600401611ee19190613496565b604080518083038186803b158015611ef857600080fd5b505afa158015611f0c573d6000803e3d6000fd5b505050506040513d601f19601f82011682018060405250611f3091908101906131cc565b5090506000811415611f46576000915050611ffe565b6000600460009054906101000a900473ffffffffffffffffffffffffffffffffffffffff1673ffffffffffffffffffffffffffffffffffffffff166343239e9b8560006040518363ffffffff1660e01b8152600401611fa69291906134da565b604080518083038186803b158015611fbd57600080fd5b505afa158015611fd1573d6000803e3d6000fd5b505050506040513d601f19601f82011682018060405250611ff591908101906131cc565b91505080925050505b919050565b61200b6118e3565b61204a576040517f08c379a00000000000000000000000000000000000000000000000000000000081526004016120419061364a565b60405180910390fd5b61205381612b82565b50565b61205e6118e3565b61209d576040517f08c379a00000000000000000000000000000000000000000000000000000000081526004016120949061364a565b60405180910390fd5b60003373ffffffffffffffffffffffffffffffffffffffff163073ffffffffffffffffffffffffffffffffffffffff16316040516120da90613481565b60006040518083038185875af1925050503d8060008114612117576040519150601f19603f3d011682016040523d82523d6000602084013e61211c565b606091505b5050905080612160576040517f08c379a00000000000000000000000000000000000000000000000000000000081526004016121579061360a565b60405180910390fd5b50565b6000600360009054906101000a900473ffffffffffffffffffffffffffffffffffffffff1673ffffffffffffffffffffffffffffffffffffffff1663ed6ff7606040518163ffffffff1660e01b815260040160206040518083038186803b1580156121cd57600080fd5b505afa1580156121e1573d6000803e3d6000fd5b505050506040513d601f19601f820116820180604052506122059190810190612f46565b905090565b60008083905060008473ffffffffffffffffffffffffffffffffffffffff1663f3fdb15a6040518163ffffffff1660e01b815260040160206040518083038186803b15801561225857600080fd5b505afa15801561226c573d6000803e3d6000fd5b505050506040513d601f19601f820116820180604052506122909190810190612f46565b9050600073ffffffffffffffffffffffffffffffffffffffff168173ffffffffffffffffffffffffffffffffffffffff1614156123635761235a622014808373ffffffffffffffffffffffffffffffffffffffff1663ae9d70b06040518163ffffffff1660e01b815260040160206040518083038186803b15801561231457600080fd5b505afa158015612328573d6000803e3d6000fd5b505050506040513d601f19601f8201168201806040525061234c9190810190613167565b6129ca90919063ffffffff16565b92505050612630565b600081905060006123fa868573ffffffffffffffffffffffffffffffffffffffff16633b1d21a26040518163ffffffff1660e01b815260040160206040518083038186803b1580156123b457600080fd5b505afa1580156123c8573d6000803e3d6000fd5b505050506040513d601f19601f820116820180604052506123ec9190810190613167565b61297590919063ffffffff16565b9050612629622014808373ffffffffffffffffffffffffffffffffffffffff1663b8168816848873ffffffffffffffffffffffffffffffffffffffff166347bd37186040518163ffffffff1660e01b815260040160206040518083038186803b15801561246657600080fd5b505afa15801561247a573d6000803e3d6000fd5b505050506040513d601f19601f8201168201806040525061249e9190810190613167565b61252e8c8b73ffffffffffffffffffffffffffffffffffffffff16638f840ddd6040518163ffffffff1660e01b815260040160206040518083038186803b1580156124e857600080fd5b505afa1580156124fc573d6000803e3d6000fd5b505050506040513d601f19601f820116820180604052506125209190810190613167565b61297590919063ffffffff16565b8a73ffffffffffffffffffffffffffffffffffffffff1663173b99046040518163ffffffff1660e01b815260040160206040518083038186803b15801561257457600080fd5b505afa158015612588573d6000803e3d6000fd5b505050506040513d601f19601f820116820180604052506125ac9190810190613167565b6040518563ffffffff1660e01b81526004016125cb9493929190613685565b60206040518083038186803b1580156125e357600080fd5b505afa1580156125f7573d6000803e3d6000fd5b505050506040513d601f19601f8201168201806040525061261b9190810190613167565b6129ca90919063ffffffff16565b9450505050505b92915050565b600080600260009054906101000a900473ffffffffffffffffffffffffffffffffffffffff1673ffffffffffffffffffffffffffffffffffffffff1663fd47eda6856040518263ffffffff1660e01b8152600401612694919061366a565b60206040518083038186803b1580156126ac57600080fd5b505afa1580156126c0573d6000803e3d6000fd5b505050506040513d601f19601f820116820180604052506126e49190810190613115565b60000151905060006301e28500820290506000600260009054906101000a900473ffffffffffffffffffffffffffffffffffffffff1673ffffffffffffffffffffffffffffffffffffffff1663cb04a34c876040518263ffffffff1660e01b8152600401612752919061366a565b604080518083038186803b15801561276957600080fd5b505afa15801561277d573d6000803e3d6000fd5b505050506040513d601f19601f820116820180604052506127a191908101906130ec565b600001516fffffffffffffffffffffffffffffffff1690506000600260009054906101000a900473ffffffffffffffffffffffffffffffffffffffff1673ffffffffffffffffffffffffffffffffffffffff1663cb04a34c886040518263ffffffff1660e01b8152600401612816919061366a565b604080518083038186803b15801561282d57600080fd5b505afa158015612841573d6000803e3d6000fd5b505050506040513d601f19601f8201168201806040525061286591908101906130ec565b602001516fffffffffffffffffffffffffffffffff169050612890868261297590919063ffffffff16565b90506000816001548402816128a157fe5b0490506000600154600260009054906101000a900473ffffffffffffffffffffffffffffffffffffffff1673ffffffffffffffffffffffffffffffffffffffff1663e55202286040518163ffffffff1660e01b815260040160206040518083038186803b15801561291157600080fd5b505afa158015612925573d6000803e3d6000fd5b505050506040513d601f19601f820116820180604052506129499190810190613115565b600001516001548488028161295a57fe5b04028161296357fe5b04905080965050505050505092915050565b6000808284019050838110156129c0576040517f08c379a00000000000000000000000000000000000000000000000000000000081526004016129b7906135ea565b60405180910390fd5b8091505092915050565b6000808314156129dd5760009050612a34565b60008284029050828482816129ee57fe5b0414612a2f576040517f08c379a0000000000000000000000000000000000000000000000000000000008152600401612a269061362a565b60405180910390fd5b809150505b92915050565b6000612a7c83836040518060400160405280601a81526020017f536166654d6174683a206469766973696f6e206279207a65726f000000000000815250612cb0565b905092915050565b6000670de0b6b3a7640000905090565b6000612ac3670de0b6b3a7640000612ab584866129ca90919063ffffffff16565b612d1190919063ffffffff16565b905092915050565b6000612b0d83836040518060400160405280601e81526020017f536166654d6174683a207375627472616374696f6e206f766572666c6f770000815250612d4b565b905092915050565b6000670de0b6b3a7640000612b3383856129ca90919063ffffffff16565b81612b3a57fe5b04905092915050565b6000612b7282612b64670de0b6b3a7640000866129ca90919063ffffffff16565b612a3a90919063ffffffff16565b905092915050565b600033905090565b600073ffffffffffffffffffffffffffffffffffffffff168173ffffffffffffffffffffffffffffffffffffffff161415612bf2576040517f08c379a0000000000000000000000000000000000000000000000000000000008152600401612be9906135ca565b60405180910390fd5b8073ffffffffffffffffffffffffffffffffffffffff166000809054906101000a900473ffffffffffffffffffffffffffffffffffffffff1673ffffffffffffffffffffffffffffffffffffffff167f8be0079c531659141344cd1fd0a4f28419497f9722a3daafe3b4186f6b6457e060405160405180910390a3806000806101000a81548173ffffffffffffffffffffffffffffffffffffffff021916908373ffffffffffffffffffffffffffffffffffffffff16021790555050565b60008083118290612cf7576040517f08c379a0000000000000000000000000000000000000000000000000000000008152600401612cee91906135a8565b60405180910390fd5b506000838581612d0357fe5b049050809150509392505050565b600080612d1e8484612a3a565b90506000838202850390506000811115612d3f576001820192505050612d45565b81925050505b92915050565b6000838311158290612d93576040517f08c379a0000000000000000000000000000000000000000000000000000000008152600401612d8a91906135a8565b60405180910390fd5b5060008385039050809150509392505050565b600081359050612db581613820565b92915050565b600081519050612dca81613820565b92915050565b600081519050612ddf81613837565b92915050565b600081359050612df48161384e565b92915050565b600060608284031215612e0c57600080fd5b612e1660606136ca565b90506000612e2684828501612dbb565b6000830152506020612e3a84828501612dbb565b6020830152506040612e4e84828501612dbb565b60408301525092915050565b600060408284031215612e6c57600080fd5b612e7660406136ca565b90506000612e8684828501612ede565b6000830152506020612e9a84828501612ede565b60208301525092915050565b600060208284031215612eb857600080fd5b612ec260206136ca565b90506000612ed284828501612f08565b60008301525092915050565b600081519050612eed81613865565b92915050565b600081359050612f028161387c565b92915050565b600081519050612f178161387c565b92915050565b600060208284031215612f2f57600080fd5b6000612f3d84828501612da6565b91505092915050565b600060208284031215612f5857600080fd5b6000612f6684828501612dbb565b91505092915050565b60008060408385031215612f8257600080fd5b6000612f9085828601612da6565b9250506020612fa185828601612ef3565b9150509250929050565b600060208284031215612fbd57600080fd5b6000612fcb84828501612dd0565b91505092915050565b60008060008060008060008060006101208a8c031215612ff357600080fd5b60006130018c828d01612dd0565b99505060206130128c828d01612f08565b98505060406130238c828d01612dbb565b97505060606130348c828d01612f08565b96505060806130458c828d01612f08565b95505060a06130568c828d01612f08565b94505060c06130678c828d01612f08565b93505060e06130788c828d01612f08565b92505061010061308a8c828d01612f08565b9150509295985092959850929598565b6000602082840312156130ac57600080fd5b60006130ba84828501612de5565b91505092915050565b6000606082840312156130d557600080fd5b60006130e384828501612dfa565b91505092915050565b6000604082840312156130fe57600080fd5b600061310c84828501612e5a565b91505092915050565b60006020828403121561312757600080fd5b600061313584828501612ea6565b91505092915050565b60006020828403121561315057600080fd5b600061315e84828501612ef3565b91505092915050565b60006020828403121561317957600080fd5b600061318784828501612f08565b91505092915050565b600080604083850312156131a357600080fd5b60006131b185828601612ef3565b92505060206131c285828601612ef3565b9150509250929050565b600080604083850312156131df57600080fd5b60006131ed85828601612f08565b92505060206131fe85828601612f08565b9150509250929050565b60008060006060848603121561321d57600080fd5b600061322b86828701612f08565b935050602061323c86828701612f08565b925050604061324d86828701612f08565b9150509250925092565b61326081613794565b82525050565b61326f8161371e565b82525050565b61327e81613730565b82525050565b61328d816137a6565b82525050565b600061329e826136f7565b6132a8818561370d565b93506132b88185602086016137dc565b6132c18161380f565b840191505092915050565b60006132d960268361370d565b91507f4f776e61626c653a206e6577206f776e657220697320746865207a65726f206160008301527f64647265737300000000000000000000000000000000000000000000000000006020830152604082019050919050565b600061333f601b8361370d565b91507f536166654d6174683a206164646974696f6e206f766572666c6f7700000000006000830152602082019050919050565b600061337f60168361370d565b91507f7472616e73666572206f6620455448206661696c6564000000000000000000006000830152602082019050919050565b60006133bf60218361370d565b91507f536166654d6174683a206d756c7469706c69636174696f6e206f766572666c6f60008301527f77000000000000000000000000000000000000000000000000000000000000006020830152604082019050919050565b600061342560208361370d565b91507f4f776e61626c653a2063616c6c6572206973206e6f7420746865206f776e65726000830152602082019050919050565b6000613465600083613702565b9150600082019050919050565b61347b8161378a565b82525050565b600061348c82613458565b9150819050919050565b60006020820190506134ab6000830184613266565b92915050565b60006040820190506134c66000830185613257565b6134d36020830184613472565b9392505050565b60006040820190506134ef6000830185613266565b6134fc6020830184613284565b9392505050565b60006060820190506135186000830186613266565b6135256020830185613472565b6135326040830184613472565b949350505050565b600060a08201905061354f6000830188613266565b61355c6020830187613472565b6135696040830186613472565b6135766060830185613472565b6135836080830184613472565b9695505050505050565b60006020820190506135a26000830184613275565b92915050565b600060208201905081810360008301526135c28184613293565b905092915050565b600060208201905081810360008301526135e3816132cc565b9050919050565b6000602082019050818103600083015261360381613332565b9050919050565b6000602082019050818103600083015261362381613372565b9050919050565b60006020820190508181036000830152613643816133b2565b9050919050565b6000602082019050818103600083015261366381613418565b9050919050565b600060208201905061367f6000830184613472565b92915050565b600060808201905061369a6000830187613472565b6136a76020830186613472565b6136b46040830185613472565b6136c16060830184613472565b95945050505050565b6000604051905081810181811067ffffffffffffffff821117156136ed57600080fd5b8060405250919050565b600081519050919050565b600081905092915050565b600082825260208201905092915050565b60006137298261376a565b9050919050565b60008115159050919050565b60006137478261371e565b9050919050565b60006fffffffffffffffffffffffffffffffff82169050919050565b600073ffffffffffffffffffffffffffffffffffffffff82169050919050565b6000819050919050565b600061379f826137b8565b9050919050565b60006137b18261378a565b9050919050565b60006137c3826137ca565b9050919050565b60006137d58261376a565b9050919050565b60005b838110156137fa5780820151818401526020810190506137df565b83811115613809576000848401525b50505050565b6000601f19601f8301169050919050565b6138298161371e565b811461383457600080fd5b50565b61384081613730565b811461384b57600080fd5b50565b6138578161373c565b811461386257600080fd5b50565b61386e8161374e565b811461387957600080fd5b50565b6138858161378a565b811461389057600080fd5b5056fea365627a7a72315820c5978872d3d76e30afbc8aea921cdf4e4a12006592bb60c2e4548cfcce0eb61e6c6578706572696d656e74616cf564736f6c634300050c0040",
  "source": "pragma solidity ^0.5.0;\r\npragma experimental ABIEncoderV2;\r\n\r\ninterface IERC20 {\r\n    function totalSupply() external view returns (uint256);\r\n    function balanceOf(address account) external view returns (uint256);\r\n    function transfer(address recipient, uint256 amount) external returns (bool);\r\n    function allowance(address owner, address spender) external view returns (uint256);\r\n    function decimals() external view returns (uint8);\r\n    function approve(address spender, uint256 amount) external returns (bool);\r\n    function transferFrom(address sender, address recipient, uint256 amount) external returns (bool);\r\n    event Transfer(address indexed from, address indexed to, uint256 value);\r\n    event Approval(address indexed owner, address indexed spender, uint256 value);\r\n}\r\n\r\ncontract Context {\r\n    constructor () internal { }\r\n    // solhint-disable-previous-line no-empty-blocks\r\n\r\n    function _msgSender() internal view returns (address payable) {\r\n        return msg.sender;\r\n    }\r\n\r\n    function _msgData() internal view returns (bytes memory) {\r\n        this; // silence state mutability warning without generating bytecode - see https://github.com/ethereum/solidity/issues/2691\r\n        return msg.data;\r\n    }\r\n}\r\ncontract Ownable is Context {\r\n    address private _owner;\r\n\r\n    event OwnershipTransferred(address indexed previousOwner, address indexed newOwner);\r\n    constructor () internal {\r\n        _owner = _msgSender();\r\n        emit OwnershipTransferred(address(0), _owner);\r\n    }\r\n    function owner() public view returns (address) {\r\n        return _owner;\r\n    }\r\n    modifier onlyOwner() {\r\n        require(isOwner(), \"Ownable: caller is not the owner\");\r\n        _;\r\n    }\r\n    function isOwner() public view returns (bool) {\r\n        return _msgSender() == _owner;\r\n    }\r\n    function renounceOwnership() public onlyOwner {\r\n        emit OwnershipTransferred(_owner, address(0));\r\n        _owner = address(0);\r\n    }\r\n    function transferOwnership(address newOwner) public onlyOwner {\r\n        _transferOwnership(newOwner);\r\n    }\r\n    function _transferOwnership(address newOwner) internal {\r\n        require(newOwner != address(0), \"Ownable: new owner is the zero address\");\r\n        emit OwnershipTransferred(_owner, newOwner);\r\n        _owner = newOwner;\r\n    }\r\n}\r\n\r\nlibrary SafeMath {\r\n    function add(uint256 a, uint256 b) internal pure returns (uint256) {\r\n        uint256 c = a + b;\r\n        require(c >= a, \"SafeMath: addition overflow\");\r\n\r\n        return c;\r\n    }\r\n    function sub(uint256 a, uint256 b) internal pure returns (uint256) {\r\n        return sub(a, b, \"SafeMath: subtraction overflow\");\r\n    }\r\n    function sub(uint256 a, uint256 b, string memory errorMessage) internal pure returns (uint256) {\r\n        require(b <= a, errorMessage);\r\n        uint256 c = a - b;\r\n\r\n        return c;\r\n    }\r\n    function mul(uint256 a, uint256 b) internal pure returns (uint256) {\r\n        if (a == 0) {\r\n            return 0;\r\n        }\r\n\r\n        uint256 c = a * b;\r\n        require(c / a == b, \"SafeMath: multiplication overflow\");\r\n\r\n        return c;\r\n    }\r\n    function div(uint256 a, uint256 b) internal pure returns (uint256) {\r\n        return div(a, b, \"SafeMath: division by zero\");\r\n    }\r\n    function div(uint256 a, uint256 b, string memory errorMessage) internal pure returns (uint256) {\r\n        require(b > 0, errorMessage);\r\n        uint256 c = a / b;\r\n\r\n        return c;\r\n    }\r\n    function divCeil(\r\n        uint256 a,\r\n        uint256 b\r\n    )\r\n        internal\r\n        pure\r\n        returns (uint256)\r\n    {\r\n        uint256 quotient = div(a, b);\r\n        uint256 remainder = a - quotient * b;\r\n        if (remainder > 0) {\r\n            return quotient + 1;\r\n        } else {\r\n            return quotient;\r\n        }\r\n    }\r\n    function mod(uint256 a, uint256 b) internal pure returns (uint256) {\r\n        return mod(a, b, \"SafeMath: modulo by zero\");\r\n    }\r\n    function mod(uint256 a, uint256 b, string memory errorMessage) internal pure returns (uint256) {\r\n        require(b != 0, errorMessage);\r\n        return a % b;\r\n    }\r\n}\r\n\r\nlibrary Decimal {\r\n    using SafeMath for uint256;\r\n\r\n    uint256 constant BASE = 10**18;\r\n\r\n    function one()\r\n        internal\r\n        pure\r\n        returns (uint256)\r\n    {\r\n        return BASE;\r\n    }\r\n\r\n    function onePlus(\r\n        uint256 d\r\n    )\r\n        internal\r\n        pure\r\n        returns (uint256)\r\n    {\r\n        return d.add(BASE);\r\n    }\r\n\r\n    function mulFloor(\r\n        uint256 target,\r\n        uint256 d\r\n    )\r\n        internal\r\n        pure\r\n        returns (uint256)\r\n    {\r\n        return target.mul(d) / BASE;\r\n    }\r\n\r\n    function mulCeil(\r\n        uint256 target,\r\n        uint256 d\r\n    )\r\n        internal\r\n        pure\r\n        returns (uint256)\r\n    {\r\n        return target.mul(d).divCeil(BASE);\r\n    }\r\n\r\n    function divFloor(\r\n        uint256 target,\r\n        uint256 d\r\n    )\r\n        internal\r\n        pure\r\n        returns (uint256)\r\n    {\r\n        return target.mul(BASE).div(d);\r\n    }\r\n\r\n    function divCeil(\r\n        uint256 target,\r\n        uint256 d\r\n    )\r\n        internal\r\n        pure\r\n        returns (uint256)\r\n    {\r\n        return target.mul(BASE).divCeil(d);\r\n    }\r\n}\r\n\r\nlibrary Address {\r\n    function isContract(address account) internal view returns (bool) {\r\n        bytes32 codehash;\r\n        bytes32 accountHash = 0xc5d2460186f7233c927e7db2dcc703c0e500b653ca82273b7bfad8045d85a470;\r\n        // solhint-disable-next-line no-inline-assembly\r\n        assembly { codehash := extcodehash(account) }\r\n        return (codehash != 0x0 && codehash != accountHash);\r\n    }\r\n    function toPayable(address account) internal pure returns (address payable) {\r\n        return address(uint160(account));\r\n    }\r\n    function sendValue(address payable recipient, uint256 amount) internal {\r\n        require(address(this).balance >= amount, \"Address: insufficient balance\");\r\n\r\n        // solhint-disable-next-line avoid-call-value\r\n        (bool success, ) = recipient.call.value(amount)(\"\");\r\n        require(success, \"Address: unable to send value, recipient may have reverted\");\r\n    }\r\n}\r\n\r\n// Compound\r\ninterface Compound {\r\n  function interestRateModel() external view returns (address);\r\n  function reserveFactorMantissa() external view returns (uint256);\r\n  function totalBorrows() external view returns (uint256);\r\n  function totalReserves() external view returns (uint256);\r\n\r\n  function supplyRatePerBlock() external view returns (uint);\r\n  function getCash() external view returns (uint256);\r\n}\r\n\r\n// Fulcrum\r\ninterface Fulcrum {\r\n  function supplyInterestRate() external view returns (uint256);\r\n  function nextSupplyInterestRate(uint256 supplyAmount) external view returns (uint256);\r\n}\r\n\r\ninterface DyDx {\r\n  struct val {\r\n       uint256 value;\r\n   }\r\n\r\n   struct set {\r\n      uint128 borrow;\r\n      uint128 supply;\r\n  }\r\n\r\n  function getEarningsRate() external view returns (val memory);\r\n  function getMarketInterestRate(uint256 marketId) external view returns (val memory);\r\n  function getMarketTotalPar(uint256 marketId) external view returns (set memory);\r\n}\r\n\r\ninterface LendingPoolAddressesProvider {\r\n    function getLendingPoolCore() external view returns (address);\r\n}\r\n\r\ninterface LendingPoolCore  {\r\n  function getReserveCurrentLiquidityRate(address _reserve)\r\n  external\r\n  view\r\n  returns (\r\n      uint256 liquidityRate\r\n  );\r\n  function getReserveInterestRateStrategyAddress(address _reserve) external view returns (address);\r\n  function getReserveTotalBorrows(address _reserve) external view returns (uint256);\r\n  function getReserveTotalBorrowsStable(address _reserve) external view returns (uint256);\r\n  function getReserveTotalBorrowsVariable(address _reserve) external view returns (uint256);\r\n  function getReserveCurrentAverageStableBorrowRate(address _reserve)\r\n     external\r\n     view\r\n     returns (uint256);\r\n  function getReserveAvailableLiquidity(address _reserve) external view returns (uint256);\r\n}\r\n\r\ninterface IReserveInterestRateStrategy {\r\n\r\n    function getBaseVariableBorrowRate() external view returns (uint256);\r\n    function calculateInterestRates(\r\n        address _reserve,\r\n        uint256 _utilizationRate,\r\n        uint256 _totalBorrowsStable,\r\n        uint256 _totalBorrowsVariable,\r\n        uint256 _averageStableBorrowRate)\r\n    external\r\n    view\r\n    returns (uint256 liquidityRate, uint256 stableBorrowRate, uint256 variableBorrowRate);\r\n}\r\n\r\ninterface InterestRateModel {\r\n  function getSupplyRate(uint cash, uint borrows, uint reserves, uint reserveFactorMantissa) external view returns (uint);\r\n}\r\n\r\ncontract Structs {\r\n  struct Asset {\r\n    address lendingPool;\r\n    address priceOralce;\r\n    address interestModel;\r\n  }\r\n}\r\n\r\ncontract IDDEX is Structs {\r\n\r\n  function getInterestRates(address token, uint256 extraBorrowAmount)\r\n    external\r\n    view\r\n    returns (uint256 borrowInterestRate, uint256 supplyInterestRate);\r\n  function getIndex(address token)\r\n    external\r\n    view\r\n    returns (uint256 supplyIndex, uint256 borrowIndex);\r\n  function getTotalSupply(address asset)\r\n    external\r\n    view\r\n    returns (uint256 amount);\r\n  function getTotalBorrow(address asset)\r\n    external\r\n    view\r\n    returns (uint256 amount);\r\n  function getAsset(address token)\r\n    external\r\n    view returns (Asset memory asset);\r\n}\r\n\r\ninterface IDDEXModel {\r\n  function polynomialInterestModel(uint256 borrowRatio) external view returns (uint256);\r\n}\r\n\r\ninterface ILendF {\r\n  function getSupplyBalance(address account, address token)\r\n    external\r\n    view\r\n    returns (uint256);\r\n  function supplyBalances(address account, address token)\r\n    external\r\n    view\r\n    returns (uint256 principal, uint256 interestIndex);\r\n  function supply(address asset, uint256 amount) external;\r\n  function withdraw(address asset, uint256 amount) external;\r\n  function markets(address asset) external view returns (\r\n    bool isSupported,\r\n    uint256 blockNumber,\r\n    address interestRateModel,\r\n    uint256 totalSupply,\r\n    uint256 supplyRateMantissa,\r\n    uint256 supplyIndex,\r\n    uint256 totalBorrows,\r\n    uint256 borrowRateMantissa,\r\n    uint256 borrowIndex\r\n  );\r\n}\r\n\r\ninterface ILendFModel {\r\n    function getSupplyRate(address asset, uint cash, uint borrows) external view returns (uint, uint);\r\n}\r\n\r\n\r\n\r\ncontract APRWithPoolOracle is Ownable, Structs {\r\n  using SafeMath for uint256;\r\n  using Address for address;\r\n\r\n  uint256 DECIMAL = 10 ** 18;\r\n\r\n  address public DYDX;\r\n  address public AAVE;\r\n  address public DDEX;\r\n  address public LENDF;\r\n\r\n  uint256 public liquidationRatio;\r\n\r\n  constructor() public {\r\n    DYDX = address(0x1E0447b19BB6EcFdAe1e4AE1694b0C3659614e4e);\r\n    AAVE = address(0x24a42fD28C976A61Df5D00D0599C34c4f90748c8);\r\n    DDEX = address(0x241e82C79452F51fbfc89Fac6d912e021dB1a3B7);\r\n    LENDF = address(0x0eEe3E3828A45f7601D5F54bF49bB01d1A9dF5ea);\r\n    liquidationRatio = 50000000000000000;\r\n  }\r\n\r\n  function set_new_AAVE(address _new_AAVE) public onlyOwner {\r\n      AAVE = _new_AAVE;\r\n  }\r\n  function set_new_DDEX(address _new_DDEX) public onlyOwner {\r\n      DDEX = _new_DDEX;\r\n  }\r\n  function set_new_DYDX(address _new_DYDX) public onlyOwner {\r\n      DYDX = _new_DYDX;\r\n  }\r\n  function set_new_LENDF(address _new_LENDF) public onlyOwner {\r\n      LENDF = _new_LENDF;\r\n  }\r\n  function set_new_Ratio(uint256 _new_Ratio) public onlyOwner {\r\n      liquidationRatio = _new_Ratio;\r\n  }\r\n\r\n  function getLENDFAPR(address token) public view returns (uint256) {\r\n    (,,,,uint256 supplyRateMantissa,,,,) = ILendF(LENDF).markets(token);\r\n    return supplyRateMantissa.mul(2102400);\r\n  }\r\n\r\n  function getLENDFAPRAdjusted(address token, uint256 supply) public view returns (uint256) {\r\n    if (token == address(0xEeeeeEeeeEeEeeEeEeEeeEEEeeeeEeeeeeeeEEeE)) {\r\n      return 0;\r\n    }\r\n    uint256 totalCash = IERC20(token).balanceOf(LENDF).add(supply);\r\n    (,, address interestRateModel,,,, uint256 totalBorrows,,) = ILendF(LENDF).markets(token);\r\n    if (interestRateModel == address(0)) {\r\n      return 0;\r\n    }\r\n    (, uint256 supplyRateMantissa) = ILendFModel(interestRateModel).getSupplyRate(token, totalCash, totalBorrows);\r\n    return supplyRateMantissa.mul(2102400);\r\n  }\r\n\r\n  function getDDEXAPR(address token) public view returns (uint256) {\r\n    if (token == address(0xEeeeeEeeeEeEeeEeEeEeeEEEeeeeEeeeeeeeEEeE)) {\r\n      token = address(0x000000000000000000000000000000000000000E);\r\n    }\r\n    (uint256 supplyIndex,) = IDDEX(DDEX).getIndex(token);\r\n    if (supplyIndex == 0) {\r\n      return 0;\r\n    }\r\n    (,uint256 supplyRate) = IDDEX(DDEX).getInterestRates(token, 0);\r\n    return supplyRate;\r\n  }\r\n  \r\n  function getDDEXAPRAdjusted(address token, uint256 _supply) public view returns (uint256) {\r\n    if (token == address(0xEeeeeEeeeEeEeeEeEeEeeEEEeeeeEeeeeeeeEEeE)) {\r\n      token = address(0x000000000000000000000000000000000000000E);\r\n    }\r\n    (uint256 supplyIndex,) = IDDEX(DDEX).getIndex(token);\r\n    if (supplyIndex == 0) {\r\n      return 0;\r\n    }\r\n    uint256 supply = IDDEX(DDEX).getTotalSupply(token).add(_supply);\r\n    uint256 borrow = IDDEX(DDEX).getTotalBorrow(token);\r\n    uint256 borrowRatio = borrow.mul(Decimal.one()).div(supply);\r\n    address interestRateModel = IDDEX(DDEX).getAsset(token).interestModel;\r\n    uint256 borrowRate = IDDEXModel(interestRateModel).polynomialInterestModel(borrowRatio);\r\n    uint256 borrowInterest = Decimal.mulCeil(borrow, borrowRate);\r\n    uint256 supplyInterest = Decimal.mulFloor(borrowInterest, Decimal.one().sub(liquidationRatio));\r\n    return Decimal.divFloor(supplyInterest, supply);\r\n  }\r\n\r\n  function getCompoundAPR(address token) public view returns (uint256) {\r\n    return Compound(token).supplyRatePerBlock().mul(2102400);\r\n  }\r\n\r\n  function getCompoundAPRAdjusted(address token, uint256 _supply) public view returns (uint256) {\r\n    Compound c = Compound(token);\r\n    address model = Compound(token).interestRateModel();\r\n    if (model == address(0)) {\r\n      return c.supplyRatePerBlock().mul(2102400);\r\n    }\r\n    InterestRateModel i = InterestRateModel(model);\r\n    uint256 cashPrior = c.getCash().add(_supply);\r\n    return i.getSupplyRate(cashPrior, c.totalBorrows(), c.totalReserves().add(_supply), c.reserveFactorMantissa()).mul(2102400);\r\n  }\r\n\r\n  function getFulcrumAPR(address token) public view returns(uint256) {\r\n    return Fulcrum(token).supplyInterestRate().div(100);\r\n  }\r\n\r\n  function getFulcrumAPRAdjusted(address token, uint256 _supply) public view returns(uint256) {\r\n    return Fulcrum(token).nextSupplyInterestRate(_supply).div(100);\r\n  }\r\n\r\n  function getDyDxAPR(uint256 marketId) public view returns(uint256) {\r\n    uint256 rate      = DyDx(DYDX).getMarketInterestRate(marketId).value;\r\n    uint256 aprBorrow = rate * 31622400;\r\n    uint256 borrow    = DyDx(DYDX).getMarketTotalPar(marketId).borrow;\r\n    uint256 supply    = DyDx(DYDX).getMarketTotalPar(marketId).supply;\r\n    uint256 usage     = (borrow * DECIMAL) / supply;\r\n    uint256 apr       = (((aprBorrow * usage) / DECIMAL) * DyDx(DYDX).getEarningsRate().value) / DECIMAL;\r\n    return apr;\r\n  }\r\n  function getDyDxAPRAdjusted(uint256 marketId, uint256 _supply) public view returns(uint256) {\r\n    uint256 rate      = DyDx(DYDX).getMarketInterestRate(marketId).value;\r\n    uint256 aprBorrow = rate * 31622400;\r\n    uint256 borrow    = DyDx(DYDX).getMarketTotalPar(marketId).borrow;\r\n    uint256 supply    = DyDx(DYDX).getMarketTotalPar(marketId).supply;\r\n    supply = supply.add(_supply);\r\n    uint256 usage     = (borrow * DECIMAL) / supply;\r\n    uint256 apr       = (((aprBorrow * usage) / DECIMAL) * DyDx(DYDX).getEarningsRate().value) / DECIMAL;\r\n    return apr;\r\n  }\r\n\r\n  function getAaveCore() public view returns (address) {\r\n    return address(LendingPoolAddressesProvider(AAVE).getLendingPoolCore());\r\n  }\r\n\r\n  function getAaveAPR(address token) public view returns (uint256) {\r\n    LendingPoolCore core = LendingPoolCore(LendingPoolAddressesProvider(AAVE).getLendingPoolCore());\r\n    return core.getReserveCurrentLiquidityRate(token).div(1e9);\r\n  }\r\n\r\n  function getAaveAPRAdjusted(address token, uint256 _supply) public view returns (uint256) {\r\n    LendingPoolCore core = LendingPoolCore(LendingPoolAddressesProvider(AAVE).getLendingPoolCore());\r\n    IReserveInterestRateStrategy apr = IReserveInterestRateStrategy(core.getReserveInterestRateStrategyAddress(token));\r\n    (uint256 newLiquidityRate,,) = apr.calculateInterestRates(\r\n      token,\r\n      core.getReserveAvailableLiquidity(token).add(_supply),\r\n      core.getReserveTotalBorrowsStable(token),\r\n      core.getReserveTotalBorrowsVariable(token),\r\n      core.getReserveCurrentAverageStableBorrowRate(token)\r\n    );\r\n    return newLiquidityRate.div(1e9);\r\n  }\r\n\r\n  // incase of half-way error\r\n  function inCaseTokenGetsStuck(IERC20 _TokenAddress) onlyOwner public {\r\n      uint qty = _TokenAddress.balanceOf(address(this));\r\n      _TokenAddress.transfer(msg.sender, qty);\r\n  }\r\n  // incase of half-way error\r\n  function inCaseETHGetsStuck() onlyOwner public{\r\n      (bool result, ) = msg.sender.call.value(address(this).balance)(\"\");\r\n      require(result, \"transfer of ETH failed\");\r\n  }\r\n}\r\n",
  "sourcePath": "D:/ftm/apr-oracle/contracts/APRWithPoolOracle.sol",
  "compiler": {
    "name": "solc",
    "version": "0.5.12+commit.7709ece9.Emscripten.clang"
  },
  "schemaVersion": "3.0.19",
  "updatedAt": "2020-02-04T04:16:09.327Z",
  "devdoc": {
    "methods": {}
  },
  "userdoc": {
    "methods": {}
  }
}